{"abi":[{"type":"constructor","inputs":[{"name":"_visualsAuction","type":"address","internalType":"address"},{"name":"_aminalProposals","type":"address","internalType":"address"},{"name":"_genesNFT","type":"address","internalType":"address"}],"stateMutability":"nonpayable"},{"type":"function","name":"_vote","inputs":[{"name":"aminalID","type":"uint256","internalType":"uint256"},{"name":"proposalId","type":"uint256","internalType":"uint256"},{"name":"yesNo","type":"bool","internalType":"bool"}],"outputs":[],"stateMutability":"nonpayable"},{"type":"function","name":"addArm","inputs":[{"name":"arm","type":"string","internalType":"string"}],"outputs":[{"name":"id","type":"uint256","internalType":"uint256"}],"stateMutability":"nonpayable"},{"type":"function","name":"addBackground","inputs":[{"name":"background","type":"string","internalType":"string"}],"outputs":[{"name":"id","type":"uint256","internalType":"uint256"}],"stateMutability":"nonpayable"},{"type":"function","name":"addBody","inputs":[{"name":"body","type":"string","internalType":"string"}],"outputs":[{"name":"id","type":"uint256","internalType":"uint256"}],"stateMutability":"nonpayable"},{"type":"function","name":"addEar","inputs":[{"name":"ear","type":"string","internalType":"string"}],"outputs":[{"name":"id","type":"uint256","internalType":"uint256"}],"stateMutability":"nonpayable"},{"type":"function","name":"addFace","inputs":[{"name":"face","type":"string","internalType":"string"}],"outputs":[{"name":"id","type":"uint256","internalType":"uint256"}],"stateMutability":"nonpayable"},{"type":"function","name":"addMisc","inputs":[{"name":"misc","type":"string","internalType":"string"}],"outputs":[{"name":"id","type":"uint256","internalType":"uint256"}],"stateMutability":"nonpayable"},{"type":"function","name":"addMouth","inputs":[{"name":"mouth","type":"string","internalType":"string"}],"outputs":[{"name":"id","type":"uint256","internalType":"uint256"}],"stateMutability":"nonpayable"},{"type":"function","name":"addTail","inputs":[{"name":"tail","type":"string","internalType":"string"}],"outputs":[{"name":"id","type":"uint256","internalType":"uint256"}],"stateMutability":"nonpayable"},{"type":"function","name":"aminals","inputs":[{"name":"aminalId","type":"uint256","internalType":"uint256"}],"outputs":[{"name":"momId","type":"uint256","internalType":"uint256"},{"name":"dadId","type":"uint256","internalType":"uint256"},{"name":"totalLove","type":"uint256","internalType":"uint256"},{"name":"energy","type":"uint256","internalType":"uint256"},{"name":"breeding","type":"bool","internalType":"bool"},{"name":"exists","type":"bool","internalType":"bool"},{"name":"visuals","type":"tuple","internalType":"struct IAminalStructs.Visuals","components":[{"name":"backId","type":"uint256","internalType":"uint256"},{"name":"armId","type":"uint256","internalType":"uint256"},{"name":"tailId","type":"uint256","internalType":"uint256"},{"name":"earsId","type":"uint256","internalType":"uint256"},{"name":"bodyId","type":"uint256","internalType":"uint256"},{"name":"faceId","type":"uint256","internalType":"uint256"},{"name":"mouthId","type":"uint256","internalType":"uint256"},{"name":"miscId","type":"uint256","internalType":"uint256"}]}],"stateMutability":"view"},{"type":"function","name":"approve","inputs":[{"name":"spender","type":"address","internalType":"address"},{"name":"id","type":"uint256","internalType":"uint256"}],"outputs":[],"stateMutability":"nonpayable"},{"type":"function","name":"arms","inputs":[{"name":"","type":"uint256","internalType":"uint256"}],"outputs":[{"name":"svg","type":"string","internalType":"string"},{"name":"creator","type":"address","internalType":"address"}],"stateMutability":"view"},{"type":"function","name":"backgrounds","inputs":[{"name":"","type":"uint256","internalType":"uint256"}],"outputs":[{"name":"svg","type":"string","internalType":"string"},{"name":"creator","type":"address","internalType":"address"}],"stateMutability":"view"},{"type":"function","name":"balanceOf","inputs":[{"name":"owner","type":"address","internalType":"address"}],"outputs":[{"name":"","type":"uint256","internalType":"uint256"}],"stateMutability":"view"},{"type":"function","name":"bodies","inputs":[{"name":"","type":"uint256","internalType":"uint256"}],"outputs":[{"name":"svg","type":"string","internalType":"string"},{"name":"creator","type":"address","internalType":"address"}],"stateMutability":"view"},{"type":"function","name":"breedWith","inputs":[{"name":"aminalIdOne","type":"uint256","internalType":"uint256"},{"name":"aminalIdTwo","type":"uint256","internalType":"uint256"}],"outputs":[{"name":"ret","type":"uint256","internalType":"uint256"}],"stateMutability":"payable"},{"type":"function","name":"callSkill","inputs":[{"name":"aminalId","type":"uint256","internalType":"uint256"},{"name":"skillAddress","type":"address","internalType":"address"},{"name":"data","type":"bytes","internalType":"bytes"}],"outputs":[],"stateMutability":"payable"},{"type":"function","name":"callSkillInternal","inputs":[{"name":"sender","type":"address","internalType":"address"},{"name":"aminalId","type":"uint256","internalType":"uint256"},{"name":"skillAddress","type":"address","internalType":"address"},{"name":"data","type":"bytes","internalType":"bytes"}],"outputs":[],"stateMutability":"payable"},{"type":"function","name":"constructTokenURI","inputs":[{"name":"params","type":"tuple","internalType":"struct NFTDescriptor.TokenURIParams","components":[{"name":"name","type":"string","internalType":"string"},{"name":"description","type":"string","internalType":"string"},{"name":"image","type":"string","internalType":"string"},{"name":"attributes","type":"string","internalType":"string"}]}],"outputs":[{"name":"","type":"string","internalType":"string"}],"stateMutability":"pure"},{"type":"function","name":"dataURI","inputs":[{"name":"tokenId","type":"uint256","internalType":"uint256"}],"outputs":[{"name":"","type":"string","internalType":"string"}],"stateMutability":"view"},{"type":"function","name":"disableBreedable","inputs":[{"name":"aminalIdOne","type":"uint256","internalType":"uint256"},{"name":"aminalIdTwo","type":"uint256","internalType":"uint256"}],"outputs":[],"stateMutability":"nonpayable"},{"type":"function","name":"ears","inputs":[{"name":"","type":"uint256","internalType":"uint256"}],"outputs":[{"name":"svg","type":"string","internalType":"string"},{"name":"creator","type":"address","internalType":"address"}],"stateMutability":"view"},{"type":"function","name":"faces","inputs":[{"name":"","type":"uint256","internalType":"uint256"}],"outputs":[{"name":"svg","type":"string","internalType":"string"},{"name":"creator","type":"address","internalType":"address"}],"stateMutability":"view"},{"type":"function","name":"feed","inputs":[{"name":"aminalId","type":"uint256","internalType":"uint256"}],"outputs":[{"name":"","type":"uint256","internalType":"uint256"}],"stateMutability":"payable"},{"type":"function","name":"generateAttributesList","inputs":[{"name":"tokenId","type":"uint256","internalType":"uint256"}],"outputs":[{"name":"","type":"string","internalType":"string"}],"stateMutability":"pure"},{"type":"function","name":"genericDataURI","inputs":[{"name":"_name","type":"string","internalType":"string"},{"name":"_description","type":"string","internalType":"string"},{"name":"_image","type":"string","internalType":"string"},{"name":"_attributes","type":"string","internalType":"string"}],"outputs":[{"name":"","type":"string","internalType":"string"}],"stateMutability":"pure"},{"type":"function","name":"genesNFT","inputs":[],"outputs":[{"name":"","type":"address","internalType":"contract GenesNFT"}],"stateMutability":"view"},{"type":"function","name":"getAminalLoveByIdByUser","inputs":[{"name":"aminalID","type":"uint256","internalType":"uint256"},{"name":"user","type":"address","internalType":"address"}],"outputs":[{"name":"","type":"uint256","internalType":"uint256"}],"stateMutability":"view"},{"type":"function","name":"getAminalLoveTotal","inputs":[{"name":"aminalID","type":"uint256","internalType":"uint256"}],"outputs":[{"name":"","type":"uint256","internalType":"uint256"}],"stateMutability":"view"},{"type":"function","name":"getAminalVisualsByID","inputs":[{"name":"aminalID","type":"uint256","internalType":"uint256"}],"outputs":[{"name":"","type":"tuple","internalType":"struct IAminalStructs.Visuals","components":[{"name":"backId","type":"uint256","internalType":"uint256"},{"name":"armId","type":"uint256","internalType":"uint256"},{"name":"tailId","type":"uint256","internalType":"uint256"},{"name":"earsId","type":"uint256","internalType":"uint256"},{"name":"bodyId","type":"uint256","internalType":"uint256"},{"name":"faceId","type":"uint256","internalType":"uint256"},{"name":"mouthId","type":"uint256","internalType":"uint256"},{"name":"miscId","type":"uint256","internalType":"uint256"}]}],"stateMutability":"view"},{"type":"function","name":"getEnergy","inputs":[{"name":"aminalID","type":"uint256","internalType":"uint256"}],"outputs":[{"name":"","type":"uint256","internalType":"uint256"}],"stateMutability":"view"},{"type":"function","name":"getVisuals","inputs":[{"name":"category","type":"uint256","internalType":"uint256"},{"name":"id","type":"uint256","internalType":"uint256"}],"outputs":[{"name":"","type":"string","internalType":"string"}],"stateMutability":"view"},{"type":"function","name":"lastAminalId","inputs":[],"outputs":[{"name":"","type":"uint256","internalType":"uint256"}],"stateMutability":"view"},{"type":"function","name":"loveDrivenPrice","inputs":[{"name":"aminalId","type":"uint256","internalType":"uint256"},{"name":"sender","type":"address","internalType":"address"}],"outputs":[{"name":"","type":"uint128","internalType":"uint128"}],"stateMutability":"view"},{"type":"function","name":"miscs","inputs":[{"name":"","type":"uint256","internalType":"uint256"}],"outputs":[{"name":"svg","type":"string","internalType":"string"},{"name":"creator","type":"address","internalType":"address"}],"stateMutability":"view"},{"type":"function","name":"mouths","inputs":[{"name":"","type":"uint256","internalType":"uint256"}],"outputs":[{"name":"svg","type":"string","internalType":"string"},{"name":"creator","type":"address","internalType":"address"}],"stateMutability":"view"},{"type":"function","name":"name","inputs":[],"outputs":[{"name":"","type":"string","internalType":"string"}],"stateMutability":"view"},{"type":"function","name":"owner","inputs":[],"outputs":[{"name":"","type":"address","internalType":"address"}],"stateMutability":"view"},{"type":"function","name":"ownerOf","inputs":[{"name":"id","type":"uint256","internalType":"uint256"}],"outputs":[{"name":"owner","type":"address","internalType":"address"}],"stateMutability":"view"},{"type":"function","name":"proposals","inputs":[],"outputs":[{"name":"","type":"address","internalType":"contract AminalProposals"}],"stateMutability":"view"},{"type":"function","name":"proposeAddSkill","inputs":[{"name":"aminalID","type":"uint256","internalType":"uint256"},{"name":"skillName","type":"string","internalType":"string"},{"name":"skillAddress","type":"address","internalType":"address"}],"outputs":[{"name":"proposalId","type":"uint256","internalType":"uint256"}],"stateMutability":"payable"},{"type":"function","name":"proposeRemoveSkill","inputs":[{"name":"aminalID","type":"uint256","internalType":"uint256"},{"name":"description","type":"string","internalType":"string"},{"name":"skillAddress","type":"address","internalType":"address"}],"outputs":[{"name":"proposalId","type":"uint256","internalType":"uint256"}],"stateMutability":"payable"},{"type":"function","name":"removeSkill","inputs":[{"name":"faddress","type":"address","internalType":"address"},{"name":"aminalID","type":"uint256","internalType":"uint256"}],"outputs":[],"stateMutability":"nonpayable"},{"type":"function","name":"renounceOwnership","inputs":[],"outputs":[],"stateMutability":"nonpayable"},{"type":"function","name":"safeTransferFrom","inputs":[{"name":"from","type":"address","internalType":"address"},{"name":"to","type":"address","internalType":"address"},{"name":"id","type":"uint256","internalType":"uint256"}],"outputs":[],"stateMutability":"nonpayable"},{"type":"function","name":"safeTransferFrom","inputs":[{"name":"from","type":"address","internalType":"address"},{"name":"to","type":"address","internalType":"address"},{"name":"id","type":"uint256","internalType":"uint256"},{"name":"data","type":"bytes","internalType":"bytes"}],"outputs":[],"stateMutability":"nonpayable"},{"type":"function","name":"setApprovalForAll","inputs":[{"name":"operator","type":"address","internalType":"address"},{"name":"approved","type":"bool","internalType":"bool"}],"outputs":[],"stateMutability":"nonpayable"},{"type":"function","name":"setBreeding","inputs":[{"name":"aminalID","type":"uint256","internalType":"uint256"},{"name":"breeding","type":"bool","internalType":"bool"}],"outputs":[],"stateMutability":"nonpayable"},{"type":"function","name":"setup","inputs":[],"outputs":[],"stateMutability":"nonpayable"},{"type":"function","name":"skills","inputs":[{"name":"","type":"address","internalType":"address"}],"outputs":[{"name":"","type":"bool","internalType":"bool"}],"stateMutability":"view"},{"type":"function","name":"spawnAminal","inputs":[{"name":"aminalOne","type":"uint256","internalType":"uint256"},{"name":"aminalTwo","type":"uint256","internalType":"uint256"},{"name":"backId","type":"uint256","internalType":"uint256"},{"name":"armId","type":"uint256","internalType":"uint256"},{"name":"tailId","type":"uint256","internalType":"uint256"},{"name":"earsId","type":"uint256","internalType":"uint256"},{"name":"bodyId","type":"uint256","internalType":"uint256"},{"name":"faceId","type":"uint256","internalType":"uint256"},{"name":"mouthId","type":"uint256","internalType":"uint256"},{"name":"miscId","type":"uint256","internalType":"uint256"}],"outputs":[{"name":"","type":"uint256","internalType":"uint256"}],"stateMutability":"nonpayable"},{"type":"function","name":"spawnInitialAminals","inputs":[{"name":"_visuals","type":"tuple[]","internalType":"struct IAminalStructs.Visuals[]","components":[{"name":"backId","type":"uint256","internalType":"uint256"},{"name":"armId","type":"uint256","internalType":"uint256"},{"name":"tailId","type":"uint256","internalType":"uint256"},{"name":"earsId","type":"uint256","internalType":"uint256"},{"name":"bodyId","type":"uint256","internalType":"uint256"},{"name":"faceId","type":"uint256","internalType":"uint256"},{"name":"mouthId","type":"uint256","internalType":"uint256"},{"name":"miscId","type":"uint256","internalType":"uint256"}]}],"outputs":[],"stateMutability":"nonpayable"},{"type":"function","name":"squeak","inputs":[{"name":"aminalId","type":"uint256","internalType":"uint256"},{"name":"amount","type":"uint256","internalType":"uint256"}],"outputs":[],"stateMutability":"payable"},{"type":"function","name":"supportsInterface","inputs":[{"name":"interfaceId","type":"bytes4","internalType":"bytes4"}],"outputs":[{"name":"","type":"bool","internalType":"bool"}],"stateMutability":"view"},{"type":"function","name":"symbol","inputs":[],"outputs":[{"name":"","type":"string","internalType":"string"}],"stateMutability":"view"},{"type":"function","name":"tails","inputs":[{"name":"","type":"uint256","internalType":"uint256"}],"outputs":[{"name":"svg","type":"string","internalType":"string"},{"name":"creator","type":"address","internalType":"address"}],"stateMutability":"view"},{"type":"function","name":"tokenURI","inputs":[{"name":"aminalID","type":"uint256","internalType":"uint256"}],"outputs":[{"name":"","type":"string","internalType":"string"}],"stateMutability":"view"},{"type":"function","name":"transferFrom","inputs":[{"name":"from","type":"address","internalType":"address"},{"name":"to","type":"address","internalType":"address"},{"name":"id","type":"uint256","internalType":"uint256"}],"outputs":[],"stateMutability":"nonpayable"},{"type":"function","name":"transferOwnership","inputs":[{"name":"newOwner","type":"address","internalType":"address"}],"outputs":[],"stateMutability":"nonpayable"},{"type":"function","name":"visualsAuction","inputs":[],"outputs":[{"name":"","type":"address","internalType":"contract VisualsAuction"}],"stateMutability":"view"},{"type":"function","name":"voteSkill","inputs":[{"name":"aminalID","type":"uint256","internalType":"uint256"},{"name":"proposalID","type":"uint256","internalType":"uint256"},{"name":"yesNo","type":"bool","internalType":"bool"}],"outputs":[],"stateMutability":"nonpayable"},{"type":"event","name":"AddSkillProposal","inputs":[{"name":"aminalId","type":"uint256","indexed":true,"internalType":"uint256"},{"name":"proposalId","type":"uint256","indexed":false,"internalType":"uint256"},{"name":"skillName","type":"string","indexed":false,"internalType":"string"},{"name":"skillAddress","type":"address","indexed":false,"internalType":"address"},{"name":"sender","type":"address","indexed":false,"internalType":"address"}],"anonymous":false},{"type":"event","name":"BreedAminal","inputs":[{"name":"aminalOne","type":"uint256","indexed":true,"internalType":"uint256"},{"name":"aminalTwo","type":"uint256","indexed":true,"internalType":"uint256"},{"name":"auctionId","type":"uint256","indexed":false,"internalType":"uint256"}],"anonymous":false},{"type":"event","name":"FeedAminal","inputs":[{"name":"aminalId","type":"uint256","indexed":true,"internalType":"uint256"},{"name":"sender","type":"address","indexed":false,"internalType":"address"},{"name":"amount","type":"uint256","indexed":false,"internalType":"uint256"},{"name":"love","type":"uint256","indexed":false,"internalType":"uint256"},{"name":"totalLove","type":"uint256","indexed":false,"internalType":"uint256"},{"name":"energy","type":"uint256","indexed":false,"internalType":"uint256"}],"anonymous":false},{"type":"event","name":"Initialized","inputs":[{"name":"version","type":"uint8","indexed":false,"internalType":"uint8"}],"anonymous":false},{"type":"event","name":"OwnershipTransferred","inputs":[{"name":"previousOwner","type":"address","indexed":true,"internalType":"address"},{"name":"newOwner","type":"address","indexed":true,"internalType":"address"}],"anonymous":false},{"type":"event","name":"RemoveSkillProposal","inputs":[{"name":"aminalId","type":"uint256","indexed":true,"internalType":"uint256"},{"name":"proposalId","type":"uint256","indexed":false,"internalType":"uint256"},{"name":"skillAddress","type":"address","indexed":false,"internalType":"address"},{"name":"sender","type":"address","indexed":false,"internalType":"address"}],"anonymous":false},{"type":"event","name":"SkillAdded","inputs":[{"name":"aminalId","type":"uint256","indexed":true,"internalType":"uint256"},{"name":"skillAddress","type":"address","indexed":false,"internalType":"address"}],"anonymous":false},{"type":"event","name":"SkillRemoved","inputs":[{"name":"aminalId","type":"uint256","indexed":true,"internalType":"uint256"},{"name":"skillAddress","type":"address","indexed":false,"internalType":"address"}],"anonymous":false},{"type":"event","name":"SkillVote","inputs":[{"name":"aminalId","type":"uint256","indexed":true,"internalType":"uint256"},{"name":"sender","type":"address","indexed":false,"internalType":"address"},{"name":"proposalId","type":"uint256","indexed":false,"internalType":"uint256"},{"name":"yesNo","type":"bool","indexed":false,"internalType":"bool"}],"anonymous":false},{"type":"event","name":"SpawnAminal","inputs":[{"name":"aminalId","type":"uint256","indexed":true,"internalType":"uint256"},{"name":"mom","type":"uint256","indexed":true,"internalType":"uint256"},{"name":"dad","type":"uint256","indexed":true,"internalType":"uint256"},{"name":"backId","type":"uint256","indexed":false,"internalType":"uint256"},{"name":"armId","type":"uint256","indexed":false,"internalType":"uint256"},{"name":"tailId","type":"uint256","indexed":false,"internalType":"uint256"},{"name":"earsId","type":"uint256","indexed":false,"internalType":"uint256"},{"name":"bodyId","type":"uint256","indexed":false,"internalType":"uint256"},{"name":"faceId","type":"uint256","indexed":false,"internalType":"uint256"},{"name":"mouthId","type":"uint256","indexed":false,"internalType":"uint256"},{"name":"miscId","type":"uint256","indexed":false,"internalType":"uint256"}],"anonymous":false},{"type":"event","name":"Squeak","inputs":[{"name":"aminalId","type":"uint256","indexed":true,"internalType":"uint256"},{"name":"amount","type":"uint256","indexed":false,"internalType":"uint256"},{"name":"energy","type":"uint256","indexed":false,"internalType":"uint256"},{"name":"love","type":"uint256","indexed":false,"internalType":"uint256"},{"name":"sender","type":"address","indexed":false,"internalType":"address"}],"anonymous":false},{"type":"event","name":"TraitAdded","inputs":[{"name":"visualId","type":"uint256","indexed":false,"internalType":"uint256"},{"name":"catEnum","type":"uint8","indexed":false,"internalType":"enum IAminalStructs.VisualsCat"},{"name":"svg","type":"string","indexed":false,"internalType":"string"},{"name":"creator","type":"address","indexed":false,"internalType":"address"}],"anonymous":false},{"type":"event","name":"Transfer","inputs":[{"name":"from","type":"address","indexed":true,"internalType":"address"},{"name":"to","type":"address","indexed":true,"internalType":"address"},{"name":"id","type":"uint256","indexed":true,"internalType":"uint256"}],"anonymous":false},{"type":"error","name":"AminalDoesNotExist","inputs":[]},{"type":"error","name":"NotEnoughEther","inputs":[]},{"type":"error","name":"NotSpawnable","inputs":[]}],"bytecode":{"object":"0x60806040523480156200001157600080fd5b506040516200568f3803806200568f833981016040819052620000349162000171565b60405180604001604052806007815260200166416d696e616c7360c81b81525060405180604001604052806007815260200166414d494e414c5360c81b815250816000908162000085919062000260565b50600162000094828262000260565b505050620000b1620000ab620000f460201b60201c565b620000f8565b600f80546001600160a01b039485166001600160a01b0319918216179091556012805492851692821692909217909155601180549290931691161790556200032c565b3390565b600c80546001600160a01b038381166201000081810262010000600160b01b031985161790945560405193909204169182907f8be0079c531659141344cd1fd0a4f28419497f9722a3daafe3b4186f6b6457e090600090a35050565b80516001600160a01b03811681146200016c57600080fd5b919050565b6000806000606084860312156200018757600080fd5b620001928462000154565b9250620001a26020850162000154565b9150620001b26040850162000154565b90509250925092565b634e487b7160e01b600052604160045260246000fd5b600181811c90821680620001e657607f821691505b6020821081036200020757634e487b7160e01b600052602260045260246000fd5b50919050565b601f8211156200025b57600081815260208120601f850160051c81016020861015620002365750805b601f850160051c820191505b81811015620002575782815560010162000242565b5050505b505050565b81516001600160401b038111156200027c576200027c620001bb565b62000294816200028d8454620001d1565b846200020d565b602080601f831160018114620002cc5760008415620002b35750858301515b600019600386901b1c1916600185901b17855562000257565b600085815260208120601f198616915b82811015620002fd57888601518255948401946001909101908401620002dc565b50858210156200031c5787850151600019600388901b60f8161c191681555b5050505050600190811b01905550565b615353806200033c6000396000f3fe6080604052600436106103a25760003560e01c806370a08231116101e757806399b299141161010d578063d829b56e116100a0578063ed19c6ce1161006f578063ed19c6ce14610b9a578063f2fde38b14610bd2578063f3a7a54014610bf2578063f59dfdfb14610c1257600080fd5b8063d829b56e14610b1a578063da7de20714610b3a578063e11873b414610b5a578063e38294df14610b7a57600080fd5b8063b8e19635116100dc578063b8e1963514610aa5578063ba0bba4014610ac5578063c78e87d514610ada578063c87b56dd14610afa57600080fd5b806399b2991414610a2a578063a22cb46514610a4a578063b7d168e614610a65578063b88d4fde14610a8557600080fd5b80637e0358a61161018557806392b4c81b1161015457806392b4c81b146109a8578063932b4c5f146109c8578063938a3458146109e857806395d89b4114610a1557600080fd5b80637e0358a6146109145780638d549a25146109445780638da5cb5b1461096457806390f1d5dc1461098857600080fd5b806371cde580116101c157806371cde5801461088457806373a645a1146108a45780637905c044146108c457806379f372f6146108e457600080fd5b806370a082311461082f578063711379f81461084f578063715018a61461086f57600080fd5b80632f2f967b116102cc5780634d37b6931161026a5780635ac1e3bb116102395780635ac1e3bb146107bc5780635e70664c146107dc5780636352211e146107fc5780637004fb841461081c57600080fd5b80634d37b693146107365780634f0f3c091461074c57806355ef20e61461077c578063576b87a71461079c57600080fd5b806344cee73c116102a657806344cee73c1461069c57806349e25e00146106bc5780634ba7d0d5146106cf5780634c82f4b4146106ef57600080fd5b80632f2f967b1461063c57806342320aa11461065c57806342842e0e1461067c57600080fd5b8063095ea7b31161034457806319a571c91161031357806319a571c9146105285780631c5570731461054857806323b872dd1461060e578063248aeab11461062957600080fd5b8063095ea7b3146104c55780631540d37a146104e257806316ce9c6d146104f55780631994f00b1461051557600080fd5b8063055010ba11610380578063055010ba1461042b57806306fdde031461044b57806307c3c9481461046d5780630847335c1461048d57600080fd5b806301ce4776146103a757806301ffc9a7146103cd57806304bde4dd146103fd575b600080fd5b6103ba6103b53660046140d4565b610c25565b6040519081526020015b60405180910390f35b3480156103d957600080fd5b506103ed6103e8366004614132565b610ead565b60405190151581526020016103c4565b34801561040957600080fd5b5061041d61041836600461415c565b610eff565b6040516103c49291906141c5565b34801561043757600080fd5b506103ba6104463660046142da565b610fc4565b34801561045757600080fd5b50610460611097565b6040516103c4919061430e565b34801561047957600080fd5b5061046061048836600461415c565b611125565b34801561049957600080fd5b506012546104ad906001600160a01b031681565b6040516001600160a01b0390911681526020016103c4565b3480156104d157600080fd5b506104e06103a2366004614321565b005b6103ba6104f03660046140d4565b61115a565b34801561050157600080fd5b5061041d61051036600461415c565b6113e3565b6104e061052336600461434d565b6113f3565b34801561053457600080fd5b506103ba6105433660046143bf565b6115b1565b34801561055457600080fd5b506105fb61056336600461415c565b600d602081815260009283526040928390208054600182015460028301546003840154600485015488516101008181018b5260078801548252600888015498820198909852600987015499810199909952600a86015460608a0152600b86015460808a0152600c86015460a08a01529685015460c0890152600e9094015460e088015291959094919360ff8084169391909104169087565b6040516103c49796959493929190614475565b34801561061a57600080fd5b506104e06103a23660046144b0565b6104e06106373660046144f1565b6115f1565b34801561064857600080fd5b506103ba6106573660046142da565b611702565b34801561066857600080fd5b506103ba6106773660046142da565b6117ce565b34801561068857600080fd5b506104e06106973660046144b0565b61189a565b3480156106a857600080fd5b5061041d6106b736600461415c565b6118a2565b6104e06106ca36600461454c565b6118b2565b3480156106db57600080fd5b506104e06106ea36600461457c565b611b08565b3480156106fb57600080fd5b506103ba61070a3660046145b5565b6000828152600d602090815260408083206001600160a01b038516845260060190915290205492915050565b34801561074257600080fd5b506103ba600e5481565b34801561075857600080fd5b506103ed6107673660046145e5565b60106020526000908152604090205460ff1681565b34801561078857600080fd5b506011546104ad906001600160a01b031681565b3480156107a857600080fd5b506103ba6107b73660046142da565b611fe2565b3480156107c857600080fd5b506104606107d736600461415c565b6120ae565b3480156107e857600080fd5b506103ba6107f73660046142da565b6121a9565b34801561080857600080fd5b506104ad61081736600461415c565b612275565b6103ba61082a36600461454c565b6122cc565b34801561083b57600080fd5b506103ba61084a3660046145e5565b61268a565b34801561085b57600080fd5b506104e061086a366004614602565b6126ed565b34801561087b57600080fd5b506104e0612727565b34801561089057600080fd5b5061041d61089f36600461415c565b61273b565b3480156108b057600080fd5b506103ba6108bf3660046142da565b61274b565b3480156108d057600080fd5b506104e06108df36600461457c565b612875565b3480156108f057600080fd5b506103ba6108ff36600461415c565b6000908152600d602052604090206002015490565b34801561092057600080fd5b506103ba61092f36600461415c565b6000908152600d602052604090206003015490565b34801561095057600080fd5b506104e061095f366004614627565b6129f6565b34801561097057600080fd5b50600c546201000090046001600160a01b03166104ad565b34801561099457600080fd5b5061041d6109a336600461415c565b612c1a565b3480156109b457600080fd5b506104606109c336600461469b565b612c2a565b3480156109d457600080fd5b506104e06109e336600461454c565b612c7a565b3480156109f457600080fd5b50610a08610a0336600461415c565b612cd0565b6040516103c49190614773565b348015610a2157600080fd5b50610460612d88565b348015610a3657600080fd5b506103ba610a453660046142da565b612d95565b348015610a5657600080fd5b506104e06103a2366004614782565b348015610a7157600080fd5b50610460610a803660046147b0565b612e61565b348015610a9157600080fd5b506104e0610aa036600461485c565b612e9d565b348015610ab157600080fd5b5061041d610ac036600461415c565b612ea5565b348015610ad157600080fd5b506104e0612eb5565b348015610ae657600080fd5b506103ba610af53660046142da565b612f13565b348015610b0657600080fd5b50610460610b1536600461415c565b612fdf565b348015610b2657600080fd5b5061041d610b3536600461415c565b613049565b348015610b4657600080fd5b5061041d610b5536600461415c565b613059565b348015610b6657600080fd5b50610460610b7536600461454c565b613069565b348015610b8657600080fd5b50600f546104ad906001600160a01b031681565b348015610ba657600080fd5b50610bba610bb53660046145b5565b61335f565b6040516001600160801b0390911681526020016103c4565b348015610bde57600080fd5b506104e0610bed3660046145e5565b613404565b348015610bfe57600080fd5b506104e0610c0d366004614321565b61347d565b6103ba610c2036600461415c565b6134d8565b600080610c32863361335f565b9050806001600160801b0316341015610c665760405162461bcd60e51b8152600401610c5d906148b1565b60405180910390fd5b60115460405162e723bb60e11b81526001600160a01b03909116906301ce477690610c9b908990899089908990600401614922565b6020604051808303816000875af1158015610cba573d6000803e3d6000fd5b505050506040513d601f19601f82011682018060405250810190610cde9190614955565b6011549092506001600160a01b031663e14a222b8733856001610d10846000908152600d602052604090206002015490565b601160009054906101000a90046001600160a01b03166001600160a01b0316637b8d46cb6040518163ffffffff1660e01b8152600401602060405180830381865afa158015610d63573d6000803e3d6000fd5b505050506040513d601f19601f82011682018060405250810190610d879190614955565b601160009054906101000a90046001600160a01b03166001600160a01b031663c962e1816040518163ffffffff1660e01b8152600401602060405180830381865afa158015610dda573d6000803e3d6000fd5b505050506040513d601f19601f82011682018060405250810190610dfe9190614955565b6040518863ffffffff1660e01b8152600401610e20979695949392919061496e565b6020604051808303816000875af1158015610e3f573d6000803e3d6000fd5b505050506040513d601f19601f82011682018060405250810190610e639190614955565b50857fe567a3653797f914bcfbcde6757a7f9d56d1de4235c971241a224b957d14fe408387878733604051610e9c9594939291906149a7565b60405180910390a250949350505050565b60006301ffc9a760e01b6001600160e01b031983161480610ede57506380ac58cd60e01b6001600160e01b03198316145b80610ef95750635b5e139f60e01b6001600160e01b03198316145b92915050565b60048181548110610f0f57600080fd5b9060005260206000209060020201600091509050806000018054610f32906149e3565b80601f0160208091040260200160405190810160405280929190818152602001828054610f5e906149e3565b8015610fab5780601f10610f8057610100808354040283529160200191610fab565b820191906000526020600020905b815481529060010190602001808311610f8e57829003601f168201915b505050600190930154919250506001600160a01b031682565b60408051808201909152818152336020820152600b80546001810182556000918252825191929182916002027f0175b7a638427703f0dbe7bb9bbf987a2551717b34e79f33b5b1008d1fa01db90190819061101f9082614a63565b5060209190910151600191820180546001600160a01b0319166001600160a01b03909216919091179055600b5460008051602061525a8339815191529161106591614b38565b600785336040516110799493929190614b83565b60405180910390a1600b5461109090600190614b38565b9392505050565b600080546110a4906149e3565b80601f01602080910402602001604051908101604052809291908181526020018280546110d0906149e3565b801561111d5780601f106110f25761010080835404028352916020019161111d565b820191906000526020600020905b81548152906001019060200180831161110057829003601f168201915b505050505081565b606061113082613545565b6040516020016111409190614bc2565b6040516020818303038152906040529050919050565b5050565b600080611167863361335f565b9050806001600160801b03163410156111925760405162461bcd60e51b8152600401610c5d906148b1565b601154604051630aa069bd60e11b81526001600160a01b0390911690631540d37a906111c8908990899089908990600401614922565b6020604051808303816000875af11580156111e7573d6000803e3d6000fd5b505050506040513d601f19601f8201168201806040525081019061120b9190614955565b915061121682613645565b6011546001600160a01b031663e14a222b8733856001611245846000908152600d602052604090206002015490565b601160009054906101000a90046001600160a01b03166001600160a01b0316637b8d46cb6040518163ffffffff1660e01b8152600401602060405180830381865afa158015611298573d6000803e3d6000fd5b505050506040513d601f19601f820116820180604052508101906112bc9190614955565b601160009054906101000a90046001600160a01b03166001600160a01b031663c962e1816040518163ffffffff1660e01b8152600401602060405180830381865afa15801561130f573d6000803e3d6000fd5b505050506040513d601f19601f820116820180604052508101906113339190614955565b6040518863ffffffff1660e01b8152600401611355979695949392919061496e565b6020604051808303816000875af1158015611374573d6000803e3d6000fd5b505050506040513d601f19601f820116820180604052508101906113989190614955565b50604080518381526001600160a01b0385166020820152339181019190915286907ff26c80c0064b01e8e364fb89d7ed2c7651fdd2555484ff04b64bf09e621dd7cf90606001610e9c565b60058181548110610f0f57600080fd5b3360009081526010602052604090205460ff16151560011461147d5760405162461bcd60e51b815260206004820152603a60248201527f63616c6c536b696c6c496e7465726e616c2063616e206f6e6c7920626520636160448201527f6c6c65642062792061207265676973746572656420736b696c6c0000000000006064820152608401610c5d565b6001600160a01b03831660009081526010602052604090205460ff1615156001146114e15760405162461bcd60e51b815260206004820152601460248201527314dada5b1b08191bd95cc81b9bdd08195e1a5cdd60621b6044820152606401610c5d565b6115036040518060600160405280602e81526020016151fb602e91393461368a565b6000836001600160a01b0316631f3e26ef34888887876040518663ffffffff1660e01b81526004016115389493929190614c1d565b60206040518083038185885af1158015611556573d6000803e3d6000fd5b50505050506040513d601f19601f8201168201806040525081019061157b9190614955565b905061159f604051806060016040528060318152602001615229603191398261368a565b6115a985826118b2565b505050505050565b600f546000906001600160a01b031633146115cb57600080fd5b6115dd8b8b8b8b8b8b8b8b8b8b6136cf565b9b9a5050505050505050505050565b505050565b6001600160a01b03831660009081526010602052604090205460ff1615156001146116555760405162461bcd60e51b815260206004820152601460248201527314dada5b1b08191bd95cc81b9bdd08195e1a5cdd60621b6044820152606401610c5d565b6000836001600160a01b0316631f3e26ef34338887876040518663ffffffff1660e01b815260040161168a9493929190614c1d565b60206040518083038185885af11580156116a8573d6000803e3d6000fd5b50505050506040513d601f19601f820116820180604052508101906116cd9190614955565b90506116f16040518060600160405280603181526020016151ca603191398261368a565b6116fb85826118b2565b5050505050565b60408051808201909152818152336020820152600780546001810182556000918252825191929182916002027fa66cc928b5edb82af9bd49922954155ab7b0942694bea4ce44661d9a8736c6880190819061175d9082614a63565b5060209190910151600191820180546001600160a01b0319166001600160a01b0390921691909117905560075460008051602061525a833981519152916117a391614b38565b600385336040516117b79493929190614b83565b60405180910390a160075461109090600190614b38565b60408051808201909152818152336020820152600680546001810182556000918252825191929182916002027ff652222313e28459528d920b65115c16c04f3efc82aaedc97be59f3f377c0d3f019081906118299082614a63565b5060209190910151600191820180546001600160a01b0319166001600160a01b0390921691909117905560065460008051602061525a8339815191529161186f91614b38565b600285336040516118839493929190614b83565b60405180910390a160065461109090600190614b38565b6115ec600080fd5b60088181548110610f0f57600080fd5b6118f16040518060400160405280601a81526020017f686572652e2e2e2077697468206d73672e76616c7565203d3d200000000000008152503461368a565b66038d7ea4c6800034101561191957604051638a0d377960e01b815260040160405180910390fd5b6000828152600d6020908152604080832081518083018352601681527503a3432b932971717103bb4ba34103637bb32901e9e960551b818501523385526006820190935292205461196a919061368a565b604080518082018252601b81527f636f6d696e672066726f6d207468652061646472657373203d3d20000000000060208083019190915282518084018452600e81526d0103bb4ba341039b5b4b636399d160951b81830152336000818152601090935293909120546119e093919060ff166137d1565b3360009081526010602052604090205460ff16151560011480611a1457503360009081526006820160205260409020548211155b611a525760405162461bcd60e51b815260206004820152600f60248201526e4e6f7420656e6f756768206c6f766560881b6044820152606401610c5d565b3360009081526010602052604090205460ff161515600103611a7357505050565b81816003015410611a9457818160030154611a8e9190614b38565b60038201555b611aa1838333600061381a565b60038101543360008181526006840160209081526040918290205482518781529182019490945290810192909252606082015283907f46b12af58bce41d9ce509f1d6633f830d1fb1ce2dc7d3797b11dd558f666e36a9060800160405180910390a2505050565b6011546001600160a01b03163314611b1f57600080fd5b601154600e54604051632afc88f560e21b8152600481018590526001600160a01b03909216916386462a96918691869186918690636ab6f65490829063abf223d490602401602060405180830381865afa158015611b81573d6000803e3d6000fd5b505050506040513d601f19601f82011682018060405250810190611ba59190614955565b6040516001600160e01b031960e084901b1681526004810191909152426024820152604401602060405180830381865afa158015611be7573d6000803e3d6000fd5b505050506040513d601f19601f82011682018060405250810190611c0b9190614955565b601160009054906101000a90046001600160a01b03166001600160a01b03166332f1c3246040518163ffffffff1660e01b8152600401602060405180830381865afa158015611c5e573d6000803e3d6000fd5b505050506040513d601f19601f82011682018060405250810190611c829190614955565b6040516001600160e01b031960e089901b1681526004810196909652602486019490945291151560448501526064840152608483015260a482015260c401600060405180830381600087803b158015611cda57600080fd5b505af1158015611cee573d6000803e3d6000fd5b5050601154604051636cbc7fdd60e11b815260048101869052600093506001600160a01b03909116915063d978ffba90602401602060405180830381865afa158015611d3e573d6000803e3d6000fd5b505050506040513d601f19601f82011682018060405250810190611d629190614c45565b601154604051632759c1b360e01b8152600481018690529192506001600160a01b031690632759c1b390602401602060405180830381865afa158015611dac573d6000803e3d6000fd5b505050506040513d601f19601f82011682018060405250810190611dd09190614c66565b15611fdc57601154604051634925ec5560e01b8152600481018590526000916001600160a01b031690634925ec5590602401600060405180830381865afa158015611e1f573d6000803e3d6000fd5b505050506040513d6000823e601f3d908101601f19168201604052611e479190810190614c83565b6011546040516317abf35960e11b8152600481018790529192506000916001600160a01b0390911690632f57e6b290602401602060405180830381865afa158015611e96573d6000803e3d6000fd5b505050506040513d601f19601f82011682018060405250810190611eba9190614cf9565b601154604051634cc0764360e11b8152600481018890529192506000916001600160a01b0390911690639980ec8690602401602060405180830381865afa158015611f09573d6000803e3d6000fd5b505050506040513d601f19601f82011682018060405250810190611f2d9190614955565b90506000846001811115611f4357611f43614b4b565b03611f5757611f5282886138ce565b611f7a565b6001846001811115611f6b57611f6b614b4b565b03611f7a57611f7a828861347d565b601154604051630575f5a760e11b8152600481018890526001600160a01b0390911690630aebeb4e90602401600060405180830381600087803b158015611fc057600080fd5b505af1158015611fd4573d6000803e3d6000fd5b505050505050505b50505050565b60408051808201909152818152336020820152600580546001810182556000918252825191929182916002027f036b6384b5eca791c62761152d0c79bb0604c104a5fb6f4eb0703f3154bb3db00190819061203d9082614a63565b5060209190910151600191820180546001600160a01b0319166001600160a01b0390921691909117905560055460008051602061525a8339815191529161208391614b38565b600185336040516120979493929190614b83565b60405180910390a160055461109090600190614b38565b606060006120bb83613545565b6040516020016120cb9190614d16565b604051602081830303815290604052905060006120ef6120ea85613924565b613bf0565b6040516020016120ff9190614d46565b60405160208183030381529060405290506000604051602001612175907f54686973204e465420726570726573656e74732061206469676974616c20706581527f742e2054686973204e46542063616e6e6f74206265207472616e7366657265646020820152601760f91b604082015260410190565b6040516020818303038152906040529050600061219186611125565b905061219f84838584612e61565b9695505050505050565b60408051808201909152818152336020820152600480546001810182556000918252825191929182916002027f8a35acfbc15ff81a39ae7d344fd709f28e8600b4aa8c65c6b64bfe7fe36bd19b019081906122049082614a63565b5060209190910151600191820180546001600160a01b0319166001600160a01b0390921691909117905560045460008051602061525a8339815191529161224a91614b38565b6000853360405161225e9493929190614b83565b60405180910390a160045461109090600190614b38565b6000818152600260205260409020546001600160a01b0316806122c75760405162461bcd60e51b815260206004820152600a6024820152691393d517d3525395115160b21b6044820152606401610c5d565b919050565b600066038d7ea4c680003410156123185760405162461bcd60e51b815260206004820152601060248201526f2737ba1032b737bab3b41032ba3432b960811b6044820152606401610c5d565b6000838152600d6020908152604080832085845281842033855260068201909352922054600a111561237e5760405162461bcd60e51b815260206004820152600f60248201526e4e6f7420656e6f756768206c6f766560881b6044820152606401610c5d565b600084815260058301602052604090205460ff16156123f15760405162461bcd60e51b815260206004820152602960248201527f416d696e616c20697320616c726561647920627265616461626c65207769746860448201526820746865206d61746560b81b6064820152608401610c5d565b6000848152600d602052604090206004015460ff6101009091041615156001146124705760405162461bcd60e51b815260206004820152602a60248201527f50726f706f73656420416d696e616c20746f206d61746520646f6573206e6f7460448201526908195e1a5cdd081e595d60b21b6064820152608401610c5d565b600085815260058201602052604090205460ff16156125c157600a8260030154101580156124a35750600a816003015410155b6125035760405162461bcd60e51b815260206004820152602b60248201527f416d696e616c20646f6573206e6f74206861766520656e6f75676820656e657260448201526a19de481d1bc8189c99595960aa1b6064820152608401610c5d565b600f546040516313fb84ff60e21b815260048101879052602481018690526000916001600160a01b031690634fee13fc906044016020604051808303816000875af1158015612556573d6000803e3d6000fd5b505050506040513d601f19601f8201168201806040525081019061257a9190614955565b905084867f01ecc76f2fb8ffa2367de10250c909f428a106848b52f124b75238277ed080ae836040516125af91815260200190565b60405180910390a39250610ef9915050565b6000848152600583016020908152604091829020805460ff191660011790558151808301835260088152670c2dad2dcc2d840560c31b818301528251808401909352601883527f29206973206e6f7720627265656461626c6520776974682000000000000000009183019190915261263b91879087613d56565b83857f01ecc76f2fb8ffa2367de10250c909f428a106848b52f124b75238277ed080ae600060405161266f91815260200190565b60405180910390a3600092505050610ef9565b505092915050565b60006001600160a01b0382166126d15760405162461bcd60e51b815260206004820152600c60248201526b5a45524f5f4144445245535360a01b6044820152606401610c5d565b506001600160a01b031660009081526003602052604090205490565b600f546001600160a01b0316331461270457600080fd5b6000918252600d6020526040909120600401805460ff1916911515919091179055565b61272f613d9f565b6127396000613e00565b565b60068181548110610f0f57600080fd5b60408051808201909152818152336020820152600980546001810182556000918252825191929182916002027f6e1540171b6c0c960b71a7020d9f60077f6af931a8bbf590da0223dacf75c7af019081906127a69082614a63565b5060209190910151600190910180546001600160a01b0319166001600160a01b03928316179055601254604051636a4b888360e01b8152911690636a4b8883906127f99033908790600590600401614d8b565b600060405180830381600087803b15801561281357600080fd5b505af1158015612827573d6000803e3d6000fd5b505060095460008051602061525a833981519152925061284a9150600190614b38565b6005853360405161285e9493929190614b83565b60405180910390a160095461109090600190614b38565b6011546001600160a01b031663e14a222b843385856128a3846000908152600d602052604090206002015490565b601160009054906101000a90046001600160a01b03166001600160a01b0316637b8d46cb6040518163ffffffff1660e01b8152600401602060405180830381865afa1580156128f6573d6000803e3d6000fd5b505050506040513d601f19601f8201168201806040525081019061291a9190614955565b601160009054906101000a90046001600160a01b03166001600160a01b031663c962e1816040518163ffffffff1660e01b8152600401602060405180830381865afa15801561296d573d6000803e3d6000fd5b505050506040513d601f19601f820116820180604052508101906129919190614955565b6040518863ffffffff1660e01b81526004016129b3979695949392919061496e565b6020604051808303816000875af11580156129d2573d6000803e3d6000fd5b505050506040513d601f19601f82011682018060405250810190611fdc9190614955565b600c54610100900460ff1615808015612a165750600c54600160ff909116105b80612a305750303b158015612a305750600c5460ff166001145b612a935760405162461bcd60e51b815260206004820152602e60248201527f496e697469616c697a61626c653a20636f6e747261637420697320616c72656160448201526d191e481a5b9a5d1a585b1a5e995960921b6064820152608401610c5d565b600c805460ff191660011790558015612ab657600c805461ff0019166101001790555b612abe613d9f565b60005b82811015612bcf57612bbc600080868685818110612ae157612ae1614dbe565b9050610100020160000135878786818110612afe57612afe614dbe565b9050610100020160200135888887818110612b1b57612b1b614dbe565b9050610100020160400135898988818110612b3857612b38614dbe565b90506101000201606001358a8a89818110612b5557612b55614dbe565b90506101000201608001358b8b8a818110612b7257612b72614dbe565b9050610100020160a001358c8c8b818110612b8f57612b8f614dbe565b9050610100020160c001358d8d8c818110612bac57612bac614dbe565b9050610100020160e001356136cf565b5080612bc781614dd4565b915050612ac1565b5080156115ec57600c805461ff0019169055604051600181527f7f26b83ff96e1f2b6a682f133852f6798a09c465da95921460cefb38474024989060200160405180910390a1505050565b600a8181548110610f0f57600080fd5b6060612c6a8260000151836020015184604001518560600151604051602001612c569493929190614ded565b604051602081830303815290604052613bf0565b6040516020016111409190614ec2565b600f546001600160a01b03163314612c9157600080fd5b6000828152600d6020908152604080832093835280832060059485018352818420805460ff199081169091559584529390930190522080549091169055565b612d1860405180610100016040528060008152602001600081526020016000815260200160008152602001600081526020016000815260200160008152602001600081525090565b506000908152600d602081815260409283902083516101008101855260078201548152600882015492810192909252600981015493820193909352600a8301546060820152600b8301546080820152600c83015460a08201529082015460c0820152600e9091015460e082015290565b600180546110a4906149e3565b60408051808201909152818152336020820152600a80546001810182556000918252825191929182916002027fc65a7bb8d6351c1cf70c95a316cc6a92839c986682d98bc35f958f4883f9d2a801908190612df09082614a63565b5060209190910151600191820180546001600160a01b0319166001600160a01b03909216919091179055600a5460008051602061525a83398151915291612e3691614b38565b60068533604051612e4a9493929190614b83565b60405180910390a1600a5461109090600190614b38565b606060006040518060800160405280878152602001868152602001858152602001848152509050612e9181612c2a565b9150505b949350505050565b6116fb600080fd5b60078181548110610f0f57600080fd5b604080516020810190915260008152612ecd816121a9565b50612ed781611fe2565b50612ee1816117ce565b50612eeb81611702565b50612ef581612f13565b50612eff8161274b565b50612f0981612d95565b5061115681610fc4565b60408051808201909152818152336020820152600880546001810182556000918252825191929182916002027ff3f7a9fe364faab93b216da50a3214154f22a0a2b415b23a84c8169e8b636ee301908190612f6e9082614a63565b5060209190910151600191820180546001600160a01b0319166001600160a01b0390921691909117905560085460008051602061525a83398151915291612fb491614b38565b60048533604051612fc89493929190614b83565b60405180910390a160085461109090600190614b38565b6000818152600d6020526040902060040154606090610100900460ff166130405760405162461bcd60e51b8152602060048201526015602482015274105b5a5b985b08191bd95cc81b9bdd08195e1a5cdd605a1b6044820152606401610c5d565b610ef9826120ae565b600b8181548110610f0f57600080fd5b60098181548110610f0f57600080fd5b6060600083600781111561307f5761307f614b4b565b600781111561309057613090614b4b565b036131585760045482101561315357600482815481106130b2576130b2614dbe565b906000526020600020906002020160000180546130ce906149e3565b80601f01602080910402602001604051908101604052809291908181526020018280546130fa906149e3565b80156131475780601f1061311c57610100808354040283529160200191613147565b820191906000526020600020905b81548152906001019060200180831161312a57829003601f168201915b50505050509050610ef9565b613349565b600183600781111561316c5761316c614b4b565b600781111561317d5761317d614b4b565b0361319f5760055482101561315357600582815481106130b2576130b2614dbe565b60028360078111156131b3576131b3614b4b565b60078111156131c4576131c4614b4b565b036131e65760065482101561315357600682815481106130b2576130b2614dbe565b60038360078111156131fa576131fa614b4b565b600781111561320b5761320b614b4b565b0361322d5760075482101561315357600782815481106130b2576130b2614dbe565b600483600781111561324157613241614b4b565b600781111561325257613252614b4b565b036132745760085482101561315357600882815481106130b2576130b2614dbe565b600583600781111561328857613288614b4b565b600781111561329957613299614b4b565b036132bb5760095482101561315357600982815481106130b2576130b2614dbe565b60068360078111156132cf576132cf614b4b565b60078111156132e0576132e0614b4b565b0361330257600a5482101561315357600a82815481106130b2576130b2614dbe565b600783600781111561331657613316614b4b565b600781111561332757613327614b4b565b036133495760045482101561334957600b82815481106130b2576130b2614dbe565b5060408051602081019091526000815292915050565b6000828152600d602090815260408083206001600160a01b0385168452600681019092528220546002820154839190826133998284614f1d565b9050806000036133ac57606493506133ba565b6133b7816064614f1d565b93505b6133c5600a85614f31565b93506001846001600160801b031610156133e757836133e381614f57565b9450505b6133f88466038d7ea4c68000614f7d565b98975050505050505050565b61340c613d9f565b6001600160a01b0381166134715760405162461bcd60e51b815260206004820152602660248201527f4f776e61626c653a206e6577206f776e657220697320746865207a65726f206160448201526564647265737360d01b6064820152608401610c5d565b61347a81613e00565b50565b6001600160a01b038216600081815260106020908152604091829020805460ff19169055905191825282917fbe2bd31c399129ecab647fa300f6bb9bd0c0ce022d0566669ac84ef66dcce07591015b60405180910390a25050565b600066038d7ea4c6800034101561350257604051638a0d377960e01b815260040160405180910390fd5b6000828152600d602052604090206004810154610100900460ff1661353a57604051631aae8e3b60e11b815260040160405180910390fd5b611090833334613e5c565b60608160000361356c5750506040805180820190915260018152600360fc1b602082015290565b8160005b8115613596578061358081614dd4565b915061358f9050600a83614f1d565b9150613570565b6000816001600160401b038111156135b0576135b06141ef565b6040519080825280601f01601f1916602001820160405280156135da576020820181803683370190505b5090505b8415612e95576135ef600183614b38565b91506135fc600a86614fa0565b613607906030614fb4565b60f81b81838151811061361c5761361c614dbe565b60200101906001600160f81b031916908160001a90535061363e600a86614f1d565b94506135de565b61347a8160405160240161365b91815260200190565b60408051601f198184030181529190526020810180516001600160e01b031663f5b1bba960e01b179052613f4b565b61115682826040516024016136a0929190614fc7565b60408051601f198184030181529190526020810180516001600160e01b03166309710a9d60e41b179052613f4b565b600080600e600081546136e190614dd4565b91829055506000818152600d602081905260409091208e8155600181018e9055600781018d9055600881018c9055600981018b9055600a81018a9055600b8101899055600c8101889055908101869055600e810185905560048101805461ff0019166101001790559091506137563083613f6c565b604080518c8152602081018c90529081018a9052606081018990526080810188905260a0810187905260c0810186905260e081018590528c908e9084907ff6ad1d036d100bdfde8b99e86d9d76f2a89b6cb7f727ae41a085056a14ead826906101000160405180910390a4509b9a5050505050505050505050565b611fdc848484846040516024016137eb9493929190614fe9565b60408051601f198184030181529190526020810180516001600160e01b03166317c574a360e21b179052613f4b565b6000848152600d602052604090208161387d576001600160a01b038316600090815260068201602052604081208054869290613857908490614b38565b92505081905550838160020160008282546138729190614b38565b909155506116fb9050565b6001600160a01b0383166000908152600682016020526040812080548692906138a7908490614fb4565b92505081905550838160020160008282546138c29190614fb4565b90915550505050505050565b6001600160a01b038216600081815260106020908152604091829020805460ff19166001179055905191825282917f79b537a238059d6b8a1edfc16f0459ec82f720b03853f399c8550b07a33563a691016134cc565b6060600061393183612cd0565b90506040518060a00160405280606481526020016152ba60649139915081600482600001518154811061396657613966614dbe565b9060005260206000209060020201600001604051602001613988929190615031565b6040516020818303038152906040529150816040516020016139aa91906150be565b60405160208183030381529060405291508160068260400151815481106139d3576139d3614dbe565b90600052602060002090600202016000016040516020016139f5929190615031565b6040516020818303038152906040529150816005826020015181548110613a1e57613a1e614dbe565b9060005260206000209060020201600001604051602001613a40929190615031565b6040516020818303038152906040529150816007826060015181548110613a6957613a69614dbe565b9060005260206000209060020201600001604051602001613a8b929190615031565b6040516020818303038152906040529150816008826080015181548110613ab457613ab4614dbe565b9060005260206000209060020201600001604051602001613ad6929190615031565b60405160208183030381529060405291508160098260a0015181548110613aff57613aff614dbe565b9060005260206000209060020201600001604051602001613b21929190615031565b604051602081830303815290604052915081600a8260c0015181548110613b4a57613b4a614dbe565b9060005260206000209060020201600001604051602001613b6c929190615031565b604051602081830303815290604052915081600b8260e0015181548110613b9557613b95614dbe565b9060005260206000209060020201600001604051602001613bb7929190615031565b604051602081830303815290604052915081604051602001613bd9919061514b565b604051602081830303815290604052915050919050565b60608151600003613c0f57505060408051602081019091526000815290565b600060405180606001604052806040815260200161527a6040913990506000600384516002613c3e9190614fb4565b613c489190614f1d565b613c53906004615175565b90506000613c62826020614fb4565b6001600160401b03811115613c7957613c796141ef565b6040519080825280601f01601f191660200182016040528015613ca3576020820181803683370190505b509050818152600183018586518101602084015b81831015613d115760039283018051603f601282901c811687015160f890811b8552600c83901c8216880151811b6001860152600683901c8216880151811b60028601529116860151901b93820193909352600401613cb7565b600389510660018114613d2b5760028114613d3c57613d48565b613d3d60f01b600119830152613d48565b603d60f81b6000198301525b509398975050505050505050565b611fdc84848484604051602401613d70949392919061518c565b60408051601f198184030181529190526020810180516001600160e01b031663a0c4b22560e01b179052613f4b565b600c546001600160a01b03620100009091041633146127395760405162461bcd60e51b815260206004820181905260248201527f4f776e61626c653a2063616c6c6572206973206e6f7420746865206f776e65726044820152606401610c5d565b600c80546001600160a01b038381166201000081810262010000600160b01b031985161790945560405193909204169182907f8be0079c531659141344cd1fd0a4f28419497f9722a3daafe3b4186f6b6457e090600090a35050565b6000838152600d60205260408120613e77858486600161381a565b60008160030154670de0b6b3a7640000613e919190614b38565b90506000670de0b6b3a7640000613ea88387615175565b613eb29190614f1d565b905080836003016000828254613ec89190614fb4565b90915550506001600160a01b0386166000818152600685016020908152604091829020546002870154600388015484519586529285018a9052928401526060830191909152608082015287907fa4e1f22d32d3fdbb43656f23f2ce5f522de1926b94120b906bc8a1ca29f522899060a00160405180910390a29695505050505050565b80516a636f6e736f6c652e6c6f67602083016000808483855afa5050505050565b6001600160a01b038216613fb65760405162461bcd60e51b81526020600482015260116024820152701253959053125117d49150d25412515395607a1b6044820152606401610c5d565b6000818152600260205260409020546001600160a01b03161561400c5760405162461bcd60e51b815260206004820152600e60248201526d1053149150511657d3525395115160921b6044820152606401610c5d565b6001600160a01b038216600081815260036020908152604080832080546001019055848352600290915280822080546001600160a01b0319168417905551839291907fddf252ad1be2c89b69c2b068fc378daa952ba7f163c4a11628f55a4df523b3ef908290a45050565b60008083601f84011261408957600080fd5b5081356001600160401b038111156140a057600080fd5b6020830191508360208285010111156140b857600080fd5b9250929050565b6001600160a01b038116811461347a57600080fd5b600080600080606085870312156140ea57600080fd5b8435935060208501356001600160401b0381111561410757600080fd5b61411387828801614077565b9094509250506040850135614127816140bf565b939692955090935050565b60006020828403121561414457600080fd5b81356001600160e01b03198116811461109057600080fd5b60006020828403121561416e57600080fd5b5035919050565b60005b83811015614190578181015183820152602001614178565b50506000910152565b600081518084526141b1816020860160208601614175565b601f01601f19169290920160200192915050565b6040815260006141d86040830185614199565b905060018060a01b03831660208301529392505050565b634e487b7160e01b600052604160045260246000fd5b604051608081016001600160401b0381118282101715614227576142276141ef565b60405290565b604051601f8201601f191681016001600160401b0381118282101715614255576142556141ef565b604052919050565b60006001600160401b03821115614276576142766141ef565b50601f01601f191660200190565b600082601f83011261429557600080fd5b81356142a86142a38261425d565b61422d565b8181528460208386010111156142bd57600080fd5b816020850160208301376000918101602001919091529392505050565b6000602082840312156142ec57600080fd5b81356001600160401b0381111561430257600080fd5b612e9584828501614284565b6020815260006110906020830184614199565b6000806040838503121561433457600080fd5b823561433f816140bf565b946020939093013593505050565b60008060008060006080868803121561436557600080fd5b8535614370816140bf565b9450602086013593506040860135614387816140bf565b925060608601356001600160401b038111156143a257600080fd5b6143ae88828901614077565b969995985093965092949392505050565b6000806000806000806000806000806101408b8d0312156143df57600080fd5b505088359a60208a01359a5060408a013599606081013599506080810135985060a0810135975060c0810135965060e081013595506101008101359450610120013592509050565b805182526020810151602083015260408101516040830152606081015160608301526080810151608083015260a081015160a083015260c081015160c083015260e081015160e08301525050565b60006101c082019050888252876020830152866040830152856060830152841515608083015283151560a08301526133f860c0830184614427565b6000806000606084860312156144c557600080fd5b83356144d0816140bf565b925060208401356144e0816140bf565b929592945050506040919091013590565b6000806000806060858703121561450757600080fd5b843593506020850135614519816140bf565b925060408501356001600160401b0381111561453457600080fd5b61454087828801614077565b95989497509550505050565b6000806040838503121561455f57600080fd5b50508035926020909101359150565b801515811461347a57600080fd5b60008060006060848603121561459157600080fd5b833592506020840135915060408401356145aa8161456e565b809150509250925092565b600080604083850312156145c857600080fd5b8235915060208301356145da816140bf565b809150509250929050565b6000602082840312156145f757600080fd5b8135611090816140bf565b6000806040838503121561461557600080fd5b8235915060208301356145da8161456e565b6000806020838503121561463a57600080fd5b82356001600160401b038082111561465157600080fd5b818501915085601f83011261466557600080fd5b81358181111561467457600080fd5b8660208260081b850101111561468957600080fd5b60209290920196919550909350505050565b6000602082840312156146ad57600080fd5b81356001600160401b03808211156146c457600080fd5b90830190608082860312156146d857600080fd5b6146e0614205565b8235828111156146ef57600080fd5b6146fb87828601614284565b82525060208301358281111561471057600080fd5b61471c87828601614284565b60208301525060408301358281111561473457600080fd5b61474087828601614284565b60408301525060608301358281111561475857600080fd5b61476487828601614284565b60608301525095945050505050565b6101008101610ef98284614427565b6000806040838503121561479557600080fd5b82356147a0816140bf565b915060208301356145da8161456e565b600080600080608085870312156147c657600080fd5b84356001600160401b03808211156147dd57600080fd5b6147e988838901614284565b955060208701359150808211156147ff57600080fd5b61480b88838901614284565b9450604087013591508082111561482157600080fd5b61482d88838901614284565b9350606087013591508082111561484357600080fd5b5061485087828801614284565b91505092959194509250565b60008060008060006080868803121561487457600080fd5b853561487f816140bf565b9450602086013561488f816140bf565b93506040860135925060608601356001600160401b038111156143a257600080fd5b60208082526028908201527f4e6f7420656e6f75676820657468657220746f2070726f706f73652061206e656040820152671dc8159a5cdd585b60c21b606082015260800190565b81835281816020850137506000828201602090810191909152601f909101601f19169091010190565b84815260606020820152600061493c6060830185876148f9565b905060018060a01b038316604083015295945050505050565b60006020828403121561496757600080fd5b5051919050565b9687526001600160a01b0395909516602087015260408601939093529015156060850152608084015260a083015260c082015260e00190565b8581526080602082015260006149c16080830186886148f9565b6001600160a01b03948516604084015292909316606090910152949350505050565b600181811c908216806149f757607f821691505b602082108103614a1757634e487b7160e01b600052602260045260246000fd5b50919050565b601f8211156115ec57600081815260208120601f850160051c81016020861015614a445750805b601f850160051c820191505b818110156115a957828155600101614a50565b81516001600160401b03811115614a7c57614a7c6141ef565b614a9081614a8a84546149e3565b84614a1d565b602080601f831160018114614ac55760008415614aad5750858301515b600019600386901b1c1916600185901b1785556115a9565b600085815260208120601f198616915b82811015614af457888601518255948401946001909101908401614ad5565b5085821015614b125787850151600019600388901b60f8161c191681555b5050505050600190811b01905550565b634e487b7160e01b600052601160045260246000fd5b81810381811115610ef957610ef9614b22565b634e487b7160e01b600052602160045260246000fd5b60088110614b7f57634e487b7160e01b600052602160045260246000fd5b9052565b848152614b936020820185614b61565b608060408201526000614ba96080830185614199565b905060018060a01b038316606083015295945050505050565b7f7b2274726169745f74797065223a22416d696e616c204944222c2276616c7565815261111d60f11b602082015260008251614c05816022850160208701614175565b607d60f81b6022939091019283015250602301919050565b60018060a01b038516815283602082015260606040820152600061219f6060830184866148f9565b600060208284031215614c5757600080fd5b81516002811061109057600080fd5b600060208284031215614c7857600080fd5b81516110908161456e565b600060208284031215614c9557600080fd5b81516001600160401b03811115614cab57600080fd5b8201601f81018413614cbc57600080fd5b8051614cca6142a38261425d565b818152856020838501011115614cdf57600080fd5b614cf0826020830160208601614175565b95945050505050565b600060208284031215614d0b57600080fd5b8151611090816140bf565b67416d696e616c202360c01b815260008251614d39816008850160208701614175565b9190910160080192915050565b7f646174613a696d6167652f7376672b786d6c3b6261736536342c000000000000815260008251614d7e81601a850160208701614175565b91909101601a0192915050565b6001600160a01b0384168152606060208201819052600090614daf90830185614199565b9050612e956040830184614b61565b634e487b7160e01b600052603260045260246000fd5b600060018201614de657614de6614b22565b5060010190565b683d913730b6b2911d1160b91b81528451600090614e12816009850160208a01614175565b71111610113232b9b1b934b83a34b7b7111d1160711b6009918401918201528551614e4481601b840160208a01614175565b6c1116101134b6b0b3b2911d101160991b601b92909101918201528451614e72816028840160208901614175565b71222c202261747472696275746573223a205b60701b602892909101918201528351614ea581603a840160208801614175565b615d7d60f01b603a9290910191820152603c019695505050505050565b7f646174613a6170706c69636174696f6e2f6a736f6e3b6261736536342c000000815260008251614efa81601d850160208701614175565b91909101601d0192915050565b634e487b7160e01b600052601260045260246000fd5b600082614f2c57614f2c614f07565b500490565b60006001600160801b0380841680614f4b57614f4b614f07565b92169190910492915050565b60006001600160801b03808316818103614f7357614f73614b22565b6001019392505050565b6001600160801b0381811683821602808216919082811461268257612682614b22565b600082614faf57614faf614f07565b500690565b80820180821115610ef957610ef9614b22565b604081526000614fda6040830185614199565b90508260208301529392505050565b608081526000614ffc6080830187614199565b6001600160a01b0386166020840152828103604084015261501d8186614199565b915050821515606083015295945050505050565b6000835160206150448285838901614175565b818401915060008554615056816149e3565b6001828116801561506e5760018114615083576150af565b60ff19841687528215158302870194506150af565b896000528560002060005b848110156150a75781548982015290830190870161508e565b505082870194505b50929998505050505050505050565b600082516150d0818460208701614175565b7f3c672069643d22736861646f77223e3c656c6c697073652066696c6c3d2223339201918252507f633364353522206f7061636974793d22302e3522202063783d2235303522206360208201527f793d22393731222072783d22313633222072793d223132222f3e3c2f673e00006040820152605e01919050565b6000825161515d818460208701614175565b651e17b9bb339f60d11b920191825250600601919050565b8082028115828204841417610ef957610ef9614b22565b60808152600061519f6080830187614199565b85602084015282810360408401526151b78186614199565b9150508260608301529594505050505056fe43616c6c20536b696c6c20707562696c632066756e6374696f6e202841424f555420544f2053515545454b2920666f722063616c6c696e6720557365536b696c6c2065787465726e616c6c792077697468206d73672e76616c7565203d3d2043616c6c20536b696c6c20496e7465726e616c202861626f757420746f2073717565616b2920616d6f756e74203d3d3d20aeef0a08793fdca47ced4c60fac172e47e54b213e10013da1977e8c2652cb4624142434445464748494a4b4c4d4e4f505152535455565758595a6162636465666768696a6b6c6d6e6f707172737475767778797a303132333435363738392b2f3c73766720786d6c6e733d22687474703a2f2f7777772e77332e6f72672f323030302f73766722207072657365727665417370656374526174696f3d22784d696e594d696e206d656574222076696577426f783d2230203020313030302031303030223ea26469706673582212207e32d5517952beab4fead361c13036c4791dd0b52e19fcb40986c77b71fa6a4c64736f6c63430008140033","linkReferences":{}},"methodIdentifiers":{"_vote(uint256,uint256,bool)":"4ba7d0d5","addArm(string)":"576b87a7","addBackground(string)":"5e70664c","addBody(string)":"c78e87d5","addEar(string)":"2f2f967b","addFace(string)":"73a645a1","addMisc(string)":"055010ba","addMouth(string)":"99b29914","addTail(string)":"42320aa1","aminals(uint256)":"1c557073","approve(address,uint256)":"095ea7b3","arms(uint256)":"16ce9c6d","backgrounds(uint256)":"04bde4dd","balanceOf(address)":"70a08231","bodies(uint256)":"44cee73c","breedWith(uint256,uint256)":"7004fb84","callSkill(uint256,address,bytes)":"248aeab1","callSkillInternal(address,uint256,address,bytes)":"1994f00b","constructTokenURI((string,string,string,string))":"92b4c81b","dataURI(uint256)":"5ac1e3bb","disableBreedable(uint256,uint256)":"932b4c5f","ears(uint256)":"b8e19635","faces(uint256)":"da7de207","feed(uint256)":"f59dfdfb","generateAttributesList(uint256)":"07c3c948","genericDataURI(string,string,string,string)":"b7d168e6","genesNFT()":"0847335c","getAminalLoveByIdByUser(uint256,address)":"4c82f4b4","getAminalLoveTotal(uint256)":"79f372f6","getAminalVisualsByID(uint256)":"938a3458","getEnergy(uint256)":"7e0358a6","getVisuals(uint256,uint256)":"e11873b4","lastAminalId()":"4d37b693","loveDrivenPrice(uint256,address)":"ed19c6ce","miscs(uint256)":"d829b56e","mouths(uint256)":"90f1d5dc","name()":"06fdde03","owner()":"8da5cb5b","ownerOf(uint256)":"6352211e","proposals()":"55ef20e6","proposeAddSkill(uint256,string,address)":"01ce4776","proposeRemoveSkill(uint256,string,address)":"1540d37a","removeSkill(address,uint256)":"f3a7a540","renounceOwnership()":"715018a6","safeTransferFrom(address,address,uint256)":"42842e0e","safeTransferFrom(address,address,uint256,bytes)":"b88d4fde","setApprovalForAll(address,bool)":"a22cb465","setBreeding(uint256,bool)":"711379f8","setup()":"ba0bba40","skills(address)":"4f0f3c09","spawnAminal(uint256,uint256,uint256,uint256,uint256,uint256,uint256,uint256,uint256,uint256)":"19a571c9","spawnInitialAminals((uint256,uint256,uint256,uint256,uint256,uint256,uint256,uint256)[])":"8d549a25","squeak(uint256,uint256)":"49e25e00","supportsInterface(bytes4)":"01ffc9a7","symbol()":"95d89b41","tails(uint256)":"71cde580","tokenURI(uint256)":"c87b56dd","transferFrom(address,address,uint256)":"23b872dd","transferOwnership(address)":"f2fde38b","visualsAuction()":"e38294df","voteSkill(uint256,uint256,bool)":"7905c044"},"id":32}