{
  "abi": [
    {
      "inputs": [
        {
          "internalType": "address",
          "name": "_visualsAuction",
          "type": "address"
        },
        {
          "internalType": "address",
          "name": "_aminalProposals",
          "type": "address"
        }
      ],
      "stateMutability": "nonpayable",
      "type": "constructor"
    },
    {
      "inputs": [],
      "name": "AminalDoesNotExist",
      "type": "error"
    },
    {
      "inputs": [],
      "name": "NotEnoughEther",
      "type": "error"
    },
    {
      "inputs": [],
      "name": "NotSpawnable",
      "type": "error"
    },
    {
      "anonymous": false,
      "inputs": [
        {
          "indexed": true,
          "internalType": "uint256",
          "name": "aminalId",
          "type": "uint256"
        },
        {
          "indexed": false,
          "internalType": "uint256",
          "name": "proposalId",
          "type": "uint256"
        },
        {
          "indexed": false,
          "internalType": "string",
          "name": "skillName",
          "type": "string"
        },
        {
          "indexed": false,
          "internalType": "address",
          "name": "skillAddress",
          "type": "address"
        },
        {
          "indexed": false,
          "internalType": "address",
          "name": "sender",
          "type": "address"
        }
      ],
      "name": "AddSkillProposal",
      "type": "event"
    },
    {
      "anonymous": false,
      "inputs": [
        {
          "indexed": true,
          "internalType": "uint256",
          "name": "aminalOne",
          "type": "uint256"
        },
        {
          "indexed": true,
          "internalType": "uint256",
          "name": "aminalTwo",
          "type": "uint256"
        },
        {
          "indexed": false,
          "internalType": "uint256",
          "name": "auctionId",
          "type": "uint256"
        }
      ],
      "name": "BreedAminal",
      "type": "event"
    },
    {
      "anonymous": false,
      "inputs": [
        {
          "indexed": true,
          "internalType": "uint256",
          "name": "aminalId",
          "type": "uint256"
        },
        {
          "indexed": false,
          "internalType": "address",
          "name": "sender",
          "type": "address"
        },
        {
          "indexed": false,
          "internalType": "uint256",
          "name": "amount",
          "type": "uint256"
        },
        {
          "indexed": false,
          "internalType": "uint256",
          "name": "love",
          "type": "uint256"
        },
        {
          "indexed": false,
          "internalType": "uint256",
          "name": "totalLove",
          "type": "uint256"
        },
        {
          "indexed": false,
          "internalType": "uint256",
          "name": "energy",
          "type": "uint256"
        }
      ],
      "name": "FeedAminal",
      "type": "event"
    },
    {
      "anonymous": false,
      "inputs": [
        {
          "indexed": false,
          "internalType": "uint8",
          "name": "version",
          "type": "uint8"
        }
      ],
      "name": "Initialized",
      "type": "event"
    },
    {
      "anonymous": false,
      "inputs": [
        {
          "indexed": true,
          "internalType": "address",
          "name": "previousOwner",
          "type": "address"
        },
        {
          "indexed": true,
          "internalType": "address",
          "name": "newOwner",
          "type": "address"
        }
      ],
      "name": "OwnershipTransferred",
      "type": "event"
    },
    {
      "anonymous": false,
      "inputs": [
        {
          "indexed": true,
          "internalType": "uint256",
          "name": "aminalId",
          "type": "uint256"
        },
        {
          "indexed": false,
          "internalType": "uint256",
          "name": "proposalId",
          "type": "uint256"
        },
        {
          "indexed": false,
          "internalType": "address",
          "name": "skillAddress",
          "type": "address"
        },
        {
          "indexed": false,
          "internalType": "address",
          "name": "sender",
          "type": "address"
        }
      ],
      "name": "RemoveSkillProposal",
      "type": "event"
    },
    {
      "anonymous": false,
      "inputs": [
        {
          "indexed": true,
          "internalType": "uint256",
          "name": "aminalId",
          "type": "uint256"
        },
        {
          "indexed": false,
          "internalType": "address",
          "name": "skillAddress",
          "type": "address"
        }
      ],
      "name": "SkillAdded",
      "type": "event"
    },
    {
      "anonymous": false,
      "inputs": [
        {
          "indexed": true,
          "internalType": "uint256",
          "name": "aminalId",
          "type": "uint256"
        },
        {
          "indexed": false,
          "internalType": "address",
          "name": "skillAddress",
          "type": "address"
        }
      ],
      "name": "SkillRemoved",
      "type": "event"
    },
    {
      "anonymous": false,
      "inputs": [
        {
          "indexed": true,
          "internalType": "uint256",
          "name": "aminalId",
          "type": "uint256"
        },
        {
          "indexed": false,
          "internalType": "address",
          "name": "sender",
          "type": "address"
        },
        {
          "indexed": false,
          "internalType": "uint256",
          "name": "proposalId",
          "type": "uint256"
        },
        {
          "indexed": false,
          "internalType": "bool",
          "name": "yesNo",
          "type": "bool"
        }
      ],
      "name": "SkillVote",
      "type": "event"
    },
    {
      "anonymous": false,
      "inputs": [
        {
          "indexed": true,
          "internalType": "uint256",
          "name": "aminalId",
          "type": "uint256"
        },
        {
          "indexed": true,
          "internalType": "uint256",
          "name": "mom",
          "type": "uint256"
        },
        {
          "indexed": true,
          "internalType": "uint256",
          "name": "dad",
          "type": "uint256"
        },
        {
          "indexed": false,
          "internalType": "uint256",
          "name": "backId",
          "type": "uint256"
        },
        {
          "indexed": false,
          "internalType": "uint256",
          "name": "armId",
          "type": "uint256"
        },
        {
          "indexed": false,
          "internalType": "uint256",
          "name": "tailId",
          "type": "uint256"
        },
        {
          "indexed": false,
          "internalType": "uint256",
          "name": "earsId",
          "type": "uint256"
        },
        {
          "indexed": false,
          "internalType": "uint256",
          "name": "bodyId",
          "type": "uint256"
        },
        {
          "indexed": false,
          "internalType": "uint256",
          "name": "faceId",
          "type": "uint256"
        },
        {
          "indexed": false,
          "internalType": "uint256",
          "name": "mouthId",
          "type": "uint256"
        },
        {
          "indexed": false,
          "internalType": "uint256",
          "name": "miscId",
          "type": "uint256"
        }
      ],
      "name": "SpawnAminal",
      "type": "event"
    },
    {
      "anonymous": false,
      "inputs": [
        {
          "indexed": true,
          "internalType": "uint256",
          "name": "aminalId",
          "type": "uint256"
        },
        {
          "indexed": false,
          "internalType": "uint256",
          "name": "amount",
          "type": "uint256"
        },
        {
          "indexed": false,
          "internalType": "uint256",
          "name": "energy",
          "type": "uint256"
        }
      ],
      "name": "Squeak",
      "type": "event"
    },
    {
      "anonymous": false,
      "inputs": [
        {
          "indexed": true,
          "internalType": "address",
          "name": "from",
          "type": "address"
        },
        {
          "indexed": true,
          "internalType": "address",
          "name": "to",
          "type": "address"
        },
        {
          "indexed": true,
          "internalType": "uint256",
          "name": "id",
          "type": "uint256"
        }
      ],
      "name": "Transfer",
      "type": "event"
    },
    {
      "inputs": [
        {
          "internalType": "uint256",
          "name": "aminalID",
          "type": "uint256"
        },
        {
          "internalType": "uint256",
          "name": "proposalId",
          "type": "uint256"
        },
        {
          "internalType": "bool",
          "name": "yesNo",
          "type": "bool"
        }
      ],
      "name": "_vote",
      "outputs": [],
      "stateMutability": "nonpayable",
      "type": "function"
    },
    {
      "inputs": [
        {
          "internalType": "string",
          "name": "arm",
          "type": "string"
        }
      ],
      "name": "addArm",
      "outputs": [
        {
          "internalType": "uint256",
          "name": "id",
          "type": "uint256"
        }
      ],
      "stateMutability": "nonpayable",
      "type": "function"
    },
    {
      "inputs": [
        {
          "internalType": "string",
          "name": "background",
          "type": "string"
        }
      ],
      "name": "addBackground",
      "outputs": [
        {
          "internalType": "uint256",
          "name": "id",
          "type": "uint256"
        }
      ],
      "stateMutability": "nonpayable",
      "type": "function"
    },
    {
      "inputs": [
        {
          "internalType": "string",
          "name": "body",
          "type": "string"
        }
      ],
      "name": "addBody",
      "outputs": [
        {
          "internalType": "uint256",
          "name": "id",
          "type": "uint256"
        }
      ],
      "stateMutability": "nonpayable",
      "type": "function"
    },
    {
      "inputs": [
        {
          "internalType": "string",
          "name": "ear",
          "type": "string"
        }
      ],
      "name": "addEar",
      "outputs": [
        {
          "internalType": "uint256",
          "name": "id",
          "type": "uint256"
        }
      ],
      "stateMutability": "nonpayable",
      "type": "function"
    },
    {
      "inputs": [
        {
          "internalType": "string",
          "name": "face",
          "type": "string"
        }
      ],
      "name": "addFace",
      "outputs": [
        {
          "internalType": "uint256",
          "name": "id",
          "type": "uint256"
        }
      ],
      "stateMutability": "nonpayable",
      "type": "function"
    },
    {
      "inputs": [
        {
          "internalType": "string",
          "name": "misc",
          "type": "string"
        }
      ],
      "name": "addMisc",
      "outputs": [
        {
          "internalType": "uint256",
          "name": "id",
          "type": "uint256"
        }
      ],
      "stateMutability": "nonpayable",
      "type": "function"
    },
    {
      "inputs": [
        {
          "internalType": "string",
          "name": "mouth",
          "type": "string"
        }
      ],
      "name": "addMouth",
      "outputs": [
        {
          "internalType": "uint256",
          "name": "id",
          "type": "uint256"
        }
      ],
      "stateMutability": "nonpayable",
      "type": "function"
    },
    {
      "inputs": [
        {
          "internalType": "string",
          "name": "tail",
          "type": "string"
        }
      ],
      "name": "addTail",
      "outputs": [
        {
          "internalType": "uint256",
          "name": "id",
          "type": "uint256"
        }
      ],
      "stateMutability": "nonpayable",
      "type": "function"
    },
    {
      "inputs": [
        {
          "internalType": "uint256",
          "name": "aminalId",
          "type": "uint256"
        }
      ],
      "name": "aminals",
      "outputs": [
        {
          "internalType": "uint256",
          "name": "momId",
          "type": "uint256"
        },
        {
          "internalType": "uint256",
          "name": "dadId",
          "type": "uint256"
        },
        {
          "internalType": "uint256",
          "name": "totalLove",
          "type": "uint256"
        },
        {
          "internalType": "uint256",
          "name": "energy",
          "type": "uint256"
        },
        {
          "internalType": "bool",
          "name": "breeding",
          "type": "bool"
        },
        {
          "internalType": "bool",
          "name": "exists",
          "type": "bool"
        },
        {
          "components": [
            {
              "internalType": "uint256",
              "name": "backId",
              "type": "uint256"
            },
            {
              "internalType": "uint256",
              "name": "armId",
              "type": "uint256"
            },
            {
              "internalType": "uint256",
              "name": "tailId",
              "type": "uint256"
            },
            {
              "internalType": "uint256",
              "name": "earsId",
              "type": "uint256"
            },
            {
              "internalType": "uint256",
              "name": "bodyId",
              "type": "uint256"
            },
            {
              "internalType": "uint256",
              "name": "faceId",
              "type": "uint256"
            },
            {
              "internalType": "uint256",
              "name": "mouthId",
              "type": "uint256"
            },
            {
              "internalType": "uint256",
              "name": "miscId",
              "type": "uint256"
            }
          ],
          "internalType": "struct IAminalStructs.Visuals",
          "name": "visuals",
          "type": "tuple"
        }
      ],
      "stateMutability": "view",
      "type": "function"
    },
    {
      "inputs": [
        {
          "internalType": "address",
          "name": "spender",
          "type": "address"
        },
        {
          "internalType": "uint256",
          "name": "id",
          "type": "uint256"
        }
      ],
      "name": "approve",
      "outputs": [],
      "stateMutability": "nonpayable",
      "type": "function"
    },
    {
      "inputs": [
        {
          "internalType": "uint256",
          "name": "",
          "type": "uint256"
        }
      ],
      "name": "arms",
      "outputs": [
        {
          "internalType": "string",
          "name": "",
          "type": "string"
        }
      ],
      "stateMutability": "view",
      "type": "function"
    },
    {
      "inputs": [
        {
          "internalType": "uint256",
          "name": "",
          "type": "uint256"
        }
      ],
      "name": "backgrounds",
      "outputs": [
        {
          "internalType": "string",
          "name": "",
          "type": "string"
        }
      ],
      "stateMutability": "view",
      "type": "function"
    },
    {
      "inputs": [
        {
          "internalType": "address",
          "name": "owner",
          "type": "address"
        }
      ],
      "name": "balanceOf",
      "outputs": [
        {
          "internalType": "uint256",
          "name": "",
          "type": "uint256"
        }
      ],
      "stateMutability": "view",
      "type": "function"
    },
    {
      "inputs": [
        {
          "internalType": "uint256",
          "name": "",
          "type": "uint256"
        }
      ],
      "name": "bodies",
      "outputs": [
        {
          "internalType": "string",
          "name": "",
          "type": "string"
        }
      ],
      "stateMutability": "view",
      "type": "function"
    },
    {
      "inputs": [
        {
          "internalType": "uint256",
          "name": "aminalIdOne",
          "type": "uint256"
        },
        {
          "internalType": "uint256",
          "name": "aminalIdTwo",
          "type": "uint256"
        }
      ],
      "name": "breedWith",
      "outputs": [
        {
          "internalType": "uint256",
          "name": "ret",
          "type": "uint256"
        }
      ],
      "stateMutability": "payable",
      "type": "function"
    },
    {
      "inputs": [
        {
          "internalType": "uint256",
          "name": "aminalId",
          "type": "uint256"
        },
        {
          "internalType": "address",
          "name": "skillAddress",
          "type": "address"
        },
        {
          "internalType": "bytes",
          "name": "data",
          "type": "bytes"
        }
      ],
      "name": "callSkill",
      "outputs": [],
      "stateMutability": "payable",
      "type": "function"
    },
    {
      "inputs": [
        {
          "internalType": "address",
          "name": "sender",
          "type": "address"
        },
        {
          "internalType": "uint256",
          "name": "aminalId",
          "type": "uint256"
        },
        {
          "internalType": "address",
          "name": "skillAddress",
          "type": "address"
        },
        {
          "internalType": "bytes",
          "name": "data",
          "type": "bytes"
        }
      ],
      "name": "callSkillInternal",
      "outputs": [],
      "stateMutability": "payable",
      "type": "function"
    },
    {
      "inputs": [
        {
          "components": [
            {
              "internalType": "string",
              "name": "name",
              "type": "string"
            },
            {
              "internalType": "string",
              "name": "description",
              "type": "string"
            },
            {
              "internalType": "string",
              "name": "image",
              "type": "string"
            },
            {
              "internalType": "string",
              "name": "attributes",
              "type": "string"
            }
          ],
          "internalType": "struct NFTDescriptor.TokenURIParams",
          "name": "params",
          "type": "tuple"
        }
      ],
      "name": "constructTokenURI",
      "outputs": [
        {
          "internalType": "string",
          "name": "",
          "type": "string"
        }
      ],
      "stateMutability": "pure",
      "type": "function"
    },
    {
      "inputs": [
        {
          "internalType": "uint256",
          "name": "tokenId",
          "type": "uint256"
        }
      ],
      "name": "dataURI",
      "outputs": [
        {
          "internalType": "string",
          "name": "",
          "type": "string"
        }
      ],
      "stateMutability": "view",
      "type": "function"
    },
    {
      "inputs": [
        {
          "internalType": "uint256",
          "name": "aminalIdOne",
          "type": "uint256"
        },
        {
          "internalType": "uint256",
          "name": "aminalIdTwo",
          "type": "uint256"
        }
      ],
      "name": "disableBreedable",
      "outputs": [],
      "stateMutability": "nonpayable",
      "type": "function"
    },
    {
      "inputs": [
        {
          "internalType": "uint256",
          "name": "",
          "type": "uint256"
        }
      ],
      "name": "ears",
      "outputs": [
        {
          "internalType": "string",
          "name": "",
          "type": "string"
        }
      ],
      "stateMutability": "view",
      "type": "function"
    },
    {
      "inputs": [
        {
          "internalType": "uint256",
          "name": "",
          "type": "uint256"
        }
      ],
      "name": "faces",
      "outputs": [
        {
          "internalType": "string",
          "name": "",
          "type": "string"
        }
      ],
      "stateMutability": "view",
      "type": "function"
    },
    {
      "inputs": [
        {
          "internalType": "uint256",
          "name": "aminalId",
          "type": "uint256"
        }
      ],
      "name": "feed",
      "outputs": [
        {
          "internalType": "uint256",
          "name": "",
          "type": "uint256"
        }
      ],
      "stateMutability": "payable",
      "type": "function"
    },
    {
      "inputs": [
        {
          "internalType": "uint256",
          "name": "tokenId",
          "type": "uint256"
        }
      ],
      "name": "generateAttributesList",
      "outputs": [
        {
          "internalType": "string",
          "name": "",
          "type": "string"
        }
      ],
      "stateMutability": "pure",
      "type": "function"
    },
    {
      "inputs": [
        {
          "internalType": "string",
          "name": "_name",
          "type": "string"
        },
        {
          "internalType": "string",
          "name": "_description",
          "type": "string"
        },
        {
          "internalType": "string",
          "name": "_image",
          "type": "string"
        },
        {
          "internalType": "string",
          "name": "_attributes",
          "type": "string"
        }
      ],
      "name": "genericDataURI",
      "outputs": [
        {
          "internalType": "string",
          "name": "",
          "type": "string"
        }
      ],
      "stateMutability": "pure",
      "type": "function"
    },
    {
      "inputs": [
        {
          "internalType": "uint256",
          "name": "aminalID",
          "type": "uint256"
        },
        {
          "internalType": "address",
          "name": "user",
          "type": "address"
        }
      ],
      "name": "getAminalLoveByIdByUser",
      "outputs": [
        {
          "internalType": "uint256",
          "name": "",
          "type": "uint256"
        }
      ],
      "stateMutability": "view",
      "type": "function"
    },
    {
      "inputs": [
        {
          "internalType": "uint256",
          "name": "aminalID",
          "type": "uint256"
        }
      ],
      "name": "getAminalLoveTotal",
      "outputs": [
        {
          "internalType": "uint256",
          "name": "",
          "type": "uint256"
        }
      ],
      "stateMutability": "view",
      "type": "function"
    },
    {
      "inputs": [
        {
          "internalType": "uint256",
          "name": "aminalID",
          "type": "uint256"
        }
      ],
      "name": "getAminalVisualsByID",
      "outputs": [
        {
          "components": [
            {
              "internalType": "uint256",
              "name": "backId",
              "type": "uint256"
            },
            {
              "internalType": "uint256",
              "name": "armId",
              "type": "uint256"
            },
            {
              "internalType": "uint256",
              "name": "tailId",
              "type": "uint256"
            },
            {
              "internalType": "uint256",
              "name": "earsId",
              "type": "uint256"
            },
            {
              "internalType": "uint256",
              "name": "bodyId",
              "type": "uint256"
            },
            {
              "internalType": "uint256",
              "name": "faceId",
              "type": "uint256"
            },
            {
              "internalType": "uint256",
              "name": "mouthId",
              "type": "uint256"
            },
            {
              "internalType": "uint256",
              "name": "miscId",
              "type": "uint256"
            }
          ],
          "internalType": "struct IAminalStructs.Visuals",
          "name": "",
          "type": "tuple"
        }
      ],
      "stateMutability": "view",
      "type": "function"
    },
    {
      "inputs": [
        {
          "internalType": "uint256",
          "name": "aminalID",
          "type": "uint256"
        }
      ],
      "name": "getEnergy",
      "outputs": [
        {
          "internalType": "uint256",
          "name": "",
          "type": "uint256"
        }
      ],
      "stateMutability": "view",
      "type": "function"
    },
    {
      "inputs": [
        {
          "internalType": "uint256",
          "name": "category",
          "type": "uint256"
        },
        {
          "internalType": "uint256",
          "name": "id",
          "type": "uint256"
        }
      ],
      "name": "getVisuals",
      "outputs": [
        {
          "internalType": "string",
          "name": "",
          "type": "string"
        }
      ],
      "stateMutability": "view",
      "type": "function"
    },
    {
      "inputs": [],
      "name": "lastAminalId",
      "outputs": [
        {
          "internalType": "uint256",
          "name": "",
          "type": "uint256"
        }
      ],
      "stateMutability": "view",
      "type": "function"
    },
    {
      "inputs": [
        {
          "internalType": "uint256",
          "name": "aminalId",
          "type": "uint256"
        },
        {
          "internalType": "address",
          "name": "sender",
          "type": "address"
        }
      ],
      "name": "loveDrivenPrice",
      "outputs": [
        {
          "internalType": "uint128",
          "name": "",
          "type": "uint128"
        }
      ],
      "stateMutability": "view",
      "type": "function"
    },
    {
      "inputs": [
        {
          "internalType": "uint256",
          "name": "",
          "type": "uint256"
        }
      ],
      "name": "miscs",
      "outputs": [
        {
          "internalType": "string",
          "name": "",
          "type": "string"
        }
      ],
      "stateMutability": "view",
      "type": "function"
    },
    {
      "inputs": [
        {
          "internalType": "uint256",
          "name": "",
          "type": "uint256"
        }
      ],
      "name": "mouths",
      "outputs": [
        {
          "internalType": "string",
          "name": "",
          "type": "string"
        }
      ],
      "stateMutability": "view",
      "type": "function"
    },
    {
      "inputs": [],
      "name": "name",
      "outputs": [
        {
          "internalType": "string",
          "name": "",
          "type": "string"
        }
      ],
      "stateMutability": "view",
      "type": "function"
    },
    {
      "inputs": [],
      "name": "owner",
      "outputs": [
        {
          "internalType": "address",
          "name": "",
          "type": "address"
        }
      ],
      "stateMutability": "view",
      "type": "function"
    },
    {
      "inputs": [
        {
          "internalType": "uint256",
          "name": "id",
          "type": "uint256"
        }
      ],
      "name": "ownerOf",
      "outputs": [
        {
          "internalType": "address",
          "name": "owner",
          "type": "address"
        }
      ],
      "stateMutability": "view",
      "type": "function"
    },
    {
      "inputs": [],
      "name": "proposals",
      "outputs": [
        {
          "internalType": "contract AminalProposals",
          "name": "",
          "type": "address"
        }
      ],
      "stateMutability": "view",
      "type": "function"
    },
    {
      "inputs": [
        {
          "internalType": "uint256",
          "name": "aminalID",
          "type": "uint256"
        },
        {
          "internalType": "string",
          "name": "skillName",
          "type": "string"
        },
        {
          "internalType": "address",
          "name": "skillAddress",
          "type": "address"
        }
      ],
      "name": "proposeAddSkill",
      "outputs": [
        {
          "internalType": "uint256",
          "name": "proposalId",
          "type": "uint256"
        }
      ],
      "stateMutability": "payable",
      "type": "function"
    },
    {
      "inputs": [
        {
          "internalType": "uint256",
          "name": "aminalID",
          "type": "uint256"
        },
        {
          "internalType": "string",
          "name": "description",
          "type": "string"
        },
        {
          "internalType": "address",
          "name": "skillAddress",
          "type": "address"
        }
      ],
      "name": "proposeRemoveSkill",
      "outputs": [
        {
          "internalType": "uint256",
          "name": "proposalId",
          "type": "uint256"
        }
      ],
      "stateMutability": "payable",
      "type": "function"
    },
    {
      "inputs": [
        {
          "internalType": "address",
          "name": "faddress",
          "type": "address"
        },
        {
          "internalType": "uint256",
          "name": "aminalID",
          "type": "uint256"
        }
      ],
      "name": "removeSkill",
      "outputs": [],
      "stateMutability": "nonpayable",
      "type": "function"
    },
    {
      "inputs": [],
      "name": "renounceOwnership",
      "outputs": [],
      "stateMutability": "nonpayable",
      "type": "function"
    },
    {
      "inputs": [
        {
          "internalType": "address",
          "name": "from",
          "type": "address"
        },
        {
          "internalType": "address",
          "name": "to",
          "type": "address"
        },
        {
          "internalType": "uint256",
          "name": "id",
          "type": "uint256"
        }
      ],
      "name": "safeTransferFrom",
      "outputs": [],
      "stateMutability": "nonpayable",
      "type": "function"
    },
    {
      "inputs": [
        {
          "internalType": "address",
          "name": "from",
          "type": "address"
        },
        {
          "internalType": "address",
          "name": "to",
          "type": "address"
        },
        {
          "internalType": "uint256",
          "name": "id",
          "type": "uint256"
        },
        {
          "internalType": "bytes",
          "name": "data",
          "type": "bytes"
        }
      ],
      "name": "safeTransferFrom",
      "outputs": [],
      "stateMutability": "nonpayable",
      "type": "function"
    },
    {
      "inputs": [
        {
          "internalType": "address",
          "name": "operator",
          "type": "address"
        },
        {
          "internalType": "bool",
          "name": "approved",
          "type": "bool"
        }
      ],
      "name": "setApprovalForAll",
      "outputs": [],
      "stateMutability": "nonpayable",
      "type": "function"
    },
    {
      "inputs": [
        {
          "internalType": "uint256",
          "name": "aminalID",
          "type": "uint256"
        },
        {
          "internalType": "bool",
          "name": "breeding",
          "type": "bool"
        }
      ],
      "name": "setBreeding",
      "outputs": [],
      "stateMutability": "nonpayable",
      "type": "function"
    },
    {
      "inputs": [
        {
          "internalType": "address",
          "name": "",
          "type": "address"
        }
      ],
      "name": "skills",
      "outputs": [
        {
          "internalType": "bool",
          "name": "",
          "type": "bool"
        }
      ],
      "stateMutability": "view",
      "type": "function"
    },
    {
      "inputs": [
        {
          "internalType": "uint256",
          "name": "aminalOne",
          "type": "uint256"
        },
        {
          "internalType": "uint256",
          "name": "aminalTwo",
          "type": "uint256"
        },
        {
          "internalType": "uint256",
          "name": "backId",
          "type": "uint256"
        },
        {
          "internalType": "uint256",
          "name": "armId",
          "type": "uint256"
        },
        {
          "internalType": "uint256",
          "name": "tailId",
          "type": "uint256"
        },
        {
          "internalType": "uint256",
          "name": "earsId",
          "type": "uint256"
        },
        {
          "internalType": "uint256",
          "name": "bodyId",
          "type": "uint256"
        },
        {
          "internalType": "uint256",
          "name": "faceId",
          "type": "uint256"
        },
        {
          "internalType": "uint256",
          "name": "mouthId",
          "type": "uint256"
        },
        {
          "internalType": "uint256",
          "name": "miscId",
          "type": "uint256"
        }
      ],
      "name": "spawnAminal",
      "outputs": [
        {
          "internalType": "uint256",
          "name": "",
          "type": "uint256"
        }
      ],
      "stateMutability": "nonpayable",
      "type": "function"
    },
    {
      "inputs": [
        {
          "components": [
            {
              "internalType": "uint256",
              "name": "backId",
              "type": "uint256"
            },
            {
              "internalType": "uint256",
              "name": "armId",
              "type": "uint256"
            },
            {
              "internalType": "uint256",
              "name": "tailId",
              "type": "uint256"
            },
            {
              "internalType": "uint256",
              "name": "earsId",
              "type": "uint256"
            },
            {
              "internalType": "uint256",
              "name": "bodyId",
              "type": "uint256"
            },
            {
              "internalType": "uint256",
              "name": "faceId",
              "type": "uint256"
            },
            {
              "internalType": "uint256",
              "name": "mouthId",
              "type": "uint256"
            },
            {
              "internalType": "uint256",
              "name": "miscId",
              "type": "uint256"
            }
          ],
          "internalType": "struct IAminalStructs.Visuals[]",
          "name": "_visuals",
          "type": "tuple[]"
        }
      ],
      "name": "spawnInitialAminals",
      "outputs": [],
      "stateMutability": "nonpayable",
      "type": "function"
    },
    {
      "inputs": [
        {
          "internalType": "uint256",
          "name": "aminalId",
          "type": "uint256"
        },
        {
          "internalType": "uint256",
          "name": "amount",
          "type": "uint256"
        }
      ],
      "name": "squeak",
      "outputs": [],
      "stateMutability": "payable",
      "type": "function"
    },
    {
      "inputs": [
        {
          "internalType": "bytes4",
          "name": "interfaceId",
          "type": "bytes4"
        }
      ],
      "name": "supportsInterface",
      "outputs": [
        {
          "internalType": "bool",
          "name": "",
          "type": "bool"
        }
      ],
      "stateMutability": "view",
      "type": "function"
    },
    {
      "inputs": [],
      "name": "symbol",
      "outputs": [
        {
          "internalType": "string",
          "name": "",
          "type": "string"
        }
      ],
      "stateMutability": "view",
      "type": "function"
    },
    {
      "inputs": [
        {
          "internalType": "uint256",
          "name": "",
          "type": "uint256"
        }
      ],
      "name": "tails",
      "outputs": [
        {
          "internalType": "string",
          "name": "",
          "type": "string"
        }
      ],
      "stateMutability": "view",
      "type": "function"
    },
    {
      "inputs": [
        {
          "internalType": "uint256",
          "name": "aminalID",
          "type": "uint256"
        }
      ],
      "name": "tokenURI",
      "outputs": [
        {
          "internalType": "string",
          "name": "",
          "type": "string"
        }
      ],
      "stateMutability": "view",
      "type": "function"
    },
    {
      "inputs": [
        {
          "internalType": "address",
          "name": "from",
          "type": "address"
        },
        {
          "internalType": "address",
          "name": "to",
          "type": "address"
        },
        {
          "internalType": "uint256",
          "name": "id",
          "type": "uint256"
        }
      ],
      "name": "transferFrom",
      "outputs": [],
      "stateMutability": "nonpayable",
      "type": "function"
    },
    {
      "inputs": [
        {
          "internalType": "address",
          "name": "newOwner",
          "type": "address"
        }
      ],
      "name": "transferOwnership",
      "outputs": [],
      "stateMutability": "nonpayable",
      "type": "function"
    },
    {
      "inputs": [],
      "name": "visualsAuction",
      "outputs": [
        {
          "internalType": "contract VisualsAuction",
          "name": "",
          "type": "address"
        }
      ],
      "stateMutability": "view",
      "type": "function"
    },
    {
      "inputs": [
        {
          "internalType": "uint256",
          "name": "aminalID",
          "type": "uint256"
        },
        {
          "internalType": "uint256",
          "name": "proposalID",
          "type": "uint256"
        },
        {
          "internalType": "bool",
          "name": "yesNo",
          "type": "bool"
        }
      ],
      "name": "voteSkill",
      "outputs": [],
      "stateMutability": "nonpayable",
      "type": "function"
    }
  ],
  "bytecode": {
    "object": "0x60806040523480156200001157600080fd5b506040516200513e3803806200513e833981016040819052620000349162000454565b60405180604001604052806007815260200166416d696e616c7360c81b81525060405180604001604052806007815260200166414d494e414c5360c81b815250816000908162000085919062000531565b50600162000094828262000531565b505050620000b1620000ab6200015960201b60201c565b6200015d565b600f80546001600160a01b038085166001600160a01b0319928316179092556011805492841692909116919091179055604080516020810190915260008152620000fb81620001b9565b5062000107816200020e565b5062000113816200025d565b506200011f81620002ac565b506200012b81620002fb565b5062000137816200034a565b50620001438162000399565b506200014f81620003e8565b505050506200061f565b3390565b600c80546001600160a01b038381166201000081810262010000600160b01b031985161790945560405193909204169182907f8be0079c531659141344cd1fd0a4f28419497f9722a3daafe3b4186f6b6457e090600090a35050565b6004805460018101825560009182527f8a35acfbc15ff81a39ae7d344fd709f28e8600b4aa8c65c6b64bfe7fe36bd19b01620001f6838262000531565b506004546200020890600190620005fd565b92915050565b6005805460018101825560009182527f036b6384b5eca791c62761152d0c79bb0604c104a5fb6f4eb0703f3154bb3db0016200024b838262000531565b506005546200020890600190620005fd565b6006805460018101825560009182527ff652222313e28459528d920b65115c16c04f3efc82aaedc97be59f3f377c0d3f016200029a838262000531565b506006546200020890600190620005fd565b6007805460018101825560009182527fa66cc928b5edb82af9bd49922954155ab7b0942694bea4ce44661d9a8736c68801620002e9838262000531565b506007546200020890600190620005fd565b6008805460018101825560009182527ff3f7a9fe364faab93b216da50a3214154f22a0a2b415b23a84c8169e8b636ee30162000338838262000531565b506008546200020890600190620005fd565b6009805460018101825560009182527f6e1540171b6c0c960b71a7020d9f60077f6af931a8bbf590da0223dacf75c7af0162000387838262000531565b506009546200020890600190620005fd565b600a805460018101825560009182527fc65a7bb8d6351c1cf70c95a316cc6a92839c986682d98bc35f958f4883f9d2a801620003d6838262000531565b50600a546200020890600190620005fd565b600b805460018101825560009182527f0175b7a638427703f0dbe7bb9bbf987a2551717b34e79f33b5b1008d1fa01db90162000425838262000531565b50600b546200020890600190620005fd565b80516001600160a01b03811681146200044f57600080fd5b919050565b600080604083850312156200046857600080fd5b620004738362000437565b9150620004836020840162000437565b90509250929050565b634e487b7160e01b600052604160045260246000fd5b600181811c90821680620004b757607f821691505b602082108103620004d857634e487b7160e01b600052602260045260246000fd5b50919050565b601f8211156200052c57600081815260208120601f850160051c81016020861015620005075750805b601f850160051c820191505b81811015620005285782815560010162000513565b5050505b505050565b81516001600160401b038111156200054d576200054d6200048c565b62000565816200055e8454620004a2565b84620004de565b602080601f8311600181146200059d5760008415620005845750858301515b600019600386901b1c1916600185901b17855562000528565b600085815260208120601f198616915b82811015620005ce57888601518255948401946001909101908401620005ad565b5085821015620005ed5787850151600019600388901b60f8161c191681555b5050505050600190811b01905550565b818103818111156200020857634e487b7160e01b600052601160045260246000fd5b614b0f806200062f6000396000f3fe60806040526004361061038c5760003560e01c806370a08231116101dc57806399b2991411610102578063d829b56e116100a0578063ed19c6ce1161006f578063ed19c6ce14610b41578063f2fde38b14610b79578063f3a7a54014610b99578063f59dfdfb14610bb957600080fd5b8063d829b56e14610ac1578063da7de20714610ae1578063e11873b414610b01578063e38294df14610b2157600080fd5b8063b88d4fde116100dc578063b88d4fde14610a41578063b8e1963514610a61578063c78e87d514610a81578063c87b56dd14610aa157600080fd5b806399b29914146109e6578063a22cb46514610a06578063b7d168e614610a2157600080fd5b80637e0358a61161017a57806392b4c81b1161014957806392b4c81b14610964578063932b4c5f14610984578063938a3458146109a457806395d89b41146109d157600080fd5b80637e0358a6146108d05780638d549a25146109005780638da5cb5b1461092057806390f1d5dc1461094457600080fd5b806371cde580116101b657806371cde5801461084057806373a645a1146108605780637905c0441461088057806379f372f6146108a057600080fd5b806370a08231146107eb578063711379f81461080b578063715018a61461082b57600080fd5b80632f2f967b116102c15780634d37b6931161025f5780635ac1e3bb1161022e5780635ac1e3bb146107785780635e70664c146107985780636352211e146107b85780637004fb84146107d857600080fd5b80634d37b693146106da5780634f0f3c09146106f057806355ef20e614610720578063576b87a71461075857600080fd5b806344cee73c1161029b57806344cee73c1461064057806349e25e00146106605780634ba7d0d5146106735780634c82f4b41461069357600080fd5b80632f2f967b146105e057806342320aa11461060057806342842e0e1461062057600080fd5b80631540d37a1161032e57806319a571c91161030857806319a571c9146104cc5780631c557073146104ec57806323b872dd146105b2578063248aeab1146105cd57600080fd5b80631540d37a1461048657806316ce9c6d146104995780631994f00b146104b957600080fd5b8063055010ba1161036a578063055010ba1461041457806306fdde031461043457806307c3c94814610449578063095ea7b31461046957600080fd5b806301ce47761461039157806301ffc9a7146103b757806304bde4dd146103e7575b600080fd5b6103a461039f36600461396e565b610bcc565b6040519081526020015b60405180910390f35b3480156103c357600080fd5b506103d76103d23660046139cc565b610e54565b60405190151581526020016103ae565b3480156103f357600080fd5b506104076104023660046139f6565b610ea6565b6040516103ae9190613a5f565b34801561042057600080fd5b506103a461042f366004613b5d565b610f52565b34801561044057600080fd5b50610407610f9d565b34801561045557600080fd5b506104076104643660046139f6565b610faa565b34801561047557600080fd5b5061048461038c366004613b91565b005b6103a461049436600461396e565b610fdf565b3480156104a557600080fd5b506104076104b43660046139f6565b611268565b6104846104c7366004613bbd565b611278565b3480156104d857600080fd5b506103a46104e7366004613c2f565b611436565b3480156104f857600080fd5b5061059f6105073660046139f6565b600d602081815260009283526040928390208054600182015460028301546003840154600485015488516101008181018b5260078801548252600888015498820198909852600987015499810199909952600a86015460608a0152600b86015460808a0152600c86015460a08a01529685015460c0890152600e9094015460e088015291959094919360ff8084169391909104169087565b6040516103ae9796959493929190613ce5565b3480156105be57600080fd5b5061048461038c366004613d20565b6104846105db366004613d61565b611476565b3480156105ec57600080fd5b506103a46105fb366004613b5d565b611587565b34801561060c57600080fd5b506103a461061b366004613b5d565b6115d2565b34801561062c57600080fd5b5061048461063b366004613d20565b61161d565b34801561064c57600080fd5b5061040761065b3660046139f6565b611625565b61048461066e366004613dbc565b611635565b34801561067f57600080fd5b5061048461068e366004613dec565b611870565b34801561069f57600080fd5b506103a46106ae366004613e25565b6000828152600d602090815260408083206001600160a01b038516845260060190915290205492915050565b3480156106e657600080fd5b506103a4600e5481565b3480156106fc57600080fd5b506103d761070b366004613e55565b60106020526000908152604090205460ff1681565b34801561072c57600080fd5b50601154610740906001600160a01b031681565b6040516001600160a01b0390911681526020016103ae565b34801561076457600080fd5b506103a4610773366004613b5d565b611d4a565b34801561078457600080fd5b506104076107933660046139f6565b611d95565b3480156107a457600080fd5b506103a46107b3366004613b5d565b611e90565b3480156107c457600080fd5b506107406107d33660046139f6565b611edb565b6103a46107e6366004613dbc565b611f32565b3480156107f757600080fd5b506103a4610806366004613e55565b6121fe565b34801561081757600080fd5b50610484610826366004613e72565b612261565b34801561083757600080fd5b5061048461229b565b34801561084c57600080fd5b5061040761085b3660046139f6565b6122af565b34801561086c57600080fd5b506103a461087b366004613b5d565b6122bf565b34801561088c57600080fd5b5061048461089b366004613dec565b61230a565b3480156108ac57600080fd5b506103a46108bb3660046139f6565b6000908152600d602052604090206002015490565b3480156108dc57600080fd5b506103a46108eb3660046139f6565b6000908152600d602052604090206003015490565b34801561090c57600080fd5b5061048461091b366004613e97565b61248b565b34801561092c57600080fd5b50600c546201000090046001600160a01b0316610740565b34801561095057600080fd5b5061040761095f3660046139f6565b6126af565b34801561097057600080fd5b5061040761097f366004613f0b565b6126bf565b34801561099057600080fd5b5061048461099f366004613dbc565b61270f565b3480156109b057600080fd5b506109c46109bf3660046139f6565b612765565b6040516103ae9190613fe3565b3480156109dd57600080fd5b5061040761281d565b3480156109f257600080fd5b506103a4610a01366004613b5d565b61282a565b348015610a1257600080fd5b5061048461038c366004613ff2565b348015610a2d57600080fd5b50610407610a3c366004614020565b612875565b348015610a4d57600080fd5b50610484610a5c3660046140cc565b6128a5565b348015610a6d57600080fd5b50610407610a7c3660046139f6565b6128ad565b348015610a8d57600080fd5b506103a4610a9c366004613b5d565b6128bd565b348015610aad57600080fd5b50610407610abc3660046139f6565b612908565b348015610acd57600080fd5b50610407610adc3660046139f6565b612913565b348015610aed57600080fd5b50610407610afc3660046139f6565b612923565b348015610b0d57600080fd5b50610407610b1c366004613dbc565b612933565b348015610b2d57600080fd5b50600f54610740906001600160a01b031681565b348015610b4d57600080fd5b50610b61610b5c366004613e25565b612c22565b6040516001600160801b0390911681526020016103ae565b348015610b8557600080fd5b50610484610b94366004613e55565b612cc7565b348015610ba557600080fd5b50610484610bb4366004613b91565b612d40565b6103a4610bc73660046139f6565b612d9b565b600080610bd98633612c22565b9050806001600160801b0316341015610c0d5760405162461bcd60e51b8152600401610c0490614121565b60405180910390fd5b60115460405162e723bb60e11b81526001600160a01b03909116906301ce477690610c42908990899089908990600401614192565b6020604051808303816000875af1158015610c61573d6000803e3d6000fd5b505050506040513d601f19601f82011682018060405250810190610c8591906141c5565b6011549092506001600160a01b031663e14a222b8733856001610cb7846000908152600d602052604090206002015490565b601160009054906101000a90046001600160a01b03166001600160a01b0316637b8d46cb6040518163ffffffff1660e01b8152600401602060405180830381865afa158015610d0a573d6000803e3d6000fd5b505050506040513d601f19601f82011682018060405250810190610d2e91906141c5565b601160009054906101000a90046001600160a01b03166001600160a01b031663c962e1816040518163ffffffff1660e01b8152600401602060405180830381865afa158015610d81573d6000803e3d6000fd5b505050506040513d601f19601f82011682018060405250810190610da591906141c5565b6040518863ffffffff1660e01b8152600401610dc797969594939291906141de565b6020604051808303816000875af1158015610de6573d6000803e3d6000fd5b505050506040513d601f19601f82011682018060405250810190610e0a91906141c5565b50857fe567a3653797f914bcfbcde6757a7f9d56d1de4235c971241a224b957d14fe408387878733604051610e43959493929190614217565b60405180910390a250949350505050565b60006301ffc9a760e01b6001600160e01b031983161480610e8557506380ac58cd60e01b6001600160e01b03198316145b80610ea05750635b5e139f60e01b6001600160e01b03198316145b92915050565b60048181548110610eb657600080fd5b906000526020600020016000915090508054610ed190614253565b80601f0160208091040260200160405190810160405280929190818152602001828054610efd90614253565b8015610f4a5780601f10610f1f57610100808354040283529160200191610f4a565b820191906000526020600020905b815481529060010190602001808311610f2d57829003601f168201915b505050505081565b600b805460018101825560009182527f0175b7a638427703f0dbe7bb9bbf987a2551717b34e79f33b5b1008d1fa01db901610f8d83826142d3565b50600b54610ea0906001906143a8565b60008054610ed190614253565b6060610fb582612e0f565b604051602001610fc591906143bb565b6040516020818303038152906040529050919050565b5050565b600080610fec8633612c22565b9050806001600160801b03163410156110175760405162461bcd60e51b8152600401610c0490614121565b601154604051630aa069bd60e11b81526001600160a01b0390911690631540d37a9061104d908990899089908990600401614192565b6020604051808303816000875af115801561106c573d6000803e3d6000fd5b505050506040513d601f19601f8201168201806040525081019061109091906141c5565b915061109b82612f17565b6011546001600160a01b031663e14a222b87338560016110ca846000908152600d602052604090206002015490565b601160009054906101000a90046001600160a01b03166001600160a01b0316637b8d46cb6040518163ffffffff1660e01b8152600401602060405180830381865afa15801561111d573d6000803e3d6000fd5b505050506040513d601f19601f8201168201806040525081019061114191906141c5565b601160009054906101000a90046001600160a01b03166001600160a01b031663c962e1816040518163ffffffff1660e01b8152600401602060405180830381865afa158015611194573d6000803e3d6000fd5b505050506040513d601f19601f820116820180604052508101906111b891906141c5565b6040518863ffffffff1660e01b81526004016111da97969594939291906141de565b6020604051808303816000875af11580156111f9573d6000803e3d6000fd5b505050506040513d601f19601f8201168201806040525081019061121d91906141c5565b50604080518381526001600160a01b0385166020820152339181019190915286907ff26c80c0064b01e8e364fb89d7ed2c7651fdd2555484ff04b64bf09e621dd7cf90606001610e43565b60058181548110610eb657600080fd5b3360009081526010602052604090205460ff1615156001146113025760405162461bcd60e51b815260206004820152603a60248201527f63616c6c536b696c6c496e7465726e616c2063616e206f6e6c7920626520636160448201527f6c6c65642062792061207265676973746572656420736b696c6c0000000000006064820152608401610c04565b6001600160a01b03831660009081526010602052604090205460ff1615156001146113665760405162461bcd60e51b815260206004820152601460248201527314dada5b1b08191bd95cc81b9bdd08195e1a5cdd60621b6044820152606401610c04565b6113886040518060600160405280602e81526020016149d7602e913934612f5c565b6000836001600160a01b0316631f3e26ef34888887876040518663ffffffff1660e01b81526004016113bd9493929190614416565b60206040518083038185885af11580156113db573d6000803e3d6000fd5b50505050506040513d601f19601f8201168201806040525081019061140091906141c5565b9050611424604051806060016040528060318152602001614a056031913982612f5c565b61142e8582611635565b505050505050565b600f546000906001600160a01b0316331461145057600080fd5b6114628b8b8b8b8b8b8b8b8b8b612fa1565b9b9a5050505050505050505050565b505050565b6001600160a01b03831660009081526010602052604090205460ff1615156001146114da5760405162461bcd60e51b815260206004820152601460248201527314dada5b1b08191bd95cc81b9bdd08195e1a5cdd60621b6044820152606401610c04565b6000836001600160a01b0316631f3e26ef34338887876040518663ffffffff1660e01b815260040161150f9493929190614416565b60206040518083038185885af115801561152d573d6000803e3d6000fd5b50505050506040513d601f19601f8201168201806040525081019061155291906141c5565b90506115766040518060600160405280603181526020016149a66031913982612f5c565b6115808582611635565b5050505050565b6007805460018101825560009182527fa66cc928b5edb82af9bd49922954155ab7b0942694bea4ce44661d9a8736c688016115c283826142d3565b50600754610ea0906001906143a8565b6006805460018101825560009182527ff652222313e28459528d920b65115c16c04f3efc82aaedc97be59f3f377c0d3f0161160d83826142d3565b50600654610ea0906001906143a8565b611471600080fd5b60088181548110610eb657600080fd5b6116746040518060400160405280601a81526020017f686572652e2e2e2077697468206d73672e76616c7565203d3d2000000000000081525034612f5c565b662386f26fc1000034101561169c57604051638a0d377960e01b815260040160405180910390fd5b6000828152600d6020908152604080832081518083018352601681527503a3432b932971717103bb4ba34103637bb32901e9e960551b81850152338552600682019093529220546116ed9190612f5c565b604080518082018252601b81527f636f6d696e672066726f6d207468652061646472657373203d3d20000000000060208083019190915282518084018452600e81526d0103bb4ba341039b5b4b636399d160951b818301523360008181526010909352939091205461176393919060ff166130a3565b3360009081526010602052604090205460ff1615156001148061179757503360009081526006820160205260409020548211155b6117d55760405162461bcd60e51b815260206004820152600f60248201526e4e6f7420656e6f756768206c6f766560881b6044820152606401610c04565b3360009081526010602052604090205460ff1615156001036117f657505050565b818160030154106118175781816003015461181191906143a8565b60038201555b61182483833360006130ec565b827fbdcb48055598f227977a56221e9bb2147a431af97d6f249cc43418b717d0742c838360030154604051611863929190918252602082015260400190565b60405180910390a2505050565b6011546001600160a01b0316331461188757600080fd5b601154600e54604051632afc88f560e21b8152600481018590526001600160a01b03909216916386462a96918691869186918690636ab6f65490829063abf223d490602401602060405180830381865afa1580156118e9573d6000803e3d6000fd5b505050506040513d601f19601f8201168201806040525081019061190d91906141c5565b6040516001600160e01b031960e084901b1681526004810191909152426024820152604401602060405180830381865afa15801561194f573d6000803e3d6000fd5b505050506040513d601f19601f8201168201806040525081019061197391906141c5565b601160009054906101000a90046001600160a01b03166001600160a01b03166332f1c3246040518163ffffffff1660e01b8152600401602060405180830381865afa1580156119c6573d6000803e3d6000fd5b505050506040513d601f19601f820116820180604052508101906119ea91906141c5565b6040516001600160e01b031960e089901b1681526004810196909652602486019490945291151560448501526064840152608483015260a482015260c401600060405180830381600087803b158015611a4257600080fd5b505af1158015611a56573d6000803e3d6000fd5b5050601154604051636cbc7fdd60e11b815260048101869052600093506001600160a01b03909116915063d978ffba90602401602060405180830381865afa158015611aa6573d6000803e3d6000fd5b505050506040513d601f19601f82011682018060405250810190611aca919061443e565b601154604051632759c1b360e01b8152600481018690529192506001600160a01b031690632759c1b390602401602060405180830381865afa158015611b14573d6000803e3d6000fd5b505050506040513d601f19601f82011682018060405250810190611b38919061445f565b15611d4457601154604051634925ec5560e01b8152600481018590526000916001600160a01b031690634925ec5590602401600060405180830381865afa158015611b87573d6000803e3d6000fd5b505050506040513d6000823e601f3d908101601f19168201604052611baf919081019061447c565b6011546040516317abf35960e11b8152600481018790529192506000916001600160a01b0390911690632f57e6b290602401602060405180830381865afa158015611bfe573d6000803e3d6000fd5b505050506040513d601f19601f82011682018060405250810190611c2291906144f2565b601154604051634cc0764360e11b8152600481018890529192506000916001600160a01b0390911690639980ec8690602401602060405180830381865afa158015611c71573d6000803e3d6000fd5b505050506040513d601f19601f82011682018060405250810190611c9591906141c5565b90506000846001811115611cab57611cab61450f565b03611cbf57611cba82886131a0565b611ce2565b6001846001811115611cd357611cd361450f565b03611ce257611ce28288612d40565b601154604051630575f5a760e11b8152600481018890526001600160a01b0390911690630aebeb4e90602401600060405180830381600087803b158015611d2857600080fd5b505af1158015611d3c573d6000803e3d6000fd5b505050505050505b50505050565b6005805460018101825560009182527f036b6384b5eca791c62761152d0c79bb0604c104a5fb6f4eb0703f3154bb3db001611d8583826142d3565b50600554610ea0906001906143a8565b60606000611da283612e0f565b604051602001611db29190614525565b60405160208183030381529060405290506000611dd6611dd1856131f6565b61348a565b604051602001611de69190614555565b60405160208183030381529060405290506000604051602001611e5c907f54686973204e465420726570726573656e74732061206469676974616c20706581527f742e2054686973204e46542063616e6e6f74206265207472616e7366657265646020820152601760f91b604082015260410190565b60405160208183030381529060405290506000611e7886610faa565b9050611e8684838584612875565b9695505050505050565b6004805460018101825560009182527f8a35acfbc15ff81a39ae7d344fd709f28e8600b4aa8c65c6b64bfe7fe36bd19b01611ecb83826142d3565b50600454610ea0906001906143a8565b6000818152600260205260409020546001600160a01b031680611f2d5760405162461bcd60e51b815260206004820152600a6024820152691393d517d3525395115160b21b6044820152606401610c04565b919050565b6000662386f26fc10000341015611f7e5760405162461bcd60e51b815260206004820152601060248201526f2737ba1032b737bab3b41032ba3432b960811b6044820152606401610c04565b6000838152600d6020908152604080832085845281842033855260068201909352922054600a1115611fe45760405162461bcd60e51b815260206004820152600f60248201526e4e6f7420656e6f756768206c6f766560881b6044820152606401610c04565b600085815260058201602052604090205460ff161561213557600a8260030154101580156120175750600a816003015410155b6120775760405162461bcd60e51b815260206004820152602b60248201527f416d696e616c20646f6573206e6f74206861766520656e6f75676820656e657260448201526a19de481d1bc8189c99595960aa1b6064820152608401610c04565b600f546040516313fb84ff60e21b815260048101879052602481018690526000916001600160a01b031690634fee13fc906044016020604051808303816000875af11580156120ca573d6000803e3d6000fd5b505050506040513d601f19601f820116820180604052508101906120ee91906141c5565b905084867f01ecc76f2fb8ffa2367de10250c909f428a106848b52f124b75238277ed080ae8360405161212391815260200190565b60405180910390a39250610ea0915050565b6000848152600583016020908152604091829020805460ff191660011790558151808301835260088152670c2dad2dcc2d840560c31b818301528251808401909352601883527f29206973206e6f7720627265656461626c652077697468200000000000000000918301919091526121af918790876135f0565b83857f01ecc76f2fb8ffa2367de10250c909f428a106848b52f124b75238277ed080ae60006040516121e391815260200190565b60405180910390a3600092505050610ea0565b505092915050565b60006001600160a01b0382166122455760405162461bcd60e51b815260206004820152600c60248201526b5a45524f5f4144445245535360a01b6044820152606401610c04565b506001600160a01b031660009081526003602052604090205490565b600f546001600160a01b0316331461227857600080fd5b6000918252600d6020526040909120600401805460ff1916911515919091179055565b6122a3613639565b6122ad600061369a565b565b60068181548110610eb657600080fd5b6009805460018101825560009182527f6e1540171b6c0c960b71a7020d9f60077f6af931a8bbf590da0223dacf75c7af016122fa83826142d3565b50600954610ea0906001906143a8565b6011546001600160a01b031663e14a222b84338585612338846000908152600d602052604090206002015490565b601160009054906101000a90046001600160a01b03166001600160a01b0316637b8d46cb6040518163ffffffff1660e01b8152600401602060405180830381865afa15801561238b573d6000803e3d6000fd5b505050506040513d601f19601f820116820180604052508101906123af91906141c5565b601160009054906101000a90046001600160a01b03166001600160a01b031663c962e1816040518163ffffffff1660e01b8152600401602060405180830381865afa158015612402573d6000803e3d6000fd5b505050506040513d601f19601f8201168201806040525081019061242691906141c5565b6040518863ffffffff1660e01b815260040161244897969594939291906141de565b6020604051808303816000875af1158015612467573d6000803e3d6000fd5b505050506040513d601f19601f82011682018060405250810190611d4491906141c5565b600c54610100900460ff16158080156124ab5750600c54600160ff909116105b806124c55750303b1580156124c55750600c5460ff166001145b6125285760405162461bcd60e51b815260206004820152602e60248201527f496e697469616c697a61626c653a20636f6e747261637420697320616c72656160448201526d191e481a5b9a5d1a585b1a5e995960921b6064820152608401610c04565b600c805460ff19166001179055801561254b57600c805461ff0019166101001790555b612553613639565b60005b82811015612664576126516000808686858181106125765761257661459a565b90506101000201600001358787868181106125935761259361459a565b90506101000201602001358888878181106125b0576125b061459a565b90506101000201604001358989888181106125cd576125cd61459a565b90506101000201606001358a8a898181106125ea576125ea61459a565b90506101000201608001358b8b8a8181106126075761260761459a565b9050610100020160a001358c8c8b8181106126245761262461459a565b9050610100020160c001358d8d8c8181106126415761264161459a565b9050610100020160e00135612fa1565b508061265c816145b0565b915050612556565b50801561147157600c805461ff0019169055604051600181527f7f26b83ff96e1f2b6a682f133852f6798a09c465da95921460cefb38474024989060200160405180910390a1505050565b600a8181548110610eb657600080fd5b60606126ff82600001518360200151846040015185606001516040516020016126eb94939291906145c9565b60405160208183030381529060405261348a565b604051602001610fc5919061469e565b600f546001600160a01b0316331461272657600080fd5b6000828152600d6020908152604080832093835280832060059485018352818420805460ff199081169091559584529390930190522080549091169055565b6127ad60405180610100016040528060008152602001600081526020016000815260200160008152602001600081526020016000815260200160008152602001600081525090565b506000908152600d602081815260409283902083516101008101855260078201548152600882015492810192909252600981015493820193909352600a8301546060820152600b8301546080820152600c83015460a08201529082015460c0820152600e9091015460e082015290565b60018054610ed190614253565b600a805460018101825560009182527fc65a7bb8d6351c1cf70c95a316cc6a92839c986682d98bc35f958f4883f9d2a80161286583826142d3565b50600a54610ea0906001906143a8565b606060006040518060800160405280878152602001868152602001858152602001848152509050611e86816126bf565b611580600080fd5b60078181548110610eb657600080fd5b6008805460018101825560009182527ff3f7a9fe364faab93b216da50a3214154f22a0a2b415b23a84c8169e8b636ee3016128f883826142d3565b50600854610ea0906001906143a8565b6060610ea082611d95565b600b8181548110610eb657600080fd5b60098181548110610eb657600080fd5b606060008360078111156129495761294961450f565b600781111561295a5761295a61450f565b03612a1b57600454821015612a16576004828154811061297c5761297c61459a565b90600052602060002001805461299190614253565b80601f01602080910402602001604051908101604052809291908181526020018280546129bd90614253565b8015612a0a5780601f106129df57610100808354040283529160200191612a0a565b820191906000526020600020905b8154815290600101906020018083116129ed57829003601f168201915b50505050509050610ea0565b612c0c565b6001836007811115612a2f57612a2f61450f565b6007811115612a4057612a4061450f565b03612a6257600554821015612a16576005828154811061297c5761297c61459a565b6002836007811115612a7657612a7661450f565b6007811115612a8757612a8761450f565b03612aa957600654821015612a16576006828154811061297c5761297c61459a565b6003836007811115612abd57612abd61450f565b6007811115612ace57612ace61450f565b03612af057600754821015612a16576007828154811061297c5761297c61459a565b6004836007811115612b0457612b0461450f565b6007811115612b1557612b1561450f565b03612b3757600854821015612a16576008828154811061297c5761297c61459a565b6005836007811115612b4b57612b4b61450f565b6007811115612b5c57612b5c61450f565b03612b7e57600954821015612a16576009828154811061297c5761297c61459a565b6006836007811115612b9257612b9261450f565b6007811115612ba357612ba361450f565b03612bc557600a54821015612a1657600a828154811061297c5761297c61459a565b6007836007811115612bd957612bd961450f565b6007811115612bea57612bea61450f565b03612c0c57600454821015612c0c57600b828154811061297c5761297c61459a565b5060408051602081019091526000815292915050565b6000828152600d602090815260408083206001600160a01b038516845260068101909252822054600282015483919082612c5c82846146f9565b905080600003612c6f5760649350612c7d565b612c7a8160646146f9565b93505b612c88600a8561470d565b93506001846001600160801b03161015612caa5783612ca681614733565b9450505b612cbb8466038d7ea4c68000614759565b98975050505050505050565b612ccf613639565b6001600160a01b038116612d345760405162461bcd60e51b815260206004820152602660248201527f4f776e61626c653a206e6577206f776e657220697320746865207a65726f206160448201526564647265737360d01b6064820152608401610c04565b612d3d8161369a565b50565b6001600160a01b038216600081815260106020908152604091829020805460ff19169055905191825282917fbe2bd31c399129ecab647fa300f6bb9bd0c0ce022d0566669ac84ef66dcce07591015b60405180910390a25050565b6000662386f26fc10000341015612dc557604051638a0d377960e01b815260040160405180910390fd5b6000828152600d602052604090206004810154610100900460ff16612dfd57604051631aae8e3b60e11b815260040160405180910390fd5b612e088333346136f6565b9392505050565b606081600003612e365750506040805180820190915260018152600360fc1b602082015290565b8160005b8115612e605780612e4a816145b0565b9150612e599050600a836146f9565b9150612e3a565b6000816001600160401b03811115612e7a57612e7a613a72565b6040519080825280601f01601f191660200182016040528015612ea4576020820181803683370190505b5090505b8415612f0f57612eb96001836143a8565b9150612ec6600a8661477c565b612ed1906030614790565b60f81b818381518110612ee657612ee661459a565b60200101906001600160f81b031916908160001a905350612f08600a866146f9565b9450612ea8565b949350505050565b612d3d81604051602401612f2d91815260200190565b60408051601f198184030181529190526020810180516001600160e01b031663f5b1bba960e01b1790526137e5565b610fdb8282604051602401612f729291906147a3565b60408051601f198184030181529190526020810180516001600160e01b03166309710a9d60e41b1790526137e5565b600080600e60008154612fb3906145b0565b91829055506000818152600d602081905260409091208e8155600181018e9055600781018d9055600881018c9055600981018b9055600a81018a9055600b8101899055600c8101889055908101869055600e810185905560048101805461ff0019166101001790559091506130283083613806565b604080518c8152602081018c90529081018a9052606081018990526080810188905260a0810187905260c0810186905260e081018590528c908e9084907ff6ad1d036d100bdfde8b99e86d9d76f2a89b6cb7f727ae41a085056a14ead826906101000160405180910390a4509b9a5050505050505050505050565b611d44848484846040516024016130bd94939291906147c5565b60408051601f198184030181529190526020810180516001600160e01b03166317c574a360e21b1790526137e5565b6000848152600d602052604090208161314f576001600160a01b0383166000908152600682016020526040812080548692906131299084906143a8565b925050819055508381600201600082825461314491906143a8565b909155506115809050565b6001600160a01b038316600090815260068201602052604081208054869290613179908490614790565b92505081905550838160020160008282546131949190614790565b90915550505050505050565b6001600160a01b038216600081815260106020908152604091829020805460ff19166001179055905191825282917f79b537a238059d6b8a1edfc16f0459ec82f720b03853f399c8550b07a33563a69101612d8f565b6060600061320383612765565b90506040518060a0016040528060648152602001614a766064913991508160048260000151815481106132385761323861459a565b9060005260206000200160405160200161325392919061480d565b604051602081830303815290604052915081604051602001613275919061489a565b604051602081830303815290604052915081600682604001518154811061329e5761329e61459a565b906000526020600020016040516020016132b992919061480d565b60405160208183030381529060405291508160058260200151815481106132e2576132e261459a565b906000526020600020016040516020016132fd92919061480d565b60405160208183030381529060405291508160078260600151815481106133265761332661459a565b9060005260206000200160405160200161334192919061480d565b604051602081830303815290604052915081600882608001518154811061336a5761336a61459a565b9060005260206000200160405160200161338592919061480d565b60405160208183030381529060405291508160098260a00151815481106133ae576133ae61459a565b906000526020600020016040516020016133c992919061480d565b604051602081830303815290604052915081600a8260c00151815481106133f2576133f261459a565b9060005260206000200160405160200161340d92919061480d565b604051602081830303815290604052915081600b8260e00151815481106134365761343661459a565b9060005260206000200160405160200161345192919061480d565b6040516020818303038152906040529150816040516020016134739190614927565b604051602081830303815290604052915050919050565b606081516000036134a957505060408051602081019091526000815290565b6000604051806060016040528060408152602001614a3660409139905060006003845160026134d89190614790565b6134e291906146f9565b6134ed906004614951565b905060006134fc826020614790565b6001600160401b0381111561351357613513613a72565b6040519080825280601f01601f19166020018201604052801561353d576020820181803683370190505b509050818152600183018586518101602084015b818310156135ab5760039283018051603f601282901c811687015160f890811b8552600c83901c8216880151811b6001860152600683901c8216880151811b60028601529116860151901b93820193909352600401613551565b6003895106600181146135c557600281146135d6576135e2565b613d3d60f01b6001198301526135e2565b603d60f81b6000198301525b509398975050505050505050565b611d448484848460405160240161360a9493929190614968565b60408051601f198184030181529190526020810180516001600160e01b031663a0c4b22560e01b1790526137e5565b600c546001600160a01b03620100009091041633146122ad5760405162461bcd60e51b815260206004820181905260248201527f4f776e61626c653a2063616c6c6572206973206e6f7420746865206f776e65726044820152606401610c04565b600c80546001600160a01b038381166201000081810262010000600160b01b031985161790945560405193909204169182907f8be0079c531659141344cd1fd0a4f28419497f9722a3daafe3b4186f6b6457e090600090a35050565b6000838152600d6020526040812061371185848660016130ec565b60008160030154670de0b6b3a764000061372b91906143a8565b90506000670de0b6b3a76400006137428387614951565b61374c91906146f9565b9050808360030160008282546137629190614790565b90915550506001600160a01b0386166000818152600685016020908152604091829020546002870154600388015484519586529285018a9052928401526060830191909152608082015287907fa4e1f22d32d3fdbb43656f23f2ce5f522de1926b94120b906bc8a1ca29f522899060a00160405180910390a29695505050505050565b80516a636f6e736f6c652e6c6f67602083016000808483855afa5050505050565b6001600160a01b0382166138505760405162461bcd60e51b81526020600482015260116024820152701253959053125117d49150d25412515395607a1b6044820152606401610c04565b6000818152600260205260409020546001600160a01b0316156138a65760405162461bcd60e51b815260206004820152600e60248201526d1053149150511657d3525395115160921b6044820152606401610c04565b6001600160a01b038216600081815260036020908152604080832080546001019055848352600290915280822080546001600160a01b0319168417905551839291907fddf252ad1be2c89b69c2b068fc378daa952ba7f163c4a11628f55a4df523b3ef908290a45050565b60008083601f84011261392357600080fd5b5081356001600160401b0381111561393a57600080fd5b60208301915083602082850101111561395257600080fd5b9250929050565b6001600160a01b0381168114612d3d57600080fd5b6000806000806060858703121561398457600080fd5b8435935060208501356001600160401b038111156139a157600080fd5b6139ad87828801613911565b90945092505060408501356139c181613959565b939692955090935050565b6000602082840312156139de57600080fd5b81356001600160e01b031981168114612e0857600080fd5b600060208284031215613a0857600080fd5b5035919050565b60005b83811015613a2a578181015183820152602001613a12565b50506000910152565b60008151808452613a4b816020860160208601613a0f565b601f01601f19169290920160200192915050565b602081526000612e086020830184613a33565b634e487b7160e01b600052604160045260246000fd5b604051608081016001600160401b0381118282101715613aaa57613aaa613a72565b60405290565b604051601f8201601f191681016001600160401b0381118282101715613ad857613ad8613a72565b604052919050565b60006001600160401b03821115613af957613af9613a72565b50601f01601f191660200190565b600082601f830112613b1857600080fd5b8135613b2b613b2682613ae0565b613ab0565b818152846020838601011115613b4057600080fd5b816020850160208301376000918101602001919091529392505050565b600060208284031215613b6f57600080fd5b81356001600160401b03811115613b8557600080fd5b612f0f84828501613b07565b60008060408385031215613ba457600080fd5b8235613baf81613959565b946020939093013593505050565b600080600080600060808688031215613bd557600080fd5b8535613be081613959565b9450602086013593506040860135613bf781613959565b925060608601356001600160401b03811115613c1257600080fd5b613c1e88828901613911565b969995985093965092949392505050565b6000806000806000806000806000806101408b8d031215613c4f57600080fd5b505088359a60208a01359a5060408a013599606081013599506080810135985060a0810135975060c0810135965060e081013595506101008101359450610120013592509050565b805182526020810151602083015260408101516040830152606081015160608301526080810151608083015260a081015160a083015260c081015160c083015260e081015160e08301525050565b60006101c082019050888252876020830152866040830152856060830152841515608083015283151560a0830152612cbb60c0830184613c97565b600080600060608486031215613d3557600080fd5b8335613d4081613959565b92506020840135613d5081613959565b929592945050506040919091013590565b60008060008060608587031215613d7757600080fd5b843593506020850135613d8981613959565b925060408501356001600160401b03811115613da457600080fd5b613db087828801613911565b95989497509550505050565b60008060408385031215613dcf57600080fd5b50508035926020909101359150565b8015158114612d3d57600080fd5b600080600060608486031215613e0157600080fd5b83359250602084013591506040840135613e1a81613dde565b809150509250925092565b60008060408385031215613e3857600080fd5b823591506020830135613e4a81613959565b809150509250929050565b600060208284031215613e6757600080fd5b8135612e0881613959565b60008060408385031215613e8557600080fd5b823591506020830135613e4a81613dde565b60008060208385031215613eaa57600080fd5b82356001600160401b0380821115613ec157600080fd5b818501915085601f830112613ed557600080fd5b813581811115613ee457600080fd5b8660208260081b8501011115613ef957600080fd5b60209290920196919550909350505050565b600060208284031215613f1d57600080fd5b81356001600160401b0380821115613f3457600080fd5b9083019060808286031215613f4857600080fd5b613f50613a88565b823582811115613f5f57600080fd5b613f6b87828601613b07565b825250602083013582811115613f8057600080fd5b613f8c87828601613b07565b602083015250604083013582811115613fa457600080fd5b613fb087828601613b07565b604083015250606083013582811115613fc857600080fd5b613fd487828601613b07565b60608301525095945050505050565b6101008101610ea08284613c97565b6000806040838503121561400557600080fd5b823561401081613959565b91506020830135613e4a81613dde565b6000806000806080858703121561403657600080fd5b84356001600160401b038082111561404d57600080fd5b61405988838901613b07565b9550602087013591508082111561406f57600080fd5b61407b88838901613b07565b9450604087013591508082111561409157600080fd5b61409d88838901613b07565b935060608701359150808211156140b357600080fd5b506140c087828801613b07565b91505092959194509250565b6000806000806000608086880312156140e457600080fd5b85356140ef81613959565b945060208601356140ff81613959565b93506040860135925060608601356001600160401b03811115613c1257600080fd5b60208082526028908201527f4e6f7420656e6f75676820657468657220746f2070726f706f73652061206e656040820152671dc8159a5cdd585b60c21b606082015260800190565b81835281816020850137506000828201602090810191909152601f909101601f19169091010190565b8481526060602082015260006141ac606083018587614169565b905060018060a01b038316604083015295945050505050565b6000602082840312156141d757600080fd5b5051919050565b9687526001600160a01b0395909516602087015260408601939093529015156060850152608084015260a083015260c082015260e00190565b858152608060208201526000614231608083018688614169565b6001600160a01b03948516604084015292909316606090910152949350505050565b600181811c9082168061426757607f821691505b60208210810361428757634e487b7160e01b600052602260045260246000fd5b50919050565b601f82111561147157600081815260208120601f850160051c810160208610156142b45750805b601f850160051c820191505b8181101561142e578281556001016142c0565b81516001600160401b038111156142ec576142ec613a72565b614300816142fa8454614253565b8461428d565b602080601f831160018114614335576000841561431d5750858301515b600019600386901b1c1916600185901b17855561142e565b600085815260208120601f198616915b8281101561436457888601518255948401946001909101908401614345565b50858210156143825787850151600019600388901b60f8161c191681555b5050505050600190811b01905550565b634e487b7160e01b600052601160045260246000fd5b81810381811115610ea057610ea0614392565b7f7b2274726169745f74797065223a22416d696e616c204944222c2276616c7565815261111d60f11b6020820152600082516143fe816022850160208701613a0f565b607d60f81b6022939091019283015250602301919050565b60018060a01b0385168152836020820152606060408201526000611e86606083018486614169565b60006020828403121561445057600080fd5b815160028110612e0857600080fd5b60006020828403121561447157600080fd5b8151612e0881613dde565b60006020828403121561448e57600080fd5b81516001600160401b038111156144a457600080fd5b8201601f810184136144b557600080fd5b80516144c3613b2682613ae0565b8181528560208385010111156144d857600080fd5b6144e9826020830160208601613a0f565b95945050505050565b60006020828403121561450457600080fd5b8151612e0881613959565b634e487b7160e01b600052602160045260246000fd5b67416d696e616c202360c01b815260008251614548816008850160208701613a0f565b9190910160080192915050565b7f646174613a696d6167652f7376672b786d6c3b6261736536342c00000000000081526000825161458d81601a850160208701613a0f565b91909101601a0192915050565b634e487b7160e01b600052603260045260246000fd5b6000600182016145c2576145c2614392565b5060010190565b683d913730b6b2911d1160b91b815284516000906145ee816009850160208a01613a0f565b71111610113232b9b1b934b83a34b7b7111d1160711b600991840191820152855161462081601b840160208a01613a0f565b6c1116101134b6b0b3b2911d101160991b601b9290910191820152845161464e816028840160208901613a0f565b71222c202261747472696275746573223a205b60701b60289290910191820152835161468181603a840160208801613a0f565b615d7d60f01b603a9290910191820152603c019695505050505050565b7f646174613a6170706c69636174696f6e2f6a736f6e3b6261736536342c0000008152600082516146d681601d850160208701613a0f565b91909101601d0192915050565b634e487b7160e01b600052601260045260246000fd5b600082614708576147086146e3565b500490565b60006001600160801b0380841680614727576147276146e3565b92169190910492915050565b60006001600160801b0380831681810361474f5761474f614392565b6001019392505050565b6001600160801b038181168382160280821691908281146121f6576121f6614392565b60008261478b5761478b6146e3565b500690565b80820180821115610ea057610ea0614392565b6040815260006147b66040830185613a33565b90508260208301529392505050565b6080815260006147d86080830187613a33565b6001600160a01b038616602084015282810360408401526147f98186613a33565b915050821515606083015295945050505050565b6000835160206148208285838901613a0f565b81840191506000855461483281614253565b6001828116801561484a576001811461485f5761488b565b60ff198416875282151583028701945061488b565b896000528560002060005b848110156148835781548982015290830190870161486a565b505082870194505b50929998505050505050505050565b600082516148ac818460208701613a0f565b7f3c672069643d22736861646f77223e3c656c6c697073652066696c6c3d2223339201918252507f633364353522206f7061636974793d22302e3522202063783d2235303522206360208201527f793d22393731222072783d22313633222072793d223132222f3e3c2f673e00006040820152605e01919050565b60008251614939818460208701613a0f565b651e17b9bb339f60d11b920191825250600601919050565b8082028115828204841417610ea057610ea0614392565b60808152600061497b6080830187613a33565b85602084015282810360408401526149938186613a33565b9150508260608301529594505050505056fe43616c6c20536b696c6c20707562696c632066756e6374696f6e202841424f555420544f2053515545454b2920666f722063616c6c696e6720557365536b696c6c2065787465726e616c6c792077697468206d73672e76616c7565203d3d2043616c6c20536b696c6c20496e7465726e616c202861626f757420746f2073717565616b2920616d6f756e74203d3d3d204142434445464748494a4b4c4d4e4f505152535455565758595a6162636465666768696a6b6c6d6e6f707172737475767778797a303132333435363738392b2f3c73766720786d6c6e733d22687474703a2f2f7777772e77332e6f72672f323030302f73766722207072657365727665417370656374526174696f3d22784d696e594d696e206d656574222076696577426f783d2230203020313030302031303030223ea2646970667358221220d98b56b96aa6b4a6c6cb9155f653b8b109a9b197c94fb75c5df71498c262abd164736f6c63430008140033",
    "linkReferences": {}
  },
  "methodIdentifiers": {
    "_vote(uint256,uint256,bool)": "4ba7d0d5",
    "addArm(string)": "576b87a7",
    "addBackground(string)": "5e70664c",
    "addBody(string)": "c78e87d5",
    "addEar(string)": "2f2f967b",
    "addFace(string)": "73a645a1",
    "addMisc(string)": "055010ba",
    "addMouth(string)": "99b29914",
    "addTail(string)": "42320aa1",
    "aminals(uint256)": "1c557073",
    "approve(address,uint256)": "095ea7b3",
    "arms(uint256)": "16ce9c6d",
    "backgrounds(uint256)": "04bde4dd",
    "balanceOf(address)": "70a08231",
    "bodies(uint256)": "44cee73c",
    "breedWith(uint256,uint256)": "7004fb84",
    "callSkill(uint256,address,bytes)": "248aeab1",
    "callSkillInternal(address,uint256,address,bytes)": "1994f00b",
    "constructTokenURI((string,string,string,string))": "92b4c81b",
    "dataURI(uint256)": "5ac1e3bb",
    "disableBreedable(uint256,uint256)": "932b4c5f",
    "ears(uint256)": "b8e19635",
    "faces(uint256)": "da7de207",
    "feed(uint256)": "f59dfdfb",
    "generateAttributesList(uint256)": "07c3c948",
    "genericDataURI(string,string,string,string)": "b7d168e6",
    "getAminalLoveByIdByUser(uint256,address)": "4c82f4b4",
    "getAminalLoveTotal(uint256)": "79f372f6",
    "getAminalVisualsByID(uint256)": "938a3458",
    "getEnergy(uint256)": "7e0358a6",
    "getVisuals(uint256,uint256)": "e11873b4",
    "lastAminalId()": "4d37b693",
    "loveDrivenPrice(uint256,address)": "ed19c6ce",
    "miscs(uint256)": "d829b56e",
    "mouths(uint256)": "90f1d5dc",
    "name()": "06fdde03",
    "owner()": "8da5cb5b",
    "ownerOf(uint256)": "6352211e",
    "proposals()": "55ef20e6",
    "proposeAddSkill(uint256,string,address)": "01ce4776",
    "proposeRemoveSkill(uint256,string,address)": "1540d37a",
    "removeSkill(address,uint256)": "f3a7a540",
    "renounceOwnership()": "715018a6",
    "safeTransferFrom(address,address,uint256)": "42842e0e",
    "safeTransferFrom(address,address,uint256,bytes)": "b88d4fde",
    "setApprovalForAll(address,bool)": "a22cb465",
    "setBreeding(uint256,bool)": "711379f8",
    "skills(address)": "4f0f3c09",
    "spawnAminal(uint256,uint256,uint256,uint256,uint256,uint256,uint256,uint256,uint256,uint256)": "19a571c9",
    "spawnInitialAminals((uint256,uint256,uint256,uint256,uint256,uint256,uint256,uint256)[])": "8d549a25",
    "squeak(uint256,uint256)": "49e25e00",
    "supportsInterface(bytes4)": "01ffc9a7",
    "symbol()": "95d89b41",
    "tails(uint256)": "71cde580",
    "tokenURI(uint256)": "c87b56dd",
    "transferFrom(address,address,uint256)": "23b872dd",
    "transferOwnership(address)": "f2fde38b",
    "visualsAuction()": "e38294df",
    "voteSkill(uint256,uint256,bool)": "7905c044"
  },
  "id": 32
}