{
  "abi": [
    {
      "inputs": [
        {
          "internalType": "address",
          "name": "_generatornessSourceContract",
          "type": "address"
        },
        {
          "internalType": "address",
          "name": "_generatornessSourceBalance",
          "type": "address"
        }
      ],
      "stateMutability": "nonpayable",
      "type": "constructor"
    },
    {
      "anonymous": false,
      "inputs": [
        {
          "indexed": true,
          "internalType": "uint256",
          "name": "auctionId",
          "type": "uint256"
        },
        {
          "indexed": false,
          "internalType": "uint256",
          "name": "aminalIdOne",
          "type": "uint256"
        },
        {
          "indexed": false,
          "internalType": "uint256",
          "name": "aminalIdTwo",
          "type": "uint256"
        },
        {
          "indexed": false,
          "internalType": "uint256",
          "name": "childAminalId",
          "type": "uint256"
        },
        {
          "indexed": false,
          "internalType": "uint256[8]",
          "name": "winningIds",
          "type": "uint256[8]"
        }
      ],
      "name": "EndAuction",
      "type": "event"
    },
    {
      "anonymous": false,
      "inputs": [
        {
          "indexed": false,
          "internalType": "uint8",
          "name": "version",
          "type": "uint8"
        }
      ],
      "name": "Initialized",
      "type": "event"
    },
    {
      "anonymous": false,
      "inputs": [
        {
          "indexed": true,
          "internalType": "address",
          "name": "previousOwner",
          "type": "address"
        },
        {
          "indexed": true,
          "internalType": "address",
          "name": "newOwner",
          "type": "address"
        }
      ],
      "name": "OwnershipTransferred",
      "type": "event"
    },
    {
      "anonymous": false,
      "inputs": [
        {
          "indexed": true,
          "internalType": "uint256",
          "name": "auctionId",
          "type": "uint256"
        },
        {
          "indexed": false,
          "internalType": "address",
          "name": "sender",
          "type": "address"
        },
        {
          "indexed": false,
          "internalType": "uint256",
          "name": "visualId",
          "type": "uint256"
        },
        {
          "indexed": false,
          "internalType": "enum VisualsAuction.VisualsCat",
          "name": "catEnum",
          "type": "uint8"
        }
      ],
      "name": "ProposeVisual",
      "type": "event"
    },
    {
      "anonymous": false,
      "inputs": [
        {
          "indexed": true,
          "internalType": "uint256",
          "name": "auctionId",
          "type": "uint256"
        },
        {
          "indexed": false,
          "internalType": "address",
          "name": "sender",
          "type": "address"
        },
        {
          "indexed": false,
          "internalType": "uint256",
          "name": "visualId",
          "type": "uint256"
        },
        {
          "indexed": false,
          "internalType": "enum VisualsAuction.VisualsCat",
          "name": "catEnum",
          "type": "uint8"
        }
      ],
      "name": "RemoveVisual",
      "type": "event"
    },
    {
      "anonymous": false,
      "inputs": [
        {
          "indexed": true,
          "internalType": "uint256",
          "name": "auctionId",
          "type": "uint256"
        },
        {
          "indexed": false,
          "internalType": "uint256",
          "name": "visualId",
          "type": "uint256"
        },
        {
          "indexed": false,
          "internalType": "address",
          "name": "sender",
          "type": "address"
        },
        {
          "indexed": false,
          "internalType": "enum VisualsAuction.VisualsCat",
          "name": "catEnum",
          "type": "uint8"
        },
        {
          "indexed": false,
          "internalType": "uint256",
          "name": "userLoveVote",
          "type": "uint256"
        },
        {
          "indexed": false,
          "internalType": "uint256",
          "name": "totalLove",
          "type": "uint256"
        }
      ],
      "name": "RemoveVisualVote",
      "type": "event"
    },
    {
      "anonymous": false,
      "inputs": [
        {
          "indexed": true,
          "internalType": "uint256",
          "name": "auctionId",
          "type": "uint256"
        },
        {
          "indexed": true,
          "internalType": "uint256",
          "name": "aminalIdOne",
          "type": "uint256"
        },
        {
          "indexed": true,
          "internalType": "uint256",
          "name": "aminalIdTwo",
          "type": "uint256"
        },
        {
          "indexed": false,
          "internalType": "uint256",
          "name": "totalLove",
          "type": "uint256"
        },
        {
          "indexed": false,
          "internalType": "uint256[8][10]",
          "name": "visualIds",
          "type": "uint256[8][10]"
        }
      ],
      "name": "StartAuction",
      "type": "event"
    },
    {
      "anonymous": false,
      "inputs": [
        {
          "indexed": true,
          "internalType": "uint256",
          "name": "auctionId",
          "type": "uint256"
        },
        {
          "indexed": false,
          "internalType": "uint256",
          "name": "visualId",
          "type": "uint256"
        },
        {
          "indexed": false,
          "internalType": "address",
          "name": "sender",
          "type": "address"
        },
        {
          "indexed": false,
          "internalType": "enum VisualsAuction.VisualsCat",
          "name": "catEnum",
          "type": "uint8"
        },
        {
          "indexed": false,
          "internalType": "uint256",
          "name": "userLoveVote",
          "type": "uint256"
        },
        {
          "indexed": false,
          "internalType": "uint256",
          "name": "totalLove",
          "type": "uint256"
        }
      ],
      "name": "VisualsVote",
      "type": "event"
    },
    {
      "inputs": [],
      "name": "GENERATOR_SOURCE_BALANCE",
      "outputs": [
        {
          "internalType": "address",
          "name": "",
          "type": "address"
        }
      ],
      "stateMutability": "view",
      "type": "function"
    },
    {
      "inputs": [],
      "name": "GENERATOR_SOURCE_CONTRACT",
      "outputs": [
        {
          "internalType": "address",
          "name": "",
          "type": "address"
        }
      ],
      "stateMutability": "view",
      "type": "function"
    },
    {
      "inputs": [],
      "name": "aminals",
      "outputs": [
        {
          "internalType": "contract Aminals",
          "name": "",
          "type": "address"
        }
      ],
      "stateMutability": "view",
      "type": "function"
    },
    {
      "inputs": [],
      "name": "auctionCnt",
      "outputs": [
        {
          "internalType": "uint256",
          "name": "",
          "type": "uint256"
        }
      ],
      "stateMutability": "view",
      "type": "function"
    },
    {
      "inputs": [
        {
          "internalType": "uint256",
          "name": "auctionId",
          "type": "uint256"
        }
      ],
      "name": "auctions",
      "outputs": [
        {
          "internalType": "uint256",
          "name": "aminalIdOne",
          "type": "uint256"
        },
        {
          "internalType": "uint256",
          "name": "aminalIdTwo",
          "type": "uint256"
        },
        {
          "internalType": "uint256",
          "name": "totalLove",
          "type": "uint256"
        },
        {
          "internalType": "uint256",
          "name": "childAminalId",
          "type": "uint256"
        },
        {
          "internalType": "bool",
          "name": "ended",
          "type": "bool"
        }
      ],
      "stateMutability": "view",
      "type": "function"
    },
    {
      "inputs": [
        {
          "internalType": "uint256",
          "name": "auctionId",
          "type": "uint256"
        }
      ],
      "name": "endAuction",
      "outputs": [],
      "stateMutability": "nonpayable",
      "type": "function"
    },
    {
      "inputs": [
        {
          "internalType": "uint256",
          "name": "auctionID",
          "type": "uint256"
        }
      ],
      "name": "getAuctionByID",
      "outputs": [
        {
          "components": [
            {
              "internalType": "uint256",
              "name": "aminalIdOne",
              "type": "uint256"
            },
            {
              "internalType": "uint256",
              "name": "aminalIdTwo",
              "type": "uint256"
            },
            {
              "internalType": "uint256",
              "name": "totalLove",
              "type": "uint256"
            },
            {
              "internalType": "uint256[8][10]",
              "name": "visualIds",
              "type": "uint256[8][10]"
            },
            {
              "internalType": "uint256[8][10]",
              "name": "visualIdVotes",
              "type": "uint256[8][10]"
            },
            {
              "internalType": "uint256[8][10]",
              "name": "visualNoVotes",
              "type": "uint256[8][10]"
            },
            {
              "internalType": "uint256",
              "name": "childAminalId",
              "type": "uint256"
            },
            {
              "internalType": "uint256[8]",
              "name": "winnerId",
              "type": "uint256[8]"
            },
            {
              "internalType": "bool",
              "name": "ended",
              "type": "bool"
            }
          ],
          "internalType": "struct VisualsAuction.Auction",
          "name": "",
          "type": "tuple"
        }
      ],
      "stateMutability": "view",
      "type": "function"
    },
    {
      "inputs": [],
      "name": "owner",
      "outputs": [
        {
          "internalType": "address",
          "name": "",
          "type": "address"
        }
      ],
      "stateMutability": "view",
      "type": "function"
    },
    {
      "inputs": [
        {
          "internalType": "uint256",
          "name": "auctionId",
          "type": "uint256"
        },
        {
          "internalType": "enum VisualsAuction.VisualsCat",
          "name": "catEnum",
          "type": "uint8"
        },
        {
          "internalType": "uint256",
          "name": "visualId",
          "type": "uint256"
        }
      ],
      "name": "proposeVisual",
      "outputs": [],
      "stateMutability": "payable",
      "type": "function"
    },
    {
      "inputs": [
        {
          "internalType": "uint256",
          "name": "auctionId",
          "type": "uint256"
        },
        {
          "internalType": "enum VisualsAuction.VisualsCat",
          "name": "catEnum",
          "type": "uint8"
        },
        {
          "internalType": "uint256",
          "name": "visualId",
          "type": "uint256"
        }
      ],
      "name": "removeVisual",
      "outputs": [],
      "stateMutability": "payable",
      "type": "function"
    },
    {
      "inputs": [],
      "name": "renounceOwnership",
      "outputs": [],
      "stateMutability": "nonpayable",
      "type": "function"
    },
    {
      "inputs": [
        {
          "internalType": "address",
          "name": "_aminals",
          "type": "address"
        }
      ],
      "name": "setup",
      "outputs": [],
      "stateMutability": "nonpayable",
      "type": "function"
    },
    {
      "inputs": [
        {
          "internalType": "uint256",
          "name": "aminalIdOne",
          "type": "uint256"
        },
        {
          "internalType": "uint256",
          "name": "aminalIdTwo",
          "type": "uint256"
        }
      ],
      "name": "startAuction",
      "outputs": [
        {
          "internalType": "uint256",
          "name": "",
          "type": "uint256"
        }
      ],
      "stateMutability": "nonpayable",
      "type": "function"
    },
    {
      "inputs": [
        {
          "internalType": "address",
          "name": "newOwner",
          "type": "address"
        }
      ],
      "name": "transferOwnership",
      "outputs": [],
      "stateMutability": "nonpayable",
      "type": "function"
    },
    {
      "inputs": [
        {
          "internalType": "uint256",
          "name": "auctionId",
          "type": "uint256"
        },
        {
          "internalType": "enum VisualsAuction.VisualsCat",
          "name": "catEnum",
          "type": "uint8"
        },
        {
          "internalType": "uint256",
          "name": "visualId",
          "type": "uint256"
        }
      ],
      "name": "voteVisual",
      "outputs": [],
      "stateMutability": "payable",
      "type": "function"
    }
  ],
  "bytecode": {
    "object": "0x60c060405260026003553480156200001657600080fd5b5060405162002f0d38038062002f0d833981016040819052620000399162000192565b62000044336200011a565b6001600160a01b038216620000aa5760405162461bcd60e51b815260206004820152602160248201527f496e76616c69642067656e657261746f7220736f7572636520636f6e747261636044820152601d60fa1b60648201526084015b60405180910390fd5b6001600160a01b038116620001025760405162461bcd60e51b815260206004820181905260248201527f496e76616c69642067656e657261746f7220736f757263652062616c616e63656044820152606401620000a1565b6001600160a01b039182166080521660a052620001ca565b600080546001600160a01b038381166201000081810262010000600160b01b0319851617855560405193049190911692909183917f8be0079c531659141344cd1fd0a4f28419497f9722a3daafe3b4186f6b6457e091a35050565b80516001600160a01b03811681146200018d57600080fd5b919050565b60008060408385031215620001a657600080fd5b620001b18362000175565b9150620001c16020840162000175565b90509250929050565b60805160a051612d0f620001fe600039600081816102a1015261237a01526000818161026d01526123a50152612d0f6000f3fe6080604052600436106100e75760003560e01c8063715018a61161008a578063916b081911610059578063916b0819146102e7578063a569155f146102fa578063b9a2de3a1461030d578063f2fde38b1461032d57600080fd5b8063715018a6146102465780637365841f1461025b578063850a19ec1461028f5780638da5cb5b146102c357600080fd5b8063571a26a0116100c6578063571a26a01461016d57806366d38203146101e45780636cb893b0146102065780636e3089b51461023357600080fd5b8062be2358146100ec5780634fc465d8146101155780634fee13fc1461014d575b600080fd5b3480156100f857600080fd5b5061010260035481565b6040519081526020015b60405180910390f35b34801561012157600080fd5b50600154610135906001600160a01b031681565b6040516001600160a01b03909116815260200161010c565b34801561015957600080fd5b50610102610168366004612680565b61034d565b34801561017957600080fd5b506101ba6101883660046126a2565b6002602081905260009182526040909120805460018201549282015460f383015460fc90930154919392909160ff1685565b6040805195865260208601949094529284019190915260608301521515608082015260a00161010c565b3480156101f057600080fd5b506102046101ff3660046126bb565b6108f6565b005b34801561021257600080fd5b506102266102213660046126a2565b610a28565b60405161010c919061273d565b6102046102413660046127cd565b610bfe565b34801561025257600080fd5b50610204610fc5565b34801561026757600080fd5b506101357f000000000000000000000000000000000000000000000000000000000000000081565b34801561029b57600080fd5b506101357f000000000000000000000000000000000000000000000000000000000000000081565b3480156102cf57600080fd5b506000546201000090046001600160a01b0316610135565b6102046102f53660046127cd565b610fd9565b6102046103083660046127cd565b6116f2565b34801561031957600080fd5b506102046103283660046126a2565b6119c6565b34801561033957600080fd5b506102046103483660046126bb565b6120fb565b6001546000906001600160a01b0316331461036757600080fd5b61036f6124c1565b6103776124c1565b6103b8604051806060016040528060228152602001612c9160229139866040518060400160405280600581526020016401030b732160dd1b81525087612174565b600154604051631c55707360e01b8152600481018790526001600160a01b0390911690631c557073906024016101c060405180830381865afa158015610402573d6000803e3d6000fd5b505050506040513d601f19601f82011682018060405250810190610426919061281e565b600154604051631c55707360e01b81529199506001600160a01b03169650631c557073955061045f94508a935060040191506126779050565b6101c060405180830381865afa15801561047d573d6000803e3d6000fd5b505050506040513d601f19601f820116820180604052508101906104a1919061281e565b60015460405163932b4c5f60e01b8152600481018e9052602481018d90529198506001600160a01b0316965063932b4c5f955060440193506104e292505050565b600060405180830381600087803b1580156104fc57600080fd5b505af1158015610510573d6000803e3d6000fd5b505060018054604051630e226f3f60e31b8152600481018a905260248101929092526001600160a01b0316925063711379f89150604401600060405180830381600087803b15801561056157600080fd5b505af1158015610575573d6000803e3d6000fd5b505060018054604051630e226f3f60e31b81526004810189905260248101929092526001600160a01b0316925063711379f89150604401600060405180830381600087803b1580156105c657600080fd5b505af11580156105da573d6000803e3d6000fd5b5050600380546001908101918290556000918252600260205260409182902089815580820189905590549151633cf9b97b60e11b8152600481018990529093506001600160a01b0390911691506379f372f690602401602060405180830381865afa15801561064d573d6000803e3d6000fd5b505050506040513d601f19601f82011682018060405250810190610671919061291d565b600154604051633cf9b97b60e11b8152600481018990526001600160a01b03909116906379f372f690602401602060405180830381865afa1580156106ba573d6000803e3d6000fd5b505050506040513d601f19601f820116820180604052508101906106de919061291d565b6106e8919061294c565b60028083019182556003805460f385018190556000908152602083905260409020845481556001808601549082015592549183019190915582919061073490828101908401600a612506565b506107476053828101908401600a612506565b5061075a60a3828101908401600a612506565b5060f3828101549082015561077760f4808301908401600861254e565b5060fc918201549101805460ff191660ff909216151591909117905582516003828101919091558251600b830155602080850151600484015580840151600c840155604080860151600585015580850151600d8501556060808701516006860155850151600e808601919091556080808801516007870155860151600f86015560a0808801516008870155860151601086015560c0808801516009870155860151601186015560e080880151600a8701558601516012860155815180830190925281526d41756374696f6e20636e74203d3d60901b91810191909152905461085f91906121c3565b60408051808201909152601381527202b34b9bab0b624b239ad982d982eae901e9e9606d1b60208201526108a2906003830160005b6008020160005b01546121c3565b84866003547f2644f58116defc538b05e473f602cd21acfb81bb0e4c8ab8c46d4f5c72b154088460020154856003016040516108df929190612998565b60405180910390a460035493505050505b92915050565b600054610100900460ff16158080156109165750600054600160ff909116105b806109305750303b158015610930575060005460ff166001145b6109985760405162461bcd60e51b815260206004820152602e60248201527f496e697469616c697a61626c653a20636f6e747261637420697320616c72656160448201526d191e481a5b9a5d1a585b1a5e995960921b60648201526084015b60405180910390fd5b6000805460ff1916600117905580156109bb576000805461ff0019166101001790555b6109c3612208565b600180546001600160a01b0319166001600160a01b0384161790558015610a24576000805461ff0019169055604051600181527f7f26b83ff96e1f2b6a682f133852f6798a09c465da95921460cefb38474024989060200160405180910390a15b5050565b610a30612585565b60008281526002602081815260408084208151610120810183528154815260018201549381019390935292830154828201528051610140810190915290926060840191906003840190600a90835b82821015610ac6576040805161010081019182905290600884810287019182845b815481526020019060010190808311610a9f57505050505081526020019060010190610a7e565b5050509082525060408051610140810190915260209091019060538301600a6000835b82821015610b31576040805161010081019182905290600884810287019182845b815481526020019060010190808311610b0a57505050505081526020019060010190610ae9565b5050509082525060408051610140810190915260209091019060a38301600a6000835b82821015610b9c576040805161010081019182905290600884810287019182845b815481526020019060010190808311610b7557505050505081526020019060010190610b54565b5050509082525060f38201546020820152604080516101008101825291019060f4830160088282826020028201915b815481526020019060010190808311610bcb57505050918352505060fc919091015460ff16151560209091015292915050565b600083815260026020526040902060fc81015484919060ff1615610c2157600080fd5b6000846007811115610c3557610c356129dc565b60008781526002602052604080822060015481549251631320bd2d60e21b81526004810193909352336024840152939450926001600160a01b031690634c82f4b490604401602060405180830381865afa158015610c97573d6000803e3d6000fd5b505050506040513d601f19601f82011682018060405250810190610cbb919061291d565b6001805490840154604051631320bd2d60e21b815260048101919091523360248201529192506000916001600160a01b0390911690634c82f4b490604401602060405180830381865afa158015610d16573d6000803e3d6000fd5b505050506040513d601f19601f82011682018060405250810190610d3a919061291d565b610d44908361294c565b3360009081526004602090815260408083208d8452909152902090915081908560088110610d7457610d7461295f565b015410610dd85760405162461bcd60e51b815260206004820152602c60248201527f416c726561647920636f6e73756d656420616c6c206f6620796f7572206c6f7660448201526b65207769746820766f74657360a01b606482015260840161098f565b610e1c6040518060600160405280602f8152602001612c62602f9139856040518060400160405280600881526020016701017901034a21d160c51b8152508a612174565b600a60005b600a811015610e7657888560030182600a8110610e4057610e4061295f565b600802018760088110610e5557610e5561295f565b015403610e6457809150610e76565b80610e6e816129f2565b915050610e21565b50610e99604051806060016040528060388152602001612c2a60389139826121c3565b600a8110610f085760405162461bcd60e51b815260206004820152603660248201527f43616e6e6f7420766f7465206f6e20612074726169742074686174206973206e60448201527537ba103830b93a1037b3103a34329030bab1ba34b7b760511b606482015260840161098f565b818460530182600a8110610f1e57610f1e61295f565b600802018660088110610f3357610f3361295f565b016000828254610f43919061294c565b90915550503360009081526004602090815260408083208d8452909152902082908660088110610f7557610f7561295f565b01556040518a907fc672d892286f99d71da16a5cd7424a2b2b0cb8f62873f850526c588ea235eb2c90610fb1908b9033908e9089908990612a2d565b60405180910390a250505050505050505050565b610fcd612208565b610fd76000612269565b565b600083815260026020526040902060fc81015484919060ff1615610ffc57600080fd5b6000846007811115611010576110106129dc565b60008781526002602052604080822060015481549251631320bd2d60e21b81526004810193909352336024840152939450926001600160a01b031690634c82f4b490604401602060405180830381865afa158015611072573d6000803e3d6000fd5b505050506040513d601f19601f82011682018060405250810190611096919061291d565b6001805490840154604051631320bd2d60e21b815260048101919091523360248201529192506000916001600160a01b0390911690634c82f4b490604401602060405180830381865afa1580156110f1573d6000803e3d6000fd5b505050506040513d601f19601f82011682018060405250810190611115919061291d565b61111f908361294c565b90506000811161118a5760405162461bcd60e51b815260206004820152603060248201527f596f75206e656564206c6f766520746f2072656d6f766520612074726169742060448201526f333937b6903a34329030bab1ba34b7b760811b606482015260840161098f565b808360a30188600a81106111a0576111a061295f565b6008020185600881106111b5576111b561295f565b0160008282546111c5919061294c565b925050819055506112306040518060400160405280601581526020017403a37ba30b63637bb32903832b9103ab9b2b9101e9605d1b8152508260405180604001604052806013815260200172010333937b69036b9b39739b2b73232b9101e9606d1b815250336122c4565b6112b8604051806060016040528060278152602001612cb3602791398460a30189600a81106112615761126161295f565b6008020186600881106112765761127661295f565b01546040518060400160405280601181526020017001030b732103a37ba30b63637bb32901e9607d1b815250600387600201546112b39190612a79565b612174565b887f8efa9d074ecfe0058fdf7fa50810cb80686e9b93f7b880bec905e4d3f19de66c88338b86866040516112f0959493929190612a2d565b60405180910390a2600383600201546113099190612a79565b8360a30188600a811061131e5761131e61295f565b6008020185600881106113335761133361295f565b015411156116e757600060025b600a81101561139557888560030182600a811061135f5761135f61295f565b6008020187600881106113745761137461295f565b01540361138357809150611395565b8061138d816129f2565b915050611340565b506113c96040518060400160405280601181526020017002922a6a7ab20a61717171717171717171607d1b815250826121c3565b8060000361143f5760405162461bcd60e51b815260206004820152603a60248201527f54686520747261697420746f2062652072656d6f76656420646f6573206e6f7460448201527f20657869737420696e207468652061756374696f6e206c697374000000000000606482015260840161098f565b805b60098110801561147b57508460030181600a81106114615761146161295f565b6008020186600881106114765761147661295f565b015415155b156115e6576003850161148f82600161294c565b600a811061149f5761149f61295f565b6008020186600881106114b4576114b461295f565b01548560030182600a81106114cb576114cb61295f565b6008020187600881106114e0576114e061295f565b0155605385016114f182600161294c565b600a81106115015761150161295f565b6008020186600881106115165761151661295f565b01548560530182600a811061152d5761152d61295f565b6008020187600881106115425761154261295f565b015560a3850161155382600161294c565b600a81106115635761156361295f565b6008020186600881106115785761157861295f565b01548560a30182600a811061158f5761158f61295f565b6008020187600881106115a4576115a461295f565b015560408051808201909152600d81526c031bab93932b73a1035101e9e9609d1b60208201526115d490826121c3565b806115de816129f2565b915050611441565b61161c60405180604001604052806014815260200173039ba37b8103932b6b7bb30b61030ba10171717160651b815250826121c3565b60008560030182600a81106116335761163361295f565b6008020187600881106116485761164861295f565b015560006053860182600a81106116615761166161295f565b6008020187600881106116765761167661295f565b0155600060a3860182600a811061168f5761168f61295f565b6008020187600881106116a4576116a461295f565b01556040518b907fafff9997e70bc5415185db75e46db75492381b7c6fc26fb37bbb8b36ca415cdb906116dc9033908d908f90612a8d565b60405180910390a250505b505050505050505050565b600083815260026020526040902060fc81015484919060ff161561171557600080fd5b6000846007811115611729576117296129dc565b6000878152600260205260408082206001548154925163768ce36760e11b81526004810193909352336024840152939450926001600160a01b03169063ed19c6ce90604401602060405180830381865afa15801561178b573d6000803e3d6000fd5b505050506040513d601f19601f820116820180604052508101906117af9190612ab9565b600180549084015460405163768ce36760e11b815260048101919091523360248201526001600160801b039290921692506000916001600160a01b039091169063ed19c6ce90604401602060405180830381865afa158015611815573d6000803e3d6000fd5b505050506040513d601f19601f820116820180604052508101906118399190612ab9565b6001600160801b031690506000611850828461294c565b9050803410156118b35760405162461bcd60e51b815260206004820152602860248201527f4e6f7420656e6f75676820657468657220746f2070726f706f73652061206e656044820152671dc8159a5cdd585b60c21b606482015260840161098f565b60025b600a81116119915780600a0361191a5760405162461bcd60e51b8152602060048201526024808201527f4d617820382070726f706f73616c7320616c6c6f776564207065722063617465604482015263676f727960e01b606482015260840161098f565b8460030181600a811061192f5761192f61295f565b6008020186600881106119445761194461295f565b015460000361197f57888560030182600a81106119635761196361295f565b6008020187600881106119785761197861295f565b0155611991565b80611989816129f2565b9150506118b6565b50897f3a07e73154fa0a7a9d25de305a51adc0616680f32be3449869c24ab3dc699409338a8c604051610fb193929190612a8d565b600081815260026020526040902060fc81015482919060ff16156119e957600080fd5b6000600260008581526020019081526020016000209050611a2f6040518060400160405280600e81526020016d22a72224a7239020aaa1aa24a7a760911b81525061230d565b60006040518061010001604052806000815260200160008152602001600081526020016000815260200160008152602001600081526020016000815260200160008152509050611aa46040518060400160405280600e81526020016d22a72224a7239020aaa1aa24a7a760911b81525061230d565b60408051808201909152601a81527f54657374696e672076697375616c2069645b305b305d5d203d200000000000006020820152611ae790600384016000610894565b60005b6008811015611ef95760005b600a811015611dba5760028110158015611b3957508360030181600a8110611b2057611b2061295f565b600802018260088110611b3557611b3561295f565b0154155b611dba578360530181600a8110611b5257611b5261295f565b600802018260088110611b6757611b6761295f565b015415801590611bb75750828260088110611b8457611b8461295f565b60200201518460530182600a8110611b9e57611b9e61295f565b600802018360088110611bb357611bb361295f565b0154145b15611ca257604080514460208201526bffffffffffffffffffffffff193360601b16918101919091526054810183905260009060740160408051601f198184030181528282528051602091820120838301909252601b83527f5449452c2072616e646f6d6c792063686f6f73652077696e6e65720000000000908301529150611c4a90611c45600284612ae2565b6121c3565b611c55600282612ae2565b600003611ca0578460030182600a8110611c7157611c7161295f565b600802018360088110611c8657611c8661295f565b01548560f4018460088110611c9d57611c9d61295f565b01555b505b8360530181600a8110611cb757611cb761295f565b600802018260088110611ccc57611ccc61295f565b015415801590611d1c5750828260088110611ce957611ce961295f565b60200201518460530182600a8110611d0357611d0361295f565b600802018360088110611d1857611d1861295f565b0154115b15611da8578360530181600a8110611d3657611d3661295f565b600802018260088110611d4b57611d4b61295f565b0154838360088110611d5f57611d5f61295f565b60200201526003840181600a8110611d7957611d7961295f565b600802018260088110611d8e57611d8e61295f565b01548460f4018360088110611da557611da561295f565b01555b80611db2816129f2565b915050611af6565b828260088110611dcc57611dcc61295f565b6020020151600003611ed7576000611de683836001612350565b9050611e136040518060400160405280600981526020016803930b73237b6901e960bd1b815250826121c3565b611e436040518060400160405280600e81526020016d03337b91031b0ba32b3b7b93c9d160951b815250846121c3565b611e926040518060400160405280600981526020016803a3930b4ba101e9e960bd1b8152508660030183600a8110611e7d57611e7d61295f565b60080201856008811061089b5761089b61295f565b8460030181600a8110611ea757611ea761295f565b600802018360088110611ebc57611ebc61295f565b01548560f4018460088110611ed357611ed361295f565b0155505b5060fc8301805460ff1916600117905580611ef1816129f2565b915050611aea565b506001548254604051630e226f3f60e31b81526004810191909152600060248201526001600160a01b039091169063711379f890604401600060405180830381600087803b158015611f4a57600080fd5b505af1158015611f5e573d6000803e3d6000fd5b50506001805490850154604051630e226f3f60e31b81526004810191909152600060248201526001600160a01b03909116925063711379f89150604401600060405180830381600087803b158015611fb557600080fd5b505af1158015611fc9573d6000803e3d6000fd5b50506001805485549186015460f487015460f588015460f689015460f78a015460f88b015460f98c015460fa8d015460fb8e01546040516319a571c960e01b8152600481019b909b5260248b019890985260448a01969096526064890194909452608488019290925260a487015260c486015260e48501526101048401526101248301526001600160a01b031692506319a571c99150610144016020604051808303816000875af1158015612082573d6000803e3d6000fd5b505050506040513d601f19601f820116820180604052508101906120a6919061291d565b50847f790c407ce7a3d5aead3fa6b6f0ca58714842bf23381cd1c98c63a0dcc2d6e36e836000015484600101548560f301548660f4016040516120ec9493929190612af6565b60405180910390a25050505050565b612103612208565b6001600160a01b0381166121685760405162461bcd60e51b815260206004820152602660248201527f4f776e61626c653a206e6577206f776e657220697320746865207a65726f206160448201526564647265737360d01b606482015260840161098f565b61217181612269565b50565b6121bd8484848460405160240161218e9493929190612b5f565b60408051601f198184030181529190526020810180516001600160e01b031663a0c4b22560e01b1790526124a0565b50505050565b610a2482826040516024016121d9929190612b9c565b60408051601f198184030181529190526020810180516001600160e01b03166309710a9d60e41b1790526124a0565b6000546001600160a01b0362010000909104163314610fd75760405162461bcd60e51b815260206004820181905260248201527f4f776e61626c653a2063616c6c6572206973206e6f7420746865206f776e6572604482015260640161098f565b600080546001600160a01b038381166201000081810262010000600160b01b0319851617855560405193049190911692909183917f8be0079c531659141344cd1fd0a4f28419497f9722a3daafe3b4186f6b6457e091a35050565b6121bd848484846040516024016122de9493929190612bbe565b60408051601f198184030181529190526020810180516001600160e01b031663bb7235e960e01b1790526124a0565b612171816040516024016123219190612c03565b60408051601f198184030181529190526020810180516001600160e01b031663104c13eb60e21b1790526124a0565b600080333a864342612363600183612c16565b6040516370a0823160e01b81526001600160a01b037f0000000000000000000000000000000000000000000000000000000000000000811660048301529140917f000000000000000000000000000000000000000000000000000000000000000016906370a0823190602401602060405180830381865afa1580156123ec573d6000803e3d6000fd5b505050506040513d601f19601f82011682018060405250810190612410919061291d565b60405160609790971b6bffffffffffffffffffffffff19166020880152603487019590955260548601939093526074850191909152609484015260b483015260d482015260f40160408051601f198184030181529190528051602090910120915081905061247e8482612ae2565b915061248a838361294c565b9150612497600183612c16565b95945050505050565b80516a636f6e736f6c652e6c6f67602083016000808483855afa5050505050565b60405180610100016040528060008152602001600081526020016000815260200160008152602001600081526020016000815260200160008152602001600081525090565b60508301918390821561253e579160080282015b8281111561253e5761252e8284600861254e565b509160080191906008019061251a565b5061254a9291506125e9565b5090565b8260088101928215612579579182015b8281111561257957825482559160010191906001019061255e565b5061254a929150612606565b6040518061012001604052806000815260200160008152602001600081526020016125ae61261b565b81526020016125bb61261b565b81526020016125c861261b565b8152602001600081526020016125dc612649565b8152600060209091015290565b8082111561254a5760006125fd8282612668565b506008016125e9565b5b8082111561254a5760008155600101612607565b604051806101400160405280600a905b612633612649565b81526020019060019003908161262b5790505090565b6040518061010001604052806008906020820280368337509192915050565b50612171906008810190612606565b90815260200190565b6000806040838503121561269357600080fd5b50508035926020909101359150565b6000602082840312156126b457600080fd5b5035919050565b6000602082840312156126cd57600080fd5b81356001600160a01b03811681146126e457600080fd5b9392505050565b8060005b60088110156121bd5781518452602093840193909101906001016126ef565b8060005b600a8110156121bd576127268483516126eb565b610100939093019260209190910190600101612712565b6000611fa0820190508251825260208301516020830152604083015160408301526060830151612770606084018261270e565b506080830151612784610a6084018261270e565b5060a083015161279861146084018261270e565b5060c0830151611e6083015260e08301516127b7611e808401826126eb565b5061010092909201511515611f80919091015290565b6000806000606084860312156127e257600080fd5b833592506020840135600881106127f857600080fd5b929592945050506040919091013590565b8051801515811461281957600080fd5b919050565b60008060008060008060008789036101c081121561283b57600080fd5b8851975060208901519650604089015195506060890151945061286060808a01612809565b935061286e60a08a01612809565b92506101008060bf198301121561288457600080fd5b604051915080820182811067ffffffffffffffff821117156128b657634e487b7160e01b600052604160045260246000fd5b806040525060c08a0151825260e08a01516020830152808a01516040830152506101208901516060820152610140890151608082015261016089015160a082015261018089015160c08201526101a089015160e08201528091505092959891949750929550565b60006020828403121561292f57600080fd5b5051919050565b634e487b7160e01b600052601160045260246000fd5b808201808211156108f0576108f0612936565b634e487b7160e01b600052603260045260246000fd5b8060005b60088110156121bd578154845260209093019260019182019101612979565b828152610a208101602082018360005b600a8110156129d2576129bb8383612975565b6101009290920191600891909101906001016129a8565b5050509392505050565b634e487b7160e01b600052602160045260246000fd5b600060018201612a0457612a04612936565b5060010190565b60088110612a2957634e487b7160e01b600052602160045260246000fd5b9052565b8581526001600160a01b038516602082015260a08101612a506040830186612a0b565b6060820193909352608001529392505050565b634e487b7160e01b600052601260045260246000fd5b600082612a8857612a88612a63565b500490565b6001600160a01b03841681526020810183905260608101612ab16040830184612a0b565b949350505050565b600060208284031215612acb57600080fd5b81516001600160801b03811681146126e457600080fd5b600082612af157612af1612a63565b500690565b848152602081018490526040810183905261016081016124976060830184612975565b6000815180845260005b81811015612b3f57602081850181015186830182015201612b23565b506000602082860101526020601f19601f83011685010191505092915050565b608081526000612b726080830187612b19565b8560208401528281036040840152612b8a8186612b19565b91505082606083015295945050505050565b604081526000612baf6040830185612b19565b90508260208301529392505050565b608081526000612bd16080830187612b19565b8560208401528281036040840152612be98186612b19565b91505060018060a01b038316606083015295945050505050565b6020815260006126e46020830184612b19565b818103818111156108f0576108f061293656fe2a2a2a2a2a2a2a2a2a2a2a2a2a2a2a2a2a2a2a2a2a2a2a2a2a2a2a2a2a2a2a2a2a2a2a2a2a2a2a2a2a2a2a2a2a2a2a2a2a2a2a204b203d202a2a2a2a2a2a2a2a2a2a206120766f746520686173206265656e20636173746564206f6e2063617465676f72793a2041756374696f6e207374617274696e6720666f7220707265676e616e6379206f6620747279696e6720746f2072656d6f7665207468652076697375616c2077697468206c6f76653a20a2646970667358221220607665183cbdc16761a15845bfcbc6436fe734777159a7a676af37dcf1d4847164736f6c63430008140033",
    "linkReferences": {}
  },
  "methodIdentifiers": {
    "GENERATOR_SOURCE_BALANCE()": "850a19ec",
    "GENERATOR_SOURCE_CONTRACT()": "7365841f",
    "aminals()": "4fc465d8",
    "auctionCnt()": "00be2358",
    "auctions(uint256)": "571a26a0",
    "endAuction(uint256)": "b9a2de3a",
    "getAuctionByID(uint256)": "6cb893b0",
    "owner()": "8da5cb5b",
    "proposeVisual(uint256,uint8,uint256)": "a569155f",
    "removeVisual(uint256,uint8,uint256)": "916b0819",
    "renounceOwnership()": "715018a6",
    "setup(address)": "66d38203",
    "startAuction(uint256,uint256)": "4fee13fc",
    "transferOwnership(address)": "f2fde38b",
    "voteVisual(uint256,uint8,uint256)": "6e3089b5"
  },
  "id": 46
}