{"abi":[{"type":"constructor","inputs":[{"name":"_generatornessSourceContract","type":"address","internalType":"address"},{"name":"_generatornessSourceBalance","type":"address","internalType":"address"}],"stateMutability":"nonpayable"},{"type":"function","name":"GENERATOR_SOURCE_BALANCE","inputs":[],"outputs":[{"name":"","type":"address","internalType":"address"}],"stateMutability":"view"},{"type":"function","name":"GENERATOR_SOURCE_CONTRACT","inputs":[],"outputs":[{"name":"","type":"address","internalType":"address"}],"stateMutability":"view"},{"type":"function","name":"aminals","inputs":[],"outputs":[{"name":"","type":"address","internalType":"contract Aminals"}],"stateMutability":"view"},{"type":"function","name":"auctionCnt","inputs":[],"outputs":[{"name":"","type":"uint256","internalType":"uint256"}],"stateMutability":"view"},{"type":"function","name":"auctions","inputs":[{"name":"auctionId","type":"uint256","internalType":"uint256"}],"outputs":[{"name":"aminalIdOne","type":"uint256","internalType":"uint256"},{"name":"aminalIdTwo","type":"uint256","internalType":"uint256"},{"name":"totalLove","type":"uint256","internalType":"uint256"},{"name":"childAminalId","type":"uint256","internalType":"uint256"},{"name":"ended","type":"bool","internalType":"bool"}],"stateMutability":"view"},{"type":"function","name":"bulkVoteVisual","inputs":[{"name":"auctionId","type":"uint256","internalType":"uint256"},{"name":"visualsIds","type":"uint256[8]","internalType":"uint256[8]"}],"outputs":[],"stateMutability":"payable"},{"type":"function","name":"endAuction","inputs":[{"name":"auctionId","type":"uint256","internalType":"uint256"}],"outputs":[],"stateMutability":"nonpayable"},{"type":"function","name":"getAuctionByID","inputs":[{"name":"auctionID","type":"uint256","internalType":"uint256"}],"outputs":[{"name":"","type":"tuple","internalType":"struct VisualsAuction.Auction","components":[{"name":"aminalIdOne","type":"uint256","internalType":"uint256"},{"name":"aminalIdTwo","type":"uint256","internalType":"uint256"},{"name":"totalLove","type":"uint256","internalType":"uint256"},{"name":"visualIds","type":"uint256[8][10]","internalType":"uint256[8][10]"},{"name":"visualIdVotes","type":"uint256[8][10]","internalType":"uint256[8][10]"},{"name":"visualNoVotes","type":"uint256[8][10]","internalType":"uint256[8][10]"},{"name":"childAminalId","type":"uint256","internalType":"uint256"},{"name":"winnerId","type":"uint256[8]","internalType":"uint256[8]"},{"name":"ended","type":"bool","internalType":"bool"}]}],"stateMutability":"view"},{"type":"function","name":"owner","inputs":[],"outputs":[{"name":"","type":"address","internalType":"address"}],"stateMutability":"view"},{"type":"function","name":"proposeVisual","inputs":[{"name":"auctionId","type":"uint256","internalType":"uint256"},{"name":"catEnum","type":"uint8","internalType":"enum IAminalStructs.VisualsCat"},{"name":"visualId","type":"uint256","internalType":"uint256"}],"outputs":[],"stateMutability":"payable"},{"type":"function","name":"removeVisual","inputs":[{"name":"auctionId","type":"uint256","internalType":"uint256"},{"name":"catEnum","type":"uint8","internalType":"enum IAminalStructs.VisualsCat"},{"name":"visualId","type":"uint256","internalType":"uint256"}],"outputs":[],"stateMutability":"payable"},{"type":"function","name":"renounceOwnership","inputs":[],"outputs":[],"stateMutability":"nonpayable"},{"type":"function","name":"setup","inputs":[{"name":"_aminals","type":"address","internalType":"address"}],"outputs":[],"stateMutability":"nonpayable"},{"type":"function","name":"startAuction","inputs":[{"name":"aminalIdOne","type":"uint256","internalType":"uint256"},{"name":"aminalIdTwo","type":"uint256","internalType":"uint256"}],"outputs":[{"name":"","type":"uint256","internalType":"uint256"}],"stateMutability":"nonpayable"},{"type":"function","name":"transferOwnership","inputs":[{"name":"newOwner","type":"address","internalType":"address"}],"outputs":[],"stateMutability":"nonpayable"},{"type":"function","name":"voteVisual","inputs":[{"name":"auctionId","type":"uint256","internalType":"uint256"},{"name":"catEnum","type":"uint8","internalType":"enum IAminalStructs.VisualsCat"},{"name":"visualId","type":"uint256","internalType":"uint256"}],"outputs":[],"stateMutability":"payable"},{"type":"event","name":"EndAuction","inputs":[{"name":"auctionId","type":"uint256","indexed":true,"internalType":"uint256"},{"name":"aminalIdOne","type":"uint256","indexed":false,"internalType":"uint256"},{"name":"aminalIdTwo","type":"uint256","indexed":false,"internalType":"uint256"},{"name":"childAminalId","type":"uint256","indexed":false,"internalType":"uint256"},{"name":"winningIds","type":"uint256[8]","indexed":false,"internalType":"uint256[8]"}],"anonymous":false},{"type":"event","name":"Initialized","inputs":[{"name":"version","type":"uint8","indexed":false,"internalType":"uint8"}],"anonymous":false},{"type":"event","name":"OwnershipTransferred","inputs":[{"name":"previousOwner","type":"address","indexed":true,"internalType":"address"},{"name":"newOwner","type":"address","indexed":true,"internalType":"address"}],"anonymous":false},{"type":"event","name":"ProposeVisual","inputs":[{"name":"auctionId","type":"uint256","indexed":true,"internalType":"uint256"},{"name":"sender","type":"address","indexed":false,"internalType":"address"},{"name":"visualId","type":"uint256","indexed":false,"internalType":"uint256"},{"name":"catEnum","type":"uint8","indexed":false,"internalType":"enum IAminalStructs.VisualsCat"}],"anonymous":false},{"type":"event","name":"RemoveVisual","inputs":[{"name":"auctionId","type":"uint256","indexed":true,"internalType":"uint256"},{"name":"sender","type":"address","indexed":false,"internalType":"address"},{"name":"visualId","type":"uint256","indexed":false,"internalType":"uint256"},{"name":"catEnum","type":"uint8","indexed":false,"internalType":"enum IAminalStructs.VisualsCat"}],"anonymous":false},{"type":"event","name":"RemoveVisualVote","inputs":[{"name":"auctionId","type":"uint256","indexed":true,"internalType":"uint256"},{"name":"visualId","type":"uint256","indexed":false,"internalType":"uint256"},{"name":"sender","type":"address","indexed":false,"internalType":"address"},{"name":"catEnum","type":"uint8","indexed":false,"internalType":"enum IAminalStructs.VisualsCat"},{"name":"userLoveVote","type":"uint256","indexed":false,"internalType":"uint256"},{"name":"totalLove","type":"uint256","indexed":false,"internalType":"uint256"}],"anonymous":false},{"type":"event","name":"StartAuction","inputs":[{"name":"auctionId","type":"uint256","indexed":true,"internalType":"uint256"},{"name":"aminalIdOne","type":"uint256","indexed":true,"internalType":"uint256"},{"name":"aminalIdTwo","type":"uint256","indexed":true,"internalType":"uint256"},{"name":"totalLove","type":"uint256","indexed":false,"internalType":"uint256"},{"name":"visualIds","type":"uint256[8][10]","indexed":false,"internalType":"uint256[8][10]"}],"anonymous":false},{"type":"event","name":"VisualsVote","inputs":[{"name":"auctionId","type":"uint256","indexed":true,"internalType":"uint256"},{"name":"visualId","type":"uint256","indexed":false,"internalType":"uint256"},{"name":"sender","type":"address","indexed":false,"internalType":"address"},{"name":"catEnum","type":"uint8","indexed":false,"internalType":"enum IAminalStructs.VisualsCat"},{"name":"userLoveVote","type":"uint256","indexed":false,"internalType":"uint256"},{"name":"totalLove","type":"uint256","indexed":false,"internalType":"uint256"}],"anonymous":false}],"bytecode":{"object":"0x60c060405260026003553480156200001657600080fd5b5060405162002fdb38038062002fdb833981016040819052620000399162000192565b62000044336200011a565b6001600160a01b038216620000aa5760405162461bcd60e51b815260206004820152602160248201527f496e76616c69642067656e657261746f7220736f7572636520636f6e747261636044820152601d60fa1b60648201526084015b60405180910390fd5b6001600160a01b038116620001025760405162461bcd60e51b815260206004820181905260248201527f496e76616c69642067656e657261746f7220736f757263652062616c616e63656044820152606401620000a1565b6001600160a01b039182166080521660a052620001ca565b600080546001600160a01b038381166201000081810262010000600160b01b0319851617855560405193049190911692909183917f8be0079c531659141344cd1fd0a4f28419497f9722a3daafe3b4186f6b6457e091a35050565b80516001600160a01b03811681146200018d57600080fd5b919050565b60008060408385031215620001a657600080fd5b620001b18362000175565b9150620001c16020840162000175565b90509250929050565b60805160a051612ddd620001fe600039600081816102bf015261241201526000818161028b015261243d0152612ddd6000f3fe6080604052600436106100f25760003560e01c8063715018a61161008a578063916b081911610059578063916b081914610305578063a569155f14610318578063b9a2de3a1461032b578063f2fde38b1461034b57600080fd5b8063715018a6146102645780637365841f14610279578063850a19ec146102ad5780638da5cb5b146102e157600080fd5b806359716ab5116100c657806359716ab5146101ef57806366d38203146102045780636cb893b0146102245780636e3089b51461025157600080fd5b8062be2358146100f75780634fc465d8146101205780634fee13fc14610158578063571a26a014610178575b600080fd5b34801561010357600080fd5b5061010d60035481565b6040519081526020015b60405180910390f35b34801561012c57600080fd5b50600154610140906001600160a01b031681565b6040516001600160a01b039091168152602001610117565b34801561016457600080fd5b5061010d610173366004612718565b61036b565b34801561018457600080fd5b506101c561019336600461273a565b6002602081905260009182526040909120805460018201549282015460f383015460fc90930154919392909160ff1685565b6040805195865260208601949094529284019190915260608301521515608082015260a001610117565b6102026101fd366004612753565b610914565b005b34801561021057600080fd5b5061020261021f366004612789565b61098e565b34801561023057600080fd5b5061024461023f36600461273a565b610ac0565b604051610117919061280b565b61020261025f36600461289b565b610c96565b34801561027057600080fd5b5061020261105d565b34801561028557600080fd5b506101407f000000000000000000000000000000000000000000000000000000000000000081565b3480156102b957600080fd5b506101407f000000000000000000000000000000000000000000000000000000000000000081565b3480156102ed57600080fd5b506000546201000090046001600160a01b0316610140565b61020261031336600461289b565b611071565b61020261032636600461289b565b61178a565b34801561033757600080fd5b5061020261034636600461273a565b611a5e565b34801561035757600080fd5b50610202610366366004612789565b612193565b6001546000906001600160a01b0316331461038557600080fd5b61038d612559565b610395612559565b6103d6604051806060016040528060228152602001612d5f60229139866040518060400160405280600581526020016401030b732160dd1b8152508761220c565b600154604051631c55707360e01b8152600481018790526001600160a01b0390911690631c557073906024016101c060405180830381865afa158015610420573d6000803e3d6000fd5b505050506040513d601f19601f8201168201806040525081019061044491906128ec565b600154604051631c55707360e01b81529199506001600160a01b03169650631c557073955061047d94508a9350600401915061270f9050565b6101c060405180830381865afa15801561049b573d6000803e3d6000fd5b505050506040513d601f19601f820116820180604052508101906104bf91906128ec565b60015460405163932b4c5f60e01b8152600481018e9052602481018d90529198506001600160a01b0316965063932b4c5f9550604401935061050092505050565b600060405180830381600087803b15801561051a57600080fd5b505af115801561052e573d6000803e3d6000fd5b505060018054604051630e226f3f60e31b8152600481018a905260248101929092526001600160a01b0316925063711379f89150604401600060405180830381600087803b15801561057f57600080fd5b505af1158015610593573d6000803e3d6000fd5b505060018054604051630e226f3f60e31b81526004810189905260248101929092526001600160a01b0316925063711379f89150604401600060405180830381600087803b1580156105e457600080fd5b505af11580156105f8573d6000803e3d6000fd5b5050600380546001908101918290556000918252600260205260409182902089815580820189905590549151633cf9b97b60e11b8152600481018990529093506001600160a01b0390911691506379f372f690602401602060405180830381865afa15801561066b573d6000803e3d6000fd5b505050506040513d601f19601f8201168201806040525081019061068f91906129eb565b600154604051633cf9b97b60e11b8152600481018990526001600160a01b03909116906379f372f690602401602060405180830381865afa1580156106d8573d6000803e3d6000fd5b505050506040513d601f19601f820116820180604052508101906106fc91906129eb565b6107069190612a1a565b60028083019182556003805460f385018190556000908152602083905260409020845481556001808601549082015592549183019190915582919061075290828101908401600a61259e565b506107656053828101908401600a61259e565b5061077860a3828101908401600a61259e565b5060f3828101549082015561079560f480830190840160086125e6565b5060fc918201549101805460ff191660ff909216151591909117905582516003828101919091558251600b830155602080850151600484015580840151600c840155604080860151600585015580850151600d8501556060808701516006860155850151600e808601919091556080808801516007870155860151600f86015560a0808801516008870155860151601086015560c0808801516009870155860151601186015560e080880151600a8701558601516012860155815180830190925281526d41756374696f6e20636e74203d3d60901b91810191909152905461087d919061225b565b60408051808201909152601381527202b34b9bab0b624b239ad982d982eae901e9e9606d1b60208201526108c0906003830160005b6008020160005b015461225b565b84866003547f2644f58116defc538b05e473f602cd21acfb81bb0e4c8ab8c46d4f5c72b154088460020154856003016040516108fd929190612a66565b60405180910390a460035493505050505b92915050565b600082815260026020526040902060fc81015483919060ff161561093757600080fd5b60005b6008811015610987576109758582600781111561095957610959612aaa565b86846008811061096b5761096b612a2d565b6020020135610c96565b8061097f81612ac0565b91505061093a565b5050505050565b600054610100900460ff16158080156109ae5750600054600160ff909116105b806109c85750303b1580156109c8575060005460ff166001145b610a305760405162461bcd60e51b815260206004820152602e60248201527f496e697469616c697a61626c653a20636f6e747261637420697320616c72656160448201526d191e481a5b9a5d1a585b1a5e995960921b60648201526084015b60405180910390fd5b6000805460ff191660011790558015610a53576000805461ff0019166101001790555b610a5b6122a0565b600180546001600160a01b0319166001600160a01b0384161790558015610abc576000805461ff0019169055604051600181527f7f26b83ff96e1f2b6a682f133852f6798a09c465da95921460cefb38474024989060200160405180910390a15b5050565b610ac861261d565b60008281526002602081815260408084208151610120810183528154815260018201549381019390935292830154828201528051610140810190915290926060840191906003840190600a90835b82821015610b5e576040805161010081019182905290600884810287019182845b815481526020019060010190808311610b3757505050505081526020019060010190610b16565b5050509082525060408051610140810190915260209091019060538301600a6000835b82821015610bc9576040805161010081019182905290600884810287019182845b815481526020019060010190808311610ba257505050505081526020019060010190610b81565b5050509082525060408051610140810190915260209091019060a38301600a6000835b82821015610c34576040805161010081019182905290600884810287019182845b815481526020019060010190808311610c0d57505050505081526020019060010190610bec565b5050509082525060f38201546020820152604080516101008101825291019060f4830160088282826020028201915b815481526020019060010190808311610c6357505050918352505060fc919091015460ff16151560209091015292915050565b600083815260026020526040902060fc81015484919060ff1615610cb957600080fd5b6000846007811115610ccd57610ccd612aaa565b60008781526002602052604080822060015481549251631320bd2d60e21b81526004810193909352336024840152939450926001600160a01b031690634c82f4b490604401602060405180830381865afa158015610d2f573d6000803e3d6000fd5b505050506040513d601f19601f82011682018060405250810190610d5391906129eb565b6001805490840154604051631320bd2d60e21b815260048101919091523360248201529192506000916001600160a01b0390911690634c82f4b490604401602060405180830381865afa158015610dae573d6000803e3d6000fd5b505050506040513d601f19601f82011682018060405250810190610dd291906129eb565b610ddc9083612a1a565b3360009081526004602090815260408083208d8452909152902090915081908560088110610e0c57610e0c612a2d565b015410610e705760405162461bcd60e51b815260206004820152602c60248201527f416c726561647920636f6e73756d656420616c6c206f6620796f7572206c6f7660448201526b65207769746820766f74657360a01b6064820152608401610a27565b610eb46040518060600160405280602f8152602001612d30602f9139856040518060400160405280600881526020016701017901034a21d160c51b8152508a61220c565b600a60005b600a811015610f0e57888560030182600a8110610ed857610ed8612a2d565b600802018760088110610eed57610eed612a2d565b015403610efc57809150610f0e565b80610f0681612ac0565b915050610eb9565b50610f31604051806060016040528060388152602001612cf8603891398261225b565b600a8110610fa05760405162461bcd60e51b815260206004820152603660248201527f43616e6e6f7420766f7465206f6e20612074726169742074686174206973206e60448201527537ba103830b93a1037b3103a34329030bab1ba34b7b760511b6064820152608401610a27565b818460530182600a8110610fb657610fb6612a2d565b600802018660088110610fcb57610fcb612a2d565b016000828254610fdb9190612a1a565b90915550503360009081526004602090815260408083208d845290915290208290866008811061100d5761100d612a2d565b01556040518a907fc672d892286f99d71da16a5cd7424a2b2b0cb8f62873f850526c588ea235eb2c90611049908b9033908e9089908990612afb565b60405180910390a250505050505050505050565b6110656122a0565b61106f6000612301565b565b600083815260026020526040902060fc81015484919060ff161561109457600080fd5b60008460078111156110a8576110a8612aaa565b60008781526002602052604080822060015481549251631320bd2d60e21b81526004810193909352336024840152939450926001600160a01b031690634c82f4b490604401602060405180830381865afa15801561110a573d6000803e3d6000fd5b505050506040513d601f19601f8201168201806040525081019061112e91906129eb565b6001805490840154604051631320bd2d60e21b815260048101919091523360248201529192506000916001600160a01b0390911690634c82f4b490604401602060405180830381865afa158015611189573d6000803e3d6000fd5b505050506040513d601f19601f820116820180604052508101906111ad91906129eb565b6111b79083612a1a565b9050600081116112225760405162461bcd60e51b815260206004820152603060248201527f596f75206e656564206c6f766520746f2072656d6f766520612074726169742060448201526f333937b6903a34329030bab1ba34b7b760811b6064820152608401610a27565b808360a30188600a811061123857611238612a2d565b60080201856008811061124d5761124d612a2d565b01600082825461125d9190612a1a565b925050819055506112c86040518060400160405280601581526020017403a37ba30b63637bb32903832b9103ab9b2b9101e9605d1b8152508260405180604001604052806013815260200172010333937b69036b9b39739b2b73232b9101e9606d1b8152503361235c565b611350604051806060016040528060278152602001612d81602791398460a30189600a81106112f9576112f9612a2d565b60080201866008811061130e5761130e612a2d565b01546040518060400160405280601181526020017001030b732103a37ba30b63637bb32901e9607d1b8152506003876002015461134b9190612b47565b61220c565b887f8efa9d074ecfe0058fdf7fa50810cb80686e9b93f7b880bec905e4d3f19de66c88338b8686604051611388959493929190612afb565b60405180910390a2600383600201546113a19190612b47565b8360a30188600a81106113b6576113b6612a2d565b6008020185600881106113cb576113cb612a2d565b0154111561177f57600060025b600a81101561142d57888560030182600a81106113f7576113f7612a2d565b60080201876008811061140c5761140c612a2d565b01540361141b5780915061142d565b8061142581612ac0565b9150506113d8565b506114616040518060400160405280601181526020017002922a6a7ab20a61717171717171717171607d1b8152508261225b565b806000036114d75760405162461bcd60e51b815260206004820152603a60248201527f54686520747261697420746f2062652072656d6f76656420646f6573206e6f7460448201527f20657869737420696e207468652061756374696f6e206c6973740000000000006064820152608401610a27565b805b60098110801561151357508460030181600a81106114f9576114f9612a2d565b60080201866008811061150e5761150e612a2d565b015415155b1561167e5760038501611527826001612a1a565b600a811061153757611537612a2d565b60080201866008811061154c5761154c612a2d565b01548560030182600a811061156357611563612a2d565b60080201876008811061157857611578612a2d565b015560538501611589826001612a1a565b600a811061159957611599612a2d565b6008020186600881106115ae576115ae612a2d565b01548560530182600a81106115c5576115c5612a2d565b6008020187600881106115da576115da612a2d565b015560a385016115eb826001612a1a565b600a81106115fb576115fb612a2d565b60080201866008811061161057611610612a2d565b01548560a30182600a811061162757611627612a2d565b60080201876008811061163c5761163c612a2d565b015560408051808201909152600d81526c031bab93932b73a1035101e9e9609d1b602082015261166c908261225b565b8061167681612ac0565b9150506114d9565b6116b460405180604001604052806014815260200173039ba37b8103932b6b7bb30b61030ba10171717160651b8152508261225b565b60008560030182600a81106116cb576116cb612a2d565b6008020187600881106116e0576116e0612a2d565b015560006053860182600a81106116f9576116f9612a2d565b60080201876008811061170e5761170e612a2d565b0155600060a3860182600a811061172757611727612a2d565b60080201876008811061173c5761173c612a2d565b01556040518b907fafff9997e70bc5415185db75e46db75492381b7c6fc26fb37bbb8b36ca415cdb906117749033908d908f90612b5b565b60405180910390a250505b505050505050505050565b600083815260026020526040902060fc81015484919060ff16156117ad57600080fd5b60008460078111156117c1576117c1612aaa565b6000878152600260205260408082206001548154925163768ce36760e11b81526004810193909352336024840152939450926001600160a01b03169063ed19c6ce90604401602060405180830381865afa158015611823573d6000803e3d6000fd5b505050506040513d601f19601f820116820180604052508101906118479190612b87565b600180549084015460405163768ce36760e11b815260048101919091523360248201526001600160801b039290921692506000916001600160a01b039091169063ed19c6ce90604401602060405180830381865afa1580156118ad573d6000803e3d6000fd5b505050506040513d601f19601f820116820180604052508101906118d19190612b87565b6001600160801b0316905060006118e88284612a1a565b90508034101561194b5760405162461bcd60e51b815260206004820152602860248201527f4e6f7420656e6f75676820657468657220746f2070726f706f73652061206e656044820152671dc8159a5cdd585b60c21b6064820152608401610a27565b60025b600a8111611a295780600a036119b25760405162461bcd60e51b8152602060048201526024808201527f4d617820382070726f706f73616c7320616c6c6f776564207065722063617465604482015263676f727960e01b6064820152608401610a27565b8460030181600a81106119c7576119c7612a2d565b6008020186600881106119dc576119dc612a2d565b0154600003611a1757888560030182600a81106119fb576119fb612a2d565b600802018760088110611a1057611a10612a2d565b0155611a29565b80611a2181612ac0565b91505061194e565b50897f3a07e73154fa0a7a9d25de305a51adc0616680f32be3449869c24ab3dc699409338a8c60405161104993929190612b5b565b600081815260026020526040902060fc81015482919060ff1615611a8157600080fd5b6000600260008581526020019081526020016000209050611ac76040518060400160405280600e81526020016d22a72224a7239020aaa1aa24a7a760911b8152506123a5565b60006040518061010001604052806000815260200160008152602001600081526020016000815260200160008152602001600081526020016000815260200160008152509050611b3c6040518060400160405280600e81526020016d22a72224a7239020aaa1aa24a7a760911b8152506123a5565b60408051808201909152601a81527f54657374696e672076697375616c2069645b305b305d5d203d200000000000006020820152611b7f906003840160006108b2565b60005b6008811015611f915760005b600a811015611e525760028110158015611bd157508360030181600a8110611bb857611bb8612a2d565b600802018260088110611bcd57611bcd612a2d565b0154155b611e52578360530181600a8110611bea57611bea612a2d565b600802018260088110611bff57611bff612a2d565b015415801590611c4f5750828260088110611c1c57611c1c612a2d565b60200201518460530182600a8110611c3657611c36612a2d565b600802018360088110611c4b57611c4b612a2d565b0154145b15611d3a57604080514460208201526bffffffffffffffffffffffff193360601b16918101919091526054810183905260009060740160408051601f198184030181528282528051602091820120838301909252601b83527f5449452c2072616e646f6d6c792063686f6f73652077696e6e65720000000000908301529150611ce290611cdd600284612bb0565b61225b565b611ced600282612bb0565b600003611d38578460030182600a8110611d0957611d09612a2d565b600802018360088110611d1e57611d1e612a2d565b01548560f4018460088110611d3557611d35612a2d565b01555b505b8360530181600a8110611d4f57611d4f612a2d565b600802018260088110611d6457611d64612a2d565b015415801590611db45750828260088110611d8157611d81612a2d565b60200201518460530182600a8110611d9b57611d9b612a2d565b600802018360088110611db057611db0612a2d565b0154115b15611e40578360530181600a8110611dce57611dce612a2d565b600802018260088110611de357611de3612a2d565b0154838360088110611df757611df7612a2d565b60200201526003840181600a8110611e1157611e11612a2d565b600802018260088110611e2657611e26612a2d565b01548460f4018360088110611e3d57611e3d612a2d565b01555b80611e4a81612ac0565b915050611b8e565b828260088110611e6457611e64612a2d565b6020020151600003611f6f576000611e7e838360016123e8565b9050611eab6040518060400160405280600981526020016803930b73237b6901e960bd1b8152508261225b565b611edb6040518060400160405280600e81526020016d03337b91031b0ba32b3b7b93c9d160951b8152508461225b565b611f2a6040518060400160405280600981526020016803a3930b4ba101e9e960bd1b8152508660030183600a8110611f1557611f15612a2d565b6008020185600881106108b9576108b9612a2d565b8460030181600a8110611f3f57611f3f612a2d565b600802018360088110611f5457611f54612a2d565b01548560f4018460088110611f6b57611f6b612a2d565b0155505b5060fc8301805460ff1916600117905580611f8981612ac0565b915050611b82565b506001548254604051630e226f3f60e31b81526004810191909152600060248201526001600160a01b039091169063711379f890604401600060405180830381600087803b158015611fe257600080fd5b505af1158015611ff6573d6000803e3d6000fd5b50506001805490850154604051630e226f3f60e31b81526004810191909152600060248201526001600160a01b03909116925063711379f89150604401600060405180830381600087803b15801561204d57600080fd5b505af1158015612061573d6000803e3d6000fd5b50506001805485549186015460f487015460f588015460f689015460f78a015460f88b015460f98c015460fa8d015460fb8e01546040516319a571c960e01b8152600481019b909b5260248b019890985260448a01969096526064890194909452608488019290925260a487015260c486015260e48501526101048401526101248301526001600160a01b031692506319a571c99150610144016020604051808303816000875af115801561211a573d6000803e3d6000fd5b505050506040513d601f19601f8201168201806040525081019061213e91906129eb565b50847f790c407ce7a3d5aead3fa6b6f0ca58714842bf23381cd1c98c63a0dcc2d6e36e836000015484600101548560f301548660f4016040516121849493929190612bc4565b60405180910390a25050505050565b61219b6122a0565b6001600160a01b0381166122005760405162461bcd60e51b815260206004820152602660248201527f4f776e61626c653a206e6577206f776e657220697320746865207a65726f206160448201526564647265737360d01b6064820152608401610a27565b61220981612301565b50565b612255848484846040516024016122269493929190612c2d565b60408051601f198184030181529190526020810180516001600160e01b031663a0c4b22560e01b179052612538565b50505050565b610abc8282604051602401612271929190612c6a565b60408051601f198184030181529190526020810180516001600160e01b03166309710a9d60e41b179052612538565b6000546001600160a01b036201000090910416331461106f5760405162461bcd60e51b815260206004820181905260248201527f4f776e61626c653a2063616c6c6572206973206e6f7420746865206f776e65726044820152606401610a27565b600080546001600160a01b038381166201000081810262010000600160b01b0319851617855560405193049190911692909183917f8be0079c531659141344cd1fd0a4f28419497f9722a3daafe3b4186f6b6457e091a35050565b612255848484846040516024016123769493929190612c8c565b60408051601f198184030181529190526020810180516001600160e01b031663bb7235e960e01b179052612538565b612209816040516024016123b99190612cd1565b60408051601f198184030181529190526020810180516001600160e01b031663104c13eb60e21b179052612538565b600080333a8643426123fb600183612ce4565b6040516370a0823160e01b81526001600160a01b037f0000000000000000000000000000000000000000000000000000000000000000811660048301529140917f000000000000000000000000000000000000000000000000000000000000000016906370a0823190602401602060405180830381865afa158015612484573d6000803e3d6000fd5b505050506040513d601f19601f820116820180604052508101906124a891906129eb565b60405160609790971b6bffffffffffffffffffffffff19166020880152603487019590955260548601939093526074850191909152609484015260b483015260d482015260f40160408051601f19818403018152919052805160209091012091508190506125168482612bb0565b91506125228383612a1a565b915061252f600183612ce4565b95945050505050565b80516a636f6e736f6c652e6c6f67602083016000808483855afa5050505050565b60405180610100016040528060008152602001600081526020016000815260200160008152602001600081526020016000815260200160008152602001600081525090565b6050830191839082156125d6579160080282015b828111156125d6576125c6828460086125e6565b50916008019190600801906125b2565b506125e2929150612681565b5090565b8260088101928215612611579182015b828111156126115782548255916001019190600101906125f6565b506125e292915061269e565b6040518061012001604052806000815260200160008152602001600081526020016126466126b3565b81526020016126536126b3565b81526020016126606126b3565b8152602001600081526020016126746126e1565b8152600060209091015290565b808211156125e25760006126958282612700565b50600801612681565b5b808211156125e2576000815560010161269f565b604051806101400160405280600a905b6126cb6126e1565b8152602001906001900390816126c35790505090565b6040518061010001604052806008906020820280368337509192915050565b5061220990600881019061269e565b90815260200190565b6000806040838503121561272b57600080fd5b50508035926020909101359150565b60006020828403121561274c57600080fd5b5035919050565b60008061012080848603121561276857600080fd5b8335925084818501111561277b57600080fd5b506020830190509250929050565b60006020828403121561279b57600080fd5b81356001600160a01b03811681146127b257600080fd5b9392505050565b8060005b60088110156122555781518452602093840193909101906001016127bd565b8060005b600a811015612255576127f48483516127b9565b6101009390930192602091909101906001016127e0565b6000611fa082019050825182526020830151602083015260408301516040830152606083015161283e60608401826127dc565b506080830151612852610a608401826127dc565b5060a08301516128666114608401826127dc565b5060c0830151611e6083015260e0830151612885611e808401826127b9565b5061010092909201511515611f80919091015290565b6000806000606084860312156128b057600080fd5b833592506020840135600881106128c657600080fd5b929592945050506040919091013590565b805180151581146128e757600080fd5b919050565b60008060008060008060008789036101c081121561290957600080fd5b8851975060208901519650604089015195506060890151945061292e60808a016128d7565b935061293c60a08a016128d7565b92506101008060bf198301121561295257600080fd5b604051915080820182811067ffffffffffffffff8211171561298457634e487b7160e01b600052604160045260246000fd5b806040525060c08a0151825260e08a01516020830152808a01516040830152506101208901516060820152610140890151608082015261016089015160a082015261018089015160c08201526101a089015160e08201528091505092959891949750929550565b6000602082840312156129fd57600080fd5b5051919050565b634e487b7160e01b600052601160045260246000fd5b8082018082111561090e5761090e612a04565b634e487b7160e01b600052603260045260246000fd5b8060005b6008811015612255578154845260209093019260019182019101612a47565b828152610a208101602082018360005b600a811015612aa057612a898383612a43565b610100929092019160089190910190600101612a76565b5050509392505050565b634e487b7160e01b600052602160045260246000fd5b600060018201612ad257612ad2612a04565b5060010190565b60088110612af757634e487b7160e01b600052602160045260246000fd5b9052565b8581526001600160a01b038516602082015260a08101612b1e6040830186612ad9565b6060820193909352608001529392505050565b634e487b7160e01b600052601260045260246000fd5b600082612b5657612b56612b31565b500490565b6001600160a01b03841681526020810183905260608101612b7f6040830184612ad9565b949350505050565b600060208284031215612b9957600080fd5b81516001600160801b03811681146127b257600080fd5b600082612bbf57612bbf612b31565b500690565b8481526020810184905260408101839052610160810161252f6060830184612a43565b6000815180845260005b81811015612c0d57602081850181015186830182015201612bf1565b506000602082860101526020601f19601f83011685010191505092915050565b608081526000612c406080830187612be7565b8560208401528281036040840152612c588186612be7565b91505082606083015295945050505050565b604081526000612c7d6040830185612be7565b90508260208301529392505050565b608081526000612c9f6080830187612be7565b8560208401528281036040840152612cb78186612be7565b91505060018060a01b038316606083015295945050505050565b6020815260006127b26020830184612be7565b8181038181111561090e5761090e612a0456fe2a2a2a2a2a2a2a2a2a2a2a2a2a2a2a2a2a2a2a2a2a2a2a2a2a2a2a2a2a2a2a2a2a2a2a2a2a2a2a2a2a2a2a2a2a2a2a2a2a2a2a204b203d202a2a2a2a2a2a2a2a2a2a206120766f746520686173206265656e20636173746564206f6e2063617465676f72793a2041756374696f6e207374617274696e6720666f7220707265676e616e6379206f6620747279696e6720746f2072656d6f7665207468652076697375616c2077697468206c6f76653a20a2646970667358221220008cdba364f8a0f51534c6fe58b7ea5efa4f6b980b0cbafa17db87381dec7ad664736f6c63430008140033","linkReferences":{}},"methodIdentifiers":{"GENERATOR_SOURCE_BALANCE()":"850a19ec","GENERATOR_SOURCE_CONTRACT()":"7365841f","aminals()":"4fc465d8","auctionCnt()":"00be2358","auctions(uint256)":"571a26a0","bulkVoteVisual(uint256,uint256[8])":"59716ab5","endAuction(uint256)":"b9a2de3a","getAuctionByID(uint256)":"6cb893b0","owner()":"8da5cb5b","proposeVisual(uint256,uint8,uint256)":"a569155f","removeVisual(uint256,uint8,uint256)":"916b0819","renounceOwnership()":"715018a6","setup(address)":"66d38203","startAuction(uint256,uint256)":"4fee13fc","transferOwnership(address)":"f2fde38b","voteVisual(uint256,uint8,uint256)":"6e3089b5"},"id":47}