{
  "abi": [
    {
      "inputs": [
        {
          "internalType": "address",
          "name": "_generatornessSourceContract",
          "type": "address"
        },
        {
          "internalType": "address",
          "name": "_generatornessSourceBalance",
          "type": "address"
        }
      ],
      "stateMutability": "nonpayable",
      "type": "constructor"
    },
    {
      "anonymous": false,
      "inputs": [
        {
          "indexed": true,
          "internalType": "uint256",
          "name": "auctionId",
          "type": "uint256"
        },
        {
          "indexed": false,
          "internalType": "uint256",
          "name": "aminalIdOne",
          "type": "uint256"
        },
        {
          "indexed": false,
          "internalType": "uint256",
          "name": "aminalIdTwo",
          "type": "uint256"
        },
        {
          "indexed": false,
          "internalType": "uint256",
          "name": "childAminalId",
          "type": "uint256"
        },
        {
          "indexed": false,
          "internalType": "uint256[8]",
          "name": "winningIds",
          "type": "uint256[8]"
        }
      ],
      "name": "EndAuction",
      "type": "event"
    },
    {
      "anonymous": false,
      "inputs": [
        {
          "indexed": false,
          "internalType": "uint8",
          "name": "version",
          "type": "uint8"
        }
      ],
      "name": "Initialized",
      "type": "event"
    },
    {
      "anonymous": false,
      "inputs": [
        {
          "indexed": true,
          "internalType": "address",
          "name": "previousOwner",
          "type": "address"
        },
        {
          "indexed": true,
          "internalType": "address",
          "name": "newOwner",
          "type": "address"
        }
      ],
      "name": "OwnershipTransferred",
      "type": "event"
    },
    {
      "anonymous": false,
      "inputs": [
        {
          "indexed": true,
          "internalType": "uint256",
          "name": "auctionId",
          "type": "uint256"
        },
        {
          "indexed": false,
          "internalType": "address",
          "name": "sender",
          "type": "address"
        },
        {
          "indexed": false,
          "internalType": "uint256",
          "name": "visualId",
          "type": "uint256"
        },
        {
          "indexed": false,
          "internalType": "enum VisualsAuction.VisualsCat",
          "name": "catEnum",
          "type": "uint8"
        }
      ],
      "name": "ProposeVisual",
      "type": "event"
    },
    {
      "anonymous": false,
      "inputs": [
        {
          "indexed": true,
          "internalType": "uint256",
          "name": "auctionId",
          "type": "uint256"
        },
        {
          "indexed": false,
          "internalType": "address",
          "name": "sender",
          "type": "address"
        },
        {
          "indexed": false,
          "internalType": "uint256",
          "name": "visualId",
          "type": "uint256"
        },
        {
          "indexed": false,
          "internalType": "enum VisualsAuction.VisualsCat",
          "name": "catEnum",
          "type": "uint8"
        }
      ],
      "name": "RemoveVisual",
      "type": "event"
    },
    {
      "anonymous": false,
      "inputs": [
        {
          "indexed": true,
          "internalType": "uint256",
          "name": "auctionId",
          "type": "uint256"
        },
        {
          "indexed": true,
          "internalType": "uint256",
          "name": "aminalIdOne",
          "type": "uint256"
        },
        {
          "indexed": true,
          "internalType": "uint256",
          "name": "aminalIdTwo",
          "type": "uint256"
        },
        {
          "indexed": false,
          "internalType": "uint256",
          "name": "totalLove",
          "type": "uint256"
        },
        {
          "indexed": false,
          "internalType": "uint256[8][10]",
          "name": "visualIds",
          "type": "uint256[8][10]"
        }
      ],
      "name": "StartAuction",
      "type": "event"
    },
    {
      "anonymous": false,
      "inputs": [
        {
          "indexed": true,
          "internalType": "uint256",
          "name": "auctionId",
          "type": "uint256"
        },
        {
          "indexed": false,
          "internalType": "uint256",
          "name": "visualId",
          "type": "uint256"
        },
        {
          "indexed": false,
          "internalType": "address",
          "name": "sender",
          "type": "address"
        },
        {
          "indexed": false,
          "internalType": "enum VisualsAuction.VisualsCat",
          "name": "catEnum",
          "type": "uint8"
        },
        {
          "indexed": false,
          "internalType": "uint256",
          "name": "userLoveVote",
          "type": "uint256"
        },
        {
          "indexed": false,
          "internalType": "uint256",
          "name": "totalLove",
          "type": "uint256"
        }
      ],
      "name": "VisualsVote",
      "type": "event"
    },
    {
      "inputs": [],
      "name": "GENERATOR_SOURCE_BALANCE",
      "outputs": [
        {
          "internalType": "address",
          "name": "",
          "type": "address"
        }
      ],
      "stateMutability": "view",
      "type": "function"
    },
    {
      "inputs": [],
      "name": "GENERATOR_SOURCE_CONTRACT",
      "outputs": [
        {
          "internalType": "address",
          "name": "",
          "type": "address"
        }
      ],
      "stateMutability": "view",
      "type": "function"
    },
    {
      "inputs": [],
      "name": "aminals",
      "outputs": [
        {
          "internalType": "contract Aminals",
          "name": "",
          "type": "address"
        }
      ],
      "stateMutability": "view",
      "type": "function"
    },
    {
      "inputs": [],
      "name": "auctionCnt",
      "outputs": [
        {
          "internalType": "uint256",
          "name": "",
          "type": "uint256"
        }
      ],
      "stateMutability": "view",
      "type": "function"
    },
    {
      "inputs": [
        {
          "internalType": "uint256",
          "name": "auctionId",
          "type": "uint256"
        }
      ],
      "name": "auctions",
      "outputs": [
        {
          "internalType": "uint256",
          "name": "aminalIdOne",
          "type": "uint256"
        },
        {
          "internalType": "uint256",
          "name": "aminalIdTwo",
          "type": "uint256"
        },
        {
          "internalType": "uint256",
          "name": "totalLove",
          "type": "uint256"
        },
        {
          "internalType": "uint256",
          "name": "childAminalId",
          "type": "uint256"
        },
        {
          "internalType": "bool",
          "name": "ended",
          "type": "bool"
        }
      ],
      "stateMutability": "view",
      "type": "function"
    },
    {
      "inputs": [
        {
          "internalType": "uint256",
          "name": "auctionId",
          "type": "uint256"
        }
      ],
      "name": "endAuction",
      "outputs": [],
      "stateMutability": "nonpayable",
      "type": "function"
    },
    {
      "inputs": [
        {
          "internalType": "uint256",
          "name": "auctionID",
          "type": "uint256"
        }
      ],
      "name": "getAuctionByID",
      "outputs": [
        {
          "components": [
            {
              "internalType": "uint256",
              "name": "aminalIdOne",
              "type": "uint256"
            },
            {
              "internalType": "uint256",
              "name": "aminalIdTwo",
              "type": "uint256"
            },
            {
              "internalType": "uint256",
              "name": "totalLove",
              "type": "uint256"
            },
            {
              "internalType": "uint256[8][10]",
              "name": "visualIds",
              "type": "uint256[8][10]"
            },
            {
              "internalType": "uint256[8][10]",
              "name": "visualIdVotes",
              "type": "uint256[8][10]"
            },
            {
              "internalType": "uint256[8][10]",
              "name": "visualNoVotes",
              "type": "uint256[8][10]"
            },
            {
              "internalType": "uint256",
              "name": "childAminalId",
              "type": "uint256"
            },
            {
              "internalType": "uint256[8]",
              "name": "winnerId",
              "type": "uint256[8]"
            },
            {
              "internalType": "bool",
              "name": "ended",
              "type": "bool"
            }
          ],
          "internalType": "struct VisualsAuction.Auction",
          "name": "",
          "type": "tuple"
        }
      ],
      "stateMutability": "view",
      "type": "function"
    },
    {
      "inputs": [],
      "name": "owner",
      "outputs": [
        {
          "internalType": "address",
          "name": "",
          "type": "address"
        }
      ],
      "stateMutability": "view",
      "type": "function"
    },
    {
      "inputs": [
        {
          "internalType": "uint256",
          "name": "auctionId",
          "type": "uint256"
        },
        {
          "internalType": "enum VisualsAuction.VisualsCat",
          "name": "catEnum",
          "type": "uint8"
        },
        {
          "internalType": "uint256",
          "name": "visualId",
          "type": "uint256"
        }
      ],
      "name": "proposeVisual",
      "outputs": [],
      "stateMutability": "payable",
      "type": "function"
    },
    {
      "inputs": [
        {
          "internalType": "uint256",
          "name": "auctionId",
          "type": "uint256"
        },
        {
          "internalType": "enum VisualsAuction.VisualsCat",
          "name": "catEnum",
          "type": "uint8"
        },
        {
          "internalType": "uint256",
          "name": "visualId",
          "type": "uint256"
        }
      ],
      "name": "removeVisual",
      "outputs": [],
      "stateMutability": "payable",
      "type": "function"
    },
    {
      "inputs": [],
      "name": "renounceOwnership",
      "outputs": [],
      "stateMutability": "nonpayable",
      "type": "function"
    },
    {
      "inputs": [
        {
          "internalType": "address",
          "name": "_aminals",
          "type": "address"
        }
      ],
      "name": "setup",
      "outputs": [],
      "stateMutability": "nonpayable",
      "type": "function"
    },
    {
      "inputs": [
        {
          "internalType": "uint256",
          "name": "aminalIdOne",
          "type": "uint256"
        },
        {
          "internalType": "uint256",
          "name": "aminalIdTwo",
          "type": "uint256"
        }
      ],
      "name": "startAuction",
      "outputs": [
        {
          "internalType": "uint256",
          "name": "",
          "type": "uint256"
        }
      ],
      "stateMutability": "nonpayable",
      "type": "function"
    },
    {
      "inputs": [
        {
          "internalType": "address",
          "name": "newOwner",
          "type": "address"
        }
      ],
      "name": "transferOwnership",
      "outputs": [],
      "stateMutability": "nonpayable",
      "type": "function"
    },
    {
      "inputs": [
        {
          "internalType": "uint256",
          "name": "auctionId",
          "type": "uint256"
        },
        {
          "internalType": "enum VisualsAuction.VisualsCat",
          "name": "catEnum",
          "type": "uint8"
        },
        {
          "internalType": "uint256",
          "name": "id",
          "type": "uint256"
        }
      ],
      "name": "voteVisual",
      "outputs": [],
      "stateMutability": "payable",
      "type": "function"
    }
  ],
  "bytecode": {
    "object": "0x60c060405260026003553480156200001657600080fd5b5060405162002e0138038062002e01833981016040819052620000399162000192565b62000044336200011a565b6001600160a01b038216620000aa5760405162461bcd60e51b815260206004820152602160248201527f496e76616c69642067656e657261746f7220736f7572636520636f6e747261636044820152601d60fa1b60648201526084015b60405180910390fd5b6001600160a01b038116620001025760405162461bcd60e51b815260206004820181905260248201527f496e76616c69642067656e657261746f7220736f757263652062616c616e63656044820152606401620000a1565b6001600160a01b039182166080521660a052620001ca565b600080546001600160a01b038381166201000081810262010000600160b01b0319851617855560405193049190911692909183917f8be0079c531659141344cd1fd0a4f28419497f9722a3daafe3b4186f6b6457e091a35050565b80516001600160a01b03811681146200018d57600080fd5b919050565b60008060408385031215620001a657600080fd5b620001b18362000175565b9150620001c16020840162000175565b90509250929050565b60805160a051612c03620001fe600039600081816102a101526122a601526000818161026d01526122d10152612c036000f3fe6080604052600436106100e75760003560e01c8063715018a61161008a578063916b081911610059578063916b0819146102e7578063a569155f146102fa578063b9a2de3a1461030d578063f2fde38b1461032d57600080fd5b8063715018a6146102465780637365841f1461025b578063850a19ec1461028f5780638da5cb5b146102c357600080fd5b8063571a26a0116100c6578063571a26a01461016d57806366d38203146101e45780636cb893b0146102065780636e3089b51461023357600080fd5b8062be2358146100ec5780634fc465d8146101155780634fee13fc1461014d575b600080fd5b3480156100f857600080fd5b5061010260035481565b6040519081526020015b60405180910390f35b34801561012157600080fd5b50600154610135906001600160a01b031681565b6040516001600160a01b03909116815260200161010c565b34801561015957600080fd5b506101026101683660046125ac565b61034d565b34801561017957600080fd5b506101ba6101883660046125ce565b6002602081905260009182526040909120805460018201549282015460f383015460fc90930154919392909160ff1685565b6040805195865260208601949094529284019190915260608301521515608082015260a00161010c565b3480156101f057600080fd5b506102046101ff3660046125e7565b6108f6565b005b34801561021257600080fd5b506102266102213660046125ce565b610a28565b60405161010c9190612669565b6102046102413660046126f9565b610bfe565b34801561025257600080fd5b50610204610f33565b34801561026757600080fd5b506101357f000000000000000000000000000000000000000000000000000000000000000081565b34801561029b57600080fd5b506101357f000000000000000000000000000000000000000000000000000000000000000081565b3480156102cf57600080fd5b506000546201000090046001600160a01b0316610135565b6102046102f53660046126f9565b610f47565b6102046103083660046126f9565b61161e565b34801561031957600080fd5b506102046103283660046125ce565b6118f2565b34801561033957600080fd5b506102046103483660046125e7565b612027565b6001546000906001600160a01b0316331461036757600080fd5b61036f6123ed565b6103776123ed565b6103b8604051806060016040528060228152602001612b8560229139866040518060400160405280600581526020016401030b732160dd1b815250876120a0565b600154604051631c55707360e01b8152600481018790526001600160a01b0390911690631c557073906024016101c060405180830381865afa158015610402573d6000803e3d6000fd5b505050506040513d601f19601f82011682018060405250810190610426919061274a565b600154604051631c55707360e01b81529199506001600160a01b03169650631c557073955061045f94508a935060040191506125a39050565b6101c060405180830381865afa15801561047d573d6000803e3d6000fd5b505050506040513d601f19601f820116820180604052508101906104a1919061274a565b60015460405163932b4c5f60e01b8152600481018e9052602481018d90529198506001600160a01b0316965063932b4c5f955060440193506104e292505050565b600060405180830381600087803b1580156104fc57600080fd5b505af1158015610510573d6000803e3d6000fd5b505060018054604051630e226f3f60e31b8152600481018a905260248101929092526001600160a01b0316925063711379f89150604401600060405180830381600087803b15801561056157600080fd5b505af1158015610575573d6000803e3d6000fd5b505060018054604051630e226f3f60e31b81526004810189905260248101929092526001600160a01b0316925063711379f89150604401600060405180830381600087803b1580156105c657600080fd5b505af11580156105da573d6000803e3d6000fd5b5050600380546001908101918290556000918252600260205260409182902089815580820189905590549151633cf9b97b60e11b8152600481018990529093506001600160a01b0390911691506379f372f690602401602060405180830381865afa15801561064d573d6000803e3d6000fd5b505050506040513d601f19601f820116820180604052508101906106719190612849565b600154604051633cf9b97b60e11b8152600481018990526001600160a01b03909116906379f372f690602401602060405180830381865afa1580156106ba573d6000803e3d6000fd5b505050506040513d601f19601f820116820180604052508101906106de9190612849565b6106e89190612878565b60028083019182556003805460f385018190556000908152602083905260409020845481556001808601549082015592549183019190915582919061073490828101908401600a612432565b506107476053828101908401600a612432565b5061075a60a3828101908401600a612432565b5060f3828101549082015561077760f4808301908401600861247a565b5060fc918201549101805460ff191660ff909216151591909117905582516003828101919091558251600b830155602080850151600484015580840151600c840155604080860151600585015580850151600d8501556060808701516006860155850151600e808601919091556080808801516007870155860151600f86015560a0808801516008870155860151601086015560c0808801516009870155860151601186015560e080880151600a8701558601516012860155815180830190925281526d41756374696f6e20636e74203d3d60901b91810191909152905461085f91906120ef565b60408051808201909152601381527202b34b9bab0b624b239ad982d982eae901e9e9606d1b60208201526108a2906003830160005b6008020160005b01546120ef565b84866003547f2644f58116defc538b05e473f602cd21acfb81bb0e4c8ab8c46d4f5c72b154088460020154856003016040516108df9291906128c4565b60405180910390a460035493505050505b92915050565b600054610100900460ff16158080156109165750600054600160ff909116105b806109305750303b158015610930575060005460ff166001145b6109985760405162461bcd60e51b815260206004820152602e60248201527f496e697469616c697a61626c653a20636f6e747261637420697320616c72656160448201526d191e481a5b9a5d1a585b1a5e995960921b60648201526084015b60405180910390fd5b6000805460ff1916600117905580156109bb576000805461ff0019166101001790555b6109c3612134565b600180546001600160a01b0319166001600160a01b0384161790558015610a24576000805461ff0019169055604051600181527f7f26b83ff96e1f2b6a682f133852f6798a09c465da95921460cefb38474024989060200160405180910390a15b5050565b610a306124b1565b60008281526002602081815260408084208151610120810183528154815260018201549381019390935292830154828201528051610140810190915290926060840191906003840190600a90835b82821015610ac6576040805161010081019182905290600884810287019182845b815481526020019060010190808311610a9f57505050505081526020019060010190610a7e565b5050509082525060408051610140810190915260209091019060538301600a6000835b82821015610b31576040805161010081019182905290600884810287019182845b815481526020019060010190808311610b0a57505050505081526020019060010190610ae9565b5050509082525060408051610140810190915260209091019060a38301600a6000835b82821015610b9c576040805161010081019182905290600884810287019182845b815481526020019060010190808311610b7557505050505081526020019060010190610b54565b5050509082525060f38201546020820152604080516101008101825291019060f4830160088282826020028201915b815481526020019060010190808311610bcb57505050918352505060fc919091015460ff16151560209091015292915050565b600083815260026020526040902060fc81015484919060ff1615610c2157600080fd5b6000846007811115610c3557610c35612908565b60008781526002602052604080822060015481549251631320bd2d60e21b81526004810193909352336024840152939450926001600160a01b031690634c82f4b490604401602060405180830381865afa158015610c97573d6000803e3d6000fd5b505050506040513d601f19601f82011682018060405250810190610cbb9190612849565b6001805490840154604051631320bd2d60e21b815260048101919091523360248201529192506000916001600160a01b0390911690634c82f4b490604401602060405180830381865afa158015610d16573d6000803e3d6000fd5b505050506040513d601f19601f82011682018060405250810190610d3a9190612849565b610d449083612878565b3360009081526004602090815260408083208d8452909152902090915081908560088110610d7457610d7461288b565b015410610dd85760405162461bcd60e51b815260206004820152602c60248201527f416c726561647920636f6e73756d656420616c6c206f6620796f7572206c6f7660448201526b65207769746820766f74657360a01b606482015260840161098f565b610e1c6040518060600160405280602f8152602001612b56602f9139856040518060400160405280600881526020016701017901034a21d160c51b8152508a6120a0565b6000805b600a811015610e7557888560030182600a8110610e3f57610e3f61288b565b600802018760088110610e5457610e5461288b565b015403610e6357809150610e75565b80610e6d8161291e565b915050610e20565b50818460530182600a8110610e8c57610e8c61288b565b600802018660088110610ea157610ea161288b565b016000828254610eb19190612878565b90915550503360009081526004602090815260408083208d8452909152902082908660088110610ee357610ee361288b565b01556040518a907fc672d892286f99d71da16a5cd7424a2b2b0cb8f62873f850526c588ea235eb2c90610f1f908b9033908e9089908990612959565b60405180910390a250505050505050505050565b610f3b612134565b610f456000612195565b565b600083815260026020526040902060fc81015484919060ff1615610f6a57600080fd5b6000846007811115610f7e57610f7e612908565b60008781526002602052604080822060015481549251631320bd2d60e21b81526004810193909352336024840152939450926001600160a01b031690634c82f4b490604401602060405180830381865afa158015610fe0573d6000803e3d6000fd5b505050506040513d601f19601f820116820180604052508101906110049190612849565b6001805490840154604051631320bd2d60e21b815260048101919091523360248201529192506000916001600160a01b0390911690634c82f4b490604401602060405180830381865afa15801561105f573d6000803e3d6000fd5b505050506040513d601f19601f820116820180604052508101906110839190612849565b61108d9083612878565b9050600081116110f85760405162461bcd60e51b815260206004820152603060248201527f596f75206e656564206c6f766520746f2072656d6f766520612074726169742060448201526f333937b6903a34329030bab1ba34b7b760811b606482015260840161098f565b808360a30188600a811061110e5761110e61288b565b6008020185600881106111235761112361288b565b0160008282546111339190612878565b9250508190555061119e6040518060400160405280601581526020017403a37ba30b63637bb32903832b9103ab9b2b9101e9605d1b8152508260405180604001604052806013815260200172010333937b69036b9b39739b2b73232b9101e9606d1b815250336121f0565b611226604051806060016040528060278152602001612ba7602791398460a30189600a81106111cf576111cf61288b565b6008020186600881106111e4576111e461288b565b01546040518060400160405280601181526020017001030b732103a37ba30b63637bb32901e9607d1b8152506003876002015461122191906129a5565b6120a0565b6003836002015461123791906129a5565b8360a30188600a811061124c5761124c61288b565b6008020185600881106112615761126161288b565b015411156115d757600060025b600a8110156112c357888560030182600a811061128d5761128d61288b565b6008020187600881106112a2576112a261288b565b0154036112b1578091506112c3565b806112bb8161291e565b91505061126e565b506112f76040518060400160405280601181526020017002922a6a7ab20a61717171717171717171607d1b815250826120ef565b8060000361136d5760405162461bcd60e51b815260206004820152603a60248201527f54686520747261697420746f2062652072656d6f76656420646f6573206e6f7460448201527f20657869737420696e207468652061756374696f6e206c697374000000000000606482015260840161098f565b805b6009811080156113a957508460030181600a811061138f5761138f61288b565b6008020186600881106113a4576113a461288b565b015415155b1561151457600385016113bd826001612878565b600a81106113cd576113cd61288b565b6008020186600881106113e2576113e261288b565b01548560030182600a81106113f9576113f961288b565b60080201876008811061140e5761140e61288b565b01556053850161141f826001612878565b600a811061142f5761142f61288b565b6008020186600881106114445761144461288b565b01548560530182600a811061145b5761145b61288b565b6008020187600881106114705761147061288b565b015560a38501611481826001612878565b600a81106114915761149161288b565b6008020186600881106114a6576114a661288b565b01548560a30182600a81106114bd576114bd61288b565b6008020187600881106114d2576114d261288b565b015560408051808201909152600d81526c031bab93932b73a1035101e9e9609d1b602082015261150290826120ef565b8061150c8161291e565b91505061136f565b61154a60405180604001604052806014815260200173039ba37b8103932b6b7bb30b61030ba10171717160651b815250826120ef565b60008560030182600a81106115615761156161288b565b6008020187600881106115765761157661288b565b015560006053860182600a811061158f5761158f61288b565b6008020187600881106115a4576115a461288b565b0155600060a3860182600a81106115bd576115bd61288b565b6008020187600881106115d2576115d261288b565b015550505b887fafff9997e70bc5415185db75e46db75492381b7c6fc26fb37bbb8b36ca415cdb33898b60405161160b939291906129b9565b60405180910390a2505050505050505050565b600083815260026020526040902060fc81015484919060ff161561164157600080fd5b600084600781111561165557611655612908565b6000878152600260205260408082206001548154925163768ce36760e11b81526004810193909352336024840152939450926001600160a01b03169063ed19c6ce90604401602060405180830381865afa1580156116b7573d6000803e3d6000fd5b505050506040513d601f19601f820116820180604052508101906116db91906129e5565b600180549084015460405163768ce36760e11b815260048101919091523360248201526001600160801b039290921692506000916001600160a01b039091169063ed19c6ce90604401602060405180830381865afa158015611741573d6000803e3d6000fd5b505050506040513d601f19601f8201168201806040525081019061176591906129e5565b6001600160801b03169050600061177c8284612878565b9050803410156117df5760405162461bcd60e51b815260206004820152602860248201527f4e6f7420656e6f75676820657468657220746f2070726f706f73652061206e656044820152671dc8159a5cdd585b60c21b606482015260840161098f565b60025b600a81116118bd5780600a036118465760405162461bcd60e51b8152602060048201526024808201527f4d617820382070726f706f73616c7320616c6c6f776564207065722063617465604482015263676f727960e01b606482015260840161098f565b8460030181600a811061185b5761185b61288b565b6008020186600881106118705761187061288b565b01546000036118ab57888560030182600a811061188f5761188f61288b565b6008020187600881106118a4576118a461288b565b01556118bd565b806118b58161291e565b9150506117e2565b50897f3a07e73154fa0a7a9d25de305a51adc0616680f32be3449869c24ab3dc699409338a8c604051610f1f939291906129b9565b600081815260026020526040902060fc81015482919060ff161561191557600080fd5b600060026000858152602001908152602001600020905061195b6040518060400160405280600e81526020016d22a72224a7239020aaa1aa24a7a760911b815250612239565b600060405180610100016040528060008152602001600081526020016000815260200160008152602001600081526020016000815260200160008152602001600081525090506119d06040518060400160405280600e81526020016d22a72224a7239020aaa1aa24a7a760911b815250612239565b60408051808201909152601a81527f54657374696e672076697375616c2069645b305b305d5d203d200000000000006020820152611a1390600384016000610894565b60005b6008811015611e255760005b600a811015611ce65760028110158015611a6557508360030181600a8110611a4c57611a4c61288b565b600802018260088110611a6157611a6161288b565b0154155b611ce6578360530181600a8110611a7e57611a7e61288b565b600802018260088110611a9357611a9361288b565b015415801590611ae35750828260088110611ab057611ab061288b565b60200201518460530182600a8110611aca57611aca61288b565b600802018360088110611adf57611adf61288b565b0154145b15611bce57604080514460208201526bffffffffffffffffffffffff193360601b16918101919091526054810183905260009060740160408051601f198184030181528282528051602091820120838301909252601b83527f5449452c2072616e646f6d6c792063686f6f73652077696e6e65720000000000908301529150611b7690611b71600284612a0e565b6120ef565b611b81600282612a0e565b600003611bcc578460030182600a8110611b9d57611b9d61288b565b600802018360088110611bb257611bb261288b565b01548560f4018460088110611bc957611bc961288b565b01555b505b8360530181600a8110611be357611be361288b565b600802018260088110611bf857611bf861288b565b015415801590611c485750828260088110611c1557611c1561288b565b60200201518460530182600a8110611c2f57611c2f61288b565b600802018360088110611c4457611c4461288b565b0154115b15611cd4578360530181600a8110611c6257611c6261288b565b600802018260088110611c7757611c7761288b565b0154838360088110611c8b57611c8b61288b565b60200201526003840181600a8110611ca557611ca561288b565b600802018260088110611cba57611cba61288b565b01548460f4018360088110611cd157611cd161288b565b01555b80611cde8161291e565b915050611a22565b828260088110611cf857611cf861288b565b6020020151600003611e03576000611d128383600161227c565b9050611d3f6040518060400160405280600981526020016803930b73237b6901e960bd1b815250826120ef565b611d6f6040518060400160405280600e81526020016d03337b91031b0ba32b3b7b93c9d160951b815250846120ef565b611dbe6040518060400160405280600981526020016803a3930b4ba101e9e960bd1b8152508660030183600a8110611da957611da961288b565b60080201856008811061089b5761089b61288b565b8460030181600a8110611dd357611dd361288b565b600802018360088110611de857611de861288b565b01548560f4018460088110611dff57611dff61288b565b0155505b5060fc8301805460ff1916600117905580611e1d8161291e565b915050611a16565b506001548254604051630e226f3f60e31b81526004810191909152600060248201526001600160a01b039091169063711379f890604401600060405180830381600087803b158015611e7657600080fd5b505af1158015611e8a573d6000803e3d6000fd5b50506001805490850154604051630e226f3f60e31b81526004810191909152600060248201526001600160a01b03909116925063711379f89150604401600060405180830381600087803b158015611ee157600080fd5b505af1158015611ef5573d6000803e3d6000fd5b50506001805485549186015460f487015460f588015460f689015460f78a015460f88b015460f98c015460fa8d015460fb8e01546040516319a571c960e01b8152600481019b909b5260248b019890985260448a01969096526064890194909452608488019290925260a487015260c486015260e48501526101048401526101248301526001600160a01b031692506319a571c99150610144016020604051808303816000875af1158015611fae573d6000803e3d6000fd5b505050506040513d601f19601f82011682018060405250810190611fd29190612849565b50847f790c407ce7a3d5aead3fa6b6f0ca58714842bf23381cd1c98c63a0dcc2d6e36e836000015484600101548560f301548660f4016040516120189493929190612a22565b60405180910390a25050505050565b61202f612134565b6001600160a01b0381166120945760405162461bcd60e51b815260206004820152602660248201527f4f776e61626c653a206e6577206f776e657220697320746865207a65726f206160448201526564647265737360d01b606482015260840161098f565b61209d81612195565b50565b6120e9848484846040516024016120ba9493929190612a8b565b60408051601f198184030181529190526020810180516001600160e01b031663a0c4b22560e01b1790526123cc565b50505050565b610a248282604051602401612105929190612ac8565b60408051601f198184030181529190526020810180516001600160e01b03166309710a9d60e41b1790526123cc565b6000546001600160a01b0362010000909104163314610f455760405162461bcd60e51b815260206004820181905260248201527f4f776e61626c653a2063616c6c6572206973206e6f7420746865206f776e6572604482015260640161098f565b600080546001600160a01b038381166201000081810262010000600160b01b0319851617855560405193049190911692909183917f8be0079c531659141344cd1fd0a4f28419497f9722a3daafe3b4186f6b6457e091a35050565b6120e98484848460405160240161220a9493929190612aea565b60408051601f198184030181529190526020810180516001600160e01b031663bb7235e960e01b1790526123cc565b61209d8160405160240161224d9190612b2f565b60408051601f198184030181529190526020810180516001600160e01b031663104c13eb60e21b1790526123cc565b600080333a86434261228f600183612b42565b6040516370a0823160e01b81526001600160a01b037f0000000000000000000000000000000000000000000000000000000000000000811660048301529140917f000000000000000000000000000000000000000000000000000000000000000016906370a0823190602401602060405180830381865afa158015612318573d6000803e3d6000fd5b505050506040513d601f19601f8201168201806040525081019061233c9190612849565b60405160609790971b6bffffffffffffffffffffffff19166020880152603487019590955260548601939093526074850191909152609484015260b483015260d482015260f40160408051601f19818403018152919052805160209091012091508190506123aa8482612a0e565b91506123b68383612878565b91506123c3600183612b42565b95945050505050565b80516a636f6e736f6c652e6c6f67602083016000808483855afa5050505050565b60405180610100016040528060008152602001600081526020016000815260200160008152602001600081526020016000815260200160008152602001600081525090565b60508301918390821561246a579160080282015b8281111561246a5761245a8284600861247a565b5091600801919060080190612446565b50612476929150612515565b5090565b82600881019282156124a5579182015b828111156124a557825482559160010191906001019061248a565b50612476929150612532565b6040518061012001604052806000815260200160008152602001600081526020016124da612547565b81526020016124e7612547565b81526020016124f4612547565b815260200160008152602001612508612575565b8152600060209091015290565b808211156124765760006125298282612594565b50600801612515565b5b808211156124765760008155600101612533565b604051806101400160405280600a905b61255f612575565b8152602001906001900390816125575790505090565b6040518061010001604052806008906020820280368337509192915050565b5061209d906008810190612532565b90815260200190565b600080604083850312156125bf57600080fd5b50508035926020909101359150565b6000602082840312156125e057600080fd5b5035919050565b6000602082840312156125f957600080fd5b81356001600160a01b038116811461261057600080fd5b9392505050565b8060005b60088110156120e957815184526020938401939091019060010161261b565b8060005b600a8110156120e957612652848351612617565b61010093909301926020919091019060010161263e565b6000611fa082019050825182526020830151602083015260408301516040830152606083015161269c606084018261263a565b5060808301516126b0610a6084018261263a565b5060a08301516126c461146084018261263a565b5060c0830151611e6083015260e08301516126e3611e80840182612617565b5061010092909201511515611f80919091015290565b60008060006060848603121561270e57600080fd5b8335925060208401356008811061272457600080fd5b929592945050506040919091013590565b8051801515811461274557600080fd5b919050565b60008060008060008060008789036101c081121561276757600080fd5b8851975060208901519650604089015195506060890151945061278c60808a01612735565b935061279a60a08a01612735565b92506101008060bf19830112156127b057600080fd5b604051915080820182811067ffffffffffffffff821117156127e257634e487b7160e01b600052604160045260246000fd5b806040525060c08a0151825260e08a01516020830152808a01516040830152506101208901516060820152610140890151608082015261016089015160a082015261018089015160c08201526101a089015160e08201528091505092959891949750929550565b60006020828403121561285b57600080fd5b5051919050565b634e487b7160e01b600052601160045260246000fd5b808201808211156108f0576108f0612862565b634e487b7160e01b600052603260045260246000fd5b8060005b60088110156120e95781548452602090930192600191820191016128a5565b828152610a208101602082018360005b600a8110156128fe576128e783836128a1565b6101009290920191600891909101906001016128d4565b5050509392505050565b634e487b7160e01b600052602160045260246000fd5b60006001820161293057612930612862565b5060010190565b6008811061295557634e487b7160e01b600052602160045260246000fd5b9052565b8581526001600160a01b038516602082015260a0810161297c6040830186612937565b6060820193909352608001529392505050565b634e487b7160e01b600052601260045260246000fd5b6000826129b4576129b461298f565b500490565b6001600160a01b038416815260208101839052606081016129dd6040830184612937565b949350505050565b6000602082840312156129f757600080fd5b81516001600160801b038116811461261057600080fd5b600082612a1d57612a1d61298f565b500690565b848152602081018490526040810183905261016081016123c360608301846128a1565b6000815180845260005b81811015612a6b57602081850181015186830182015201612a4f565b506000602082860101526020601f19601f83011685010191505092915050565b608081526000612a9e6080830187612a45565b8560208401528281036040840152612ab68186612a45565b91505082606083015295945050505050565b604081526000612adb6040830185612a45565b90508260208301529392505050565b608081526000612afd6080830187612a45565b8560208401528281036040840152612b158186612a45565b91505060018060a01b038316606083015295945050505050565b6020815260006126106020830184612a45565b818103818111156108f0576108f061286256fe2a2a2a2a2a2a2a2a2a2a206120766f746520686173206265656e20636173746564206f6e2063617465676f72793a2041756374696f6e207374617274696e6720666f7220707265676e616e6379206f6620747279696e6720746f2072656d6f7665207468652076697375616c2077697468206c6f76653a20a26469706673582212202fbcbe5cc453f3bb8626c07a8929f08cda6ff097ecc1d15c55ead6acde11700664736f6c63430008140033",
    "linkReferences": {}
  },
  "methodIdentifiers": {
    "GENERATOR_SOURCE_BALANCE()": "850a19ec",
    "GENERATOR_SOURCE_CONTRACT()": "7365841f",
    "aminals()": "4fc465d8",
    "auctionCnt()": "00be2358",
    "auctions(uint256)": "571a26a0",
    "endAuction(uint256)": "b9a2de3a",
    "getAuctionByID(uint256)": "6cb893b0",
    "owner()": "8da5cb5b",
    "proposeVisual(uint256,uint8,uint256)": "a569155f",
    "removeVisual(uint256,uint8,uint256)": "916b0819",
    "renounceOwnership()": "715018a6",
    "setup(address)": "66d38203",
    "startAuction(uint256,uint256)": "4fee13fc",
    "transferOwnership(address)": "f2fde38b",
    "voteVisual(uint256,uint8,uint256)": "6e3089b5"
  },
  "id": 46
}